:020000040000FA
:06000000EAEF15F012000A
:0600080004EF08F01200F5
:060018000CEF08F01200DD
:06082A00010012100000A5
:08083000CD00000004000000EF
:08083800D9CFE6FFE1CFD9FFA3
:10084000020EE126DE6ADD6A800EE76EFD0EDBCF6A
:1008500010F0FE0EDBCF11F0E7501012FD0E10C0AD
:10086000DBFFFE0E11C0DBFF8B82949294908B8095
:10087000DECF10F0DDCF11F0080E105C000E115825
:1008800021E28B900000FD0EDB50800B02E08B829A
:1008900001D08B92000000008B800000FD0EDBCFAA
:1008A00010F0FE0EDBCF11F0D89010361136FD0E91
:1008B00010C0DBFFFE0E11C0DBFFDF2A010E01E3DB
:1008C000DB2AD6D7DE6ADD6ADECF10F0DDCF11F08D
:1008D000080E105C000E115821E28B900000FB0EF8
:1008E000DB50800B02E08B8201D08B9200008B806A
:1008F00000000000FB0EDBCF10F0FC0EDBCF11F090
:10090000D89010361136FB0E10C0DBFFFC0E11C064
:10091000DBFFDF2A010E01E3DB2AD6D7020EE15C02
:1009200002E2E16AE552E16EE552E7CFD9FF12003B
:10093000D9CFE6FFE1CFD9FF040EE126020EDB6A34
:10094000030EDB6ADE6ADD6A7F0EE76EFD0EDBCF2B
:1009500010F0FE0EDBCF11F0E7501016116AFD0EFD
:1009600010C0DBFFFE0E11C0DBFF8B8294928B80E8
:10097000DECF10F0DDCF11F0080E105C000E115824
:100980001DE28B90FD0EDB50800B02E08B8201D0CC
:100990008B928B80FD0EDBCF10F0FE0EDBCF11F0C3
:1009A000D89010361136FD0E10C0DBFFFE0E11C0C0
:1009B000DBFFDF2A010E01E3DB2ADAD79482DE6A4D
:1009C000DD6ADECF10F0DDCF11F0100E105C000EEE
:1009D000115806E20000DF2A010E01E3DB2AF1D7FD
:1009E0008B8294829482DE6ADD6ADECF10F0DDCFE6
:1009F00011F0080E105C000E11583AE28B908B80BB
:100A0000020EDBCF10F0030EDBCF11F0D8901036C2
:100A10001136020E10C0DBFF030E11C0DBFF82A2F5
:100A200011D0010EE76E020EDBCF10F0030EDBCF0C
:100A300011F0E7501012020E10C0DBFF030E11C0C0
:100A4000DBFF11D0FE0EE76E020EDBCF10F0030EBF
:100A5000DBCF11F0E7501016116A020E10C0DBFF59
:100A6000030E11C0DBFFDF2A010E01E3DB2ABDD735
:100A700094928B828B80020EDBCF10F0030EDBCFC3
:100A800011F010C0F3FF11C0F4FF00D0040EE15CC0
:100A900002E2E16AE552E16EE552E7CFD9FF1200CA
:100AA000D9CFE6FFE1CFD9FF040EE126DE6ADD6A89
:100AB000020EDB6A030EDB6A966A070EF36E020E05
:100AC000F3CFDBFF030EDB6A020EDBCF10F0030E69
:100AD000DBCF11F00001800E111437E18494020E77
:100AE000E66E06EC16F0E552010EF36E020EDB50D8
:100AF00004E0D890F336E806FCE1F350126E136A76
:100B000012BE1368FD0EDB501214106EFE0EDB5089
:100B10001314116E1050111002E1000E01D0010EDD
:100B2000E8B08482E8A08492020EE66E06EC16F02D
:100B3000E5528484050EE66E06EC16F0E552020ED0
:100B4000DB06030E01E2DB06BFD78492020E966E2F
:100B5000780EE66E06EC16F0E552070EF36E020E06
:100B6000F3CFDBFF030EDB6A020EDBCF10F0030EC8
:100B7000DBCF11F00001800E111420E18494070EE8
:100B8000E66E06EC16F0E5528484050EE66E06EC81
:100B900016F0E5528450020B01E0010EF36E020ED6
:100BA000DB5004E0D890F336E806FCE1F350DF12A6
:100BB000020EDB06030E01E2DB06D6D7966A8492AC
:100BC000780EE66E06EC16F0E552DECF10F0DDCFC3
:100BD00011F010C0F3FF11C0F4FF040EE15C03E25A
:100BE00000D0E16AE552E16EE552E7CFD9FF12008D
:100BF000DACFE4FFE2CFDAFFE652000E000901E0AF
:100C0000F292E552E5CFDAFF1100D8CFE4FFE0CF52
:100C1000E4FFE46EDACFE4FFE2CFDAFFE652F2500F
:100C2000200B0AE0F250040B07E08B74150ED76E10
:100C3000A00ED66EF292F294E552E5CFDAFFE550BF
:100C4000E5CFE0FFE5CFD8FF1000D08EF28CF28E1A
:100C5000F28EF28C800ED56E150ED76EA00ED66E6B
:100C6000F194F28A9E6A26D8966A84928484050E4C
:100C7000E66EF8EC15F0E5528494050EE66EF8EC9D
:100C800015F0E5528484E668ADEC15F0E552E668AF
:100C9000ADEC15F0E552E668ADEC15F0E552E6680E
:100CA000ADEC15F0E55265EC08F064EC11F07CD881
:100CB000FAD712000F0EC11202D80FEF08F05CEC49
:100CC00014F074EC15F0D9EC10F095EC13F0E66E1E
:100CD000CEEC10F0E55200019A6B9B6B1200D9CF5D
:100CE000E6FFE1CFD9FF020EE126FD0EDBCFE6FFE6
:100CF000FE0EDB50E552E724DE6EDD6ADECF10F03B
:100D0000DDCF11F0FE0EDB50126E136A1250105C34
:100D1000135011580FE3DECF14F0DDCF15F0FD0EA8
:100D2000DB50166E176A1650145C1750155802E304
:100D3000000E01D0010E106E020EE15C03E200D045
:100D4000E16AE552E16E1050E552E7CFD9FF12009B
:100D5000D9CFE6FFE1CFD9FF020EE126FE0EDBCFB1
:100D6000E6FFFD0EDB50E552E75CDE6EDD6ADECFAE
:100D700010F0DDCF11F0FE0EDB50126E136A105032
:100D8000125C1150135802E3000E01D0010E106ED8
:100D9000020EE15C03E200D0E16AE552E16E105020
:100DA000E552E7CFD9FF1200200E0001605D03E39A
:100DB0006D50020B01E001D001D8120075EC14F067
:100DC00000019A519B1102E1000E08D09AC0E9FF80
:100DD0009BC0EAFFEF50800B01E0010E000901E02B
:100DE000C8D07CEC15F098EC11F0CBC033F4CCC03B
:100DF00034F4C2C036F4C3C037F4170EE66EE66AA8
:100E00004FDEE552E552F3CF9CF0F3CF9DF09CC04E
:100E100010F0116A10BE116810C008F011C009F07E
:100E2000CEC00DF0CFC00EF0D9EC07F00850000195
:100E30009F27800E9C5D2EE29CC010F0116A10BEB0
:100E4000116810C008F011C009F0CEC00DF0CFC07D
:100E50000EF0D9EC07F00850E66ECDC0E6FF3FDF9C
:100E6000E552E552000903E00001CD6912D09CC0B3
:100E700010F0116A10BE116810C008F011C009F01E
:100E8000CEC00DF0CFC00EF0D9EC07F00850000135
:100E9000CD272FD09C1D9C6F9CC010F0116A10BEF6
:100EA000116810C008F011C009F0CEC00DF0CFC01D
:100EB0000EF0D9EC07F00850E66ECDC0E6FF48DF33
:100EC000E552E552000903E00001CD6B12D09CC051
:100ED00010F0116A10BE116810C008F011C009F0BE
:100EE000CEC00DF0CFC00EF0D9EC07F008500001D5
:100EF000CD5FCDC09EF09DC010F0116A10BE11688C
:100F0000800E10240001A06F0001CA1D030B000118
:100F1000D06FD05103E19EC035F40ED0D00503E16F
:100F2000A0C035F409D0020ED05D03E19FC035F4B6
:100F300003D00401800E356F0401386B396B3A6BB6
:100F4000C8C03CF4C9C03DF4D0C03EF40C0EE66EFF
:100F5000330EE66E040EE66E010EE66EE66E36ECBD
:100F600010F0106E050EE15E1050F3CF9AF0F4CF42
:100F70009BF000D012001200120012001200E5EFE8
:100F800013F012001A0EE66E010EE66EABEC0FF0D7
:100F9000E552E55212006D840001080EA16F070EA4
:100FA000A26FA107000EA25BA151A211FAE16D94FC
:020FB00012002D
:0E0FB200006A0EAEE2EF07F00D6C0E1EE86A4C
:100FC0000E22001E09AEEAEF07F0086C091EE86A5F
:100FD0000922001EC4EC15F009BEFAEF07F000AEBE
:100FE000000C086C091EE86A0922046C051EE86AF8
:0E0FF0000522000C00BEF1EF07F00188FF0C97
:06100000EAEF15F01200FA
:021006001200D6
:06100800F8EF05F01200F4
:02100E00F19E51
:021010001200CC
:041012007F0A000051
:0610180005EF06F01200D6
:02101E00D9CF28
:10102000E6FFE1CFD9FFE6526A6A686A9F0E6B6EEF
:10103000FB0E696E6D8C6D9C6E6A010EE66EE66A43
:10104000E66A710EE66E0F0EE66E93EC15F0106E0A
:10105000050EE15E1050DF6ADF50106E116A060E59
:10106000105C000E115810E2DF50040DF3CFE9FFC1
:10107000F4CFEAFF000EE926040EEA22EE6AEE6AD9
:10108000EE6AEE6ADF2AE8D7160E706E68A60CD0FC
:10109000030EE66E680EE66E0F0EE66EB2EC10F012
:1010A000E552E552E552F2D70001776B7C6B7D6B20
:1010B0007E6B6D98040E6D6F040E6E6F616B606BCE
:1010C000E552E552E7CFD9FF1200D9CFE6FFE1CFD5
:1010D000D9FFE6520001605111E105D06D6A696ADD
:1010E0000001606B7BD06D6A696A6DB602D06D8657
:1010F000FCD70001010E606F140E6F6E600508E1F1
:101100006DBA06D0686A696A69806988020E606F84
:101110006850040B04E06950040B01E096D86DB2EE
:101120005DD06850010B11E06950010B0EE077DFD4
:101130000001040E606F0401180E026F040E036FAD
:10114000100E016F006B8C0E00136850100B04E042
:101150006950100B01E06AD86850400B10E06950EC
:10116000400B0DE0BDEC07F0060EE66E680EE66E75
:101170000F0EE66EB2EC10F0E552E552E552685003
:10118000200B04E06950200B01E02DD86850020BC1
:1011900006E06950020B03E0BEEC07F06A6A040E39
:1011A0000001605D01E21AD069A618D0DF6A040E62
:1011B000DF5C14E268A60FD06CCF84F0030EE66EFD
:1011C000680EE66E0F0EE66EB2EC10F0E552E552D8
:1011D000E5524ED801D002D0DF2AE9D7E552E552D8
:1011E000E7CFD9FF120070A015D063C0E9FF64C03B
:1011F000EAFFEF5080080DE16DC0E9FF6EC0EAFF25
:10120000EF50840806E163C0E9FF64C0EAFF8C0E7A
:10121000EF6E7090050EE66E680EE66E0F0EE66ECF
:10122000B2EC10F0E552E552E55212006984040E6A
:10123000E66E680EE66E0F0EE66EB2EC10F0E5524A
:10124000E552E5526D82BBEF07F06D92BCEC07F002
:10125000699468A40CD0020EE66E680EE66E0F0E5E
:10126000E66EB2EC10F0E552E552E552F2D712000C
:10127000FD0E000184151FE17E0E8415E8407F0BF2
:10128000040DF3CF63F0F4CF64F0000E6327040E77
:10129000642363C065F064C066F063C0E9FF64C0A6
:1012A000EAFFEF503C0BE842E8420D0802E109D8A2
:1012B00001D01ED805D0FD0E8415040801E121D807
:1012C00012006DC0E9FF6EC0EAFFEF50800B05E031
:1012D0006DC0E9FF6EC0EAFFEF6A0001736B746BCB
:1012E000786B796B776BF8D8BFEC07F030EF0DF0C7
:1012F000020E0001745D03E18DEC0EF001D04ED8BA
:101300001200D9CFE6FFE1CFD9FFE6526DC0E9FF69
:101310006EC0EAFFEF50400B01E0010EDF6E080ED9
:101320000001605D0AE11AC46EFF6E50000803E21E
:10133000100E606F02D0040E606F740529E16DC05D
:10134000E9FF6EC0EAFF020EE926000EEA22200E37
:10135000EE6E040EED6E02EC0EF0020E0001735DF7
:1013600007E16DC0E9FF6EC0EAFF840EEF6E0FD09B
:10137000DF5007E16DC0E9FF6EC0EAFFC80EEF6EF7
:1013800006D06DC0E9FF6EC0EAFF880EEF6E01D097
:1013900005D8E552E552E7CFD9FF1200D9CFE6FFD5
:1013A000E1CFD9FF030EE126020E0001745D4AE190
:1013B0006D50100B47E063C0E9FF64C0EAFFEE52D6
:1013C000EF50106E116A080E101801E111503AE149
:1013D00063C0E9FF64C0EAFFEF503C0BE842E8421B
:1013E0000D0830E165C0E9FF66C0EAFFEF50800BF1
:1013F00029E165C0E9FF66C0EAFF020EE926000E9A
:10140000EA22180EEE6E040EED6EDF6ADF50106EEB
:10141000116A080E105C000E115813E2DF50EA6AE0
:10142000200FE96E040EEA22EF50E66EDF50EA6A02
:10143000180FE96E040EEA22E552E750EF6EDF2A3C
:10144000E5D731D0746B65C0E9FF66C0EAFFEE52A4
:10145000100EEF6E65C0E9FF66C0EAFF020EE926D6
:10146000000EEA22180EEE6E040EED6E65C0E9FF66
:1014700066C0EAFF8C0EEF6E6DC0E9FF6EC0EAFF3A
:10148000EF6A000E6D19106E6EC011F0010E10C0E3
:10149000DBFF020E11C0DBFF010EDBCFE9FF020E06
:1014A000DBCFEAFFEF6A00017CAF0CD07F518011E7
:1014B00007E005D080C0FAFF00017F51F96EFADF26
:1014C00000017C9F030EE15C02E2E16AE552E16EFD
:1014D000E552E7CFD9FF120004011851600BE84232
:1014E000E842E842E842E842000901E04DD01951E3
:1014F0000C0A49E00B0A44E00C0A36E0010A27E036
:101500000B0A23E0020A21E0030A1DE0080A11E0A9
:10151000010A0CE00F0A08E0030A01E034D00001E0
:10152000778F080E606F30D0B6D82ED01EEC0FF03B
:101530002BD00001610E756F000E766F7781010E62
:10154000786F778F21D032DA1FD01FD81DD01C5171
:101550000001756F766B620E7527000E762377811A
:10156000010E786F778F10D00001778F04011C5126
:10157000EA6A620FE96E000EEA221AC4EFFF04D095
:10158000C1EC07F001D000D01200D9CFE6FFE1CFC7
:10159000D9FF050EE12604011A0510E118511F0BB1
:1015A00000090CE10001778F030E0401195D04E1CD
:1015B0000001010E836F02D00001836B04011A51F8
:1015C00060E118511F0B02085CE11C510F0B000970
:1015D00058E00001778F040EDB6A020EF36E040EF2
:1015E000DBCFF4FFF350F45C4CE2000EDE6E040E31
:1015F000DD6E04011C51800B01E0010E126E1C51C6
:101600000F0BE8241224040DF3CF10F0F4CF11F0E7
:10161000D9CFE9FFDACFEAFF1050EE261150ED22C4
:10162000030E195D07E1DECFE9FFDDCFEAFF840E8F
:10163000EF6E24D01C510F0B116A700F106E0F0E3D
:101640001122020E10C0DBFF030E11C0DBFF020EE1
:10165000DBCFE9FF030EDBCFEAFFEE90ED521CAFCC
:1016600007D0DECFE9FFDDCFEAFF400EEF6E06D0F8
:10167000DECFE9FFDDCFEAFFC80EEF6E040EDB2AF6
:10168000ACD7050EE15C02E2E16AE552E16EE5529B
:10169000E7CFD9FF1200800E0401185D01E085D16B
:1016A0000001C00E776F04011B51030A01E1A8D0AD
:1016B000010A01E187D0030A03E00001776B75D1CD
:1016C00000018D51090A3DE0010A36E00F0A2FE0C2
:1016D000010A28E0030A21E0010A1AE0070A13E0E0
:1016E000010A0CE0030A05E0960E756F290E766F6D
:1016F0002DD0A80E756F290E766F28D0BA0E756F93
:10170000290E766F23D0CC0E756F290E766F1ED002
:10171000DE0E756F290E766F19D0F00E756F290EDB
:10172000766F14D0020E756F2A0E766F0FD0140EDE
:10173000756F2A0E766F0AD0260E756F2A0E766F99
:1017400005D0380E756F2A0E766F00D08D51090ABC
:1017500034E0010A2EE00F0A28E0010A22E0030A21
:101760001CE0010A16E0070A10E0010A0AE0030A79
:1017700004E0120E786F796B24D0120E786F796BBB
:1017800020D0120E786F796B1CD0120E786F796BA7
:1017900018D0120E786F796B14D0120E786F796BA7
:1017A00010D0120E786F796B0CD0120E786F796BA7
:1017B00008D0120E786F796B04D0120E786F796BA7
:1017C00000D0F3D01A51F66EF76AD890F636F73695
:1017D0001F0EF626260EF7220900F5CF75F00A0037
:1017E000F5CF76F0020E0001F76A7525F66E765198
:1017F000F7220900F5CF78F00A00F5CF79F0D5D0BF
:1018000000018D51090A01E1B4D0010A01E19FD024
:101810000F0A01E18AD0010A76E0030A62E0010AB8
:101820004EE0070A3AE0010A26E0030A12E004014A
:101830001A51F66EF76AD890F636F736210EF6266C
:10184000260EF7220900F5CF75F00A00F5CF76F0E5
:10185000A2D004011A51F66EF76AD890F636F73620
:10186000270EF626260EF7220900F5CF75F00A009E
:10187000F5CF76F090D004011A51F66EF76AD89041
:10188000F636F7362D0EF626260EF7220900F5CF8E
:1018900075F00A00F5CF76F07ED004011A51F66E8D
:1018A000F76AD890F636F736330EF626260EF7226C
:1018B0000900F5CF75F00A00F5CF76F06CD0040181
:1018C0001A51F66EF76AD890F636F736390EF626C4
:1018D000260EF7220900F5CF75F00A00F5CF76F055
:1018E0005AD004011A51F66EF76AD890F636F736D8
:1018F0003F0EF626260EF7220900F5CF75F00A00F6
:10190000F5CF76F048D004011A51F66EF76AD890F8
:10191000F636F736450EF626260EF7220900F5CFE5
:1019200075F00A00F5CF76F036D004011A51F66E44
:10193000F76AD890F636F7364B0EF626260EF722C3
:101940000900F5CF75F00A00F5CF76F024D0040138
:101950001A51F66EF76AD890F636F736510EF6261B
:10196000260EF7220900F5CF75F00A00F5CF76F0C4
:1019700012D004011A51F66EF76AD890F636F7368F
:10198000570EF626260EF7220900F5CF75F00A004D
:10199000F5CF76F000D075C0F6FF76C0F7FF0800EF
:1019A000F5500001786F796B00D01200D9CFE6FFB7
:1019B000E1CFD9FF020EE1260401206B216B185103
:1019C0001F0B020A12E0030A0DE0010A01E034D005
:1019D0000001778F040120810001830502E10401E9
:1019E00020832AD00001778F27D00001778F000E47
:1019F000DE6E040EDD6E04011C51800B01E0010E51
:101A0000126E1C510F0BE8241224040DF3CF10F0BA
:101A1000F4CF11F0D9CFE9FFDACFEAFF1050EE266C
:101A20001150ED22DECFE9FFDDCFEAFFEF50040BCE
:101A300002E0010E206F00D0000177AF07D0200E2A
:101A4000756F040E766F7781020E786F020EE15C7F
:101A500002E2E16AE552E16EE552E7CFD9FF1200FA
:101A60006D98000177BF4AD07CAF28D0020E746F0A
:101A70006DC0E9FF6EC0EAFFEE52EF6A6DC0E9FF8C
:101A80006EC0EAFFC80EEF6E65C0E9FF66C0EAFFF0
:101A9000EE52100EEF6E65C0E9FF66C0EAFF020E5F
:101AA000E926000EEA22200EEE6E040EED6E65C0F1
:101AB000E9FF66C0EAFFC80EEF6E1FD065C0E9FF00
:101AC00066C0EAFFEE52100EEF6E65C0E9FF66C019
:101AD000EAFF020EE926000EEA22180EEE6E040E50
:101AE000ED6E65C0E9FF66C0EAFF8C0EEF6E6DC05B
:101AF000E9FF6EC0EAFF840EEF6E83D07CBF81D019
:101B0000040118AF56D00001785104011E5D000198
:101B1000795104011F5904E21EC478F01FC479F002
:101B200071D80001010E746F65C0E9FF66C0EAFF5D
:101B3000EE52100EEF6E65C0E9FF66C0EAFF020EBE
:101B4000E926000EEA22180EEE6E040EED6E65C058
:101B5000E9FF66C0EAFF800EEF6E63C0E9FF64C074
:101B6000EAFFEE52100EEF6E63C0E9FF64C0EAFFB9
:101B7000020EE926000EEA22180EEE6E040EED6E3D
:101B800063C0E9FF64C0EAFF800EEF6E6DC0E9FF3D
:101B90006EC0EAFF020EE926000EEA22200EEE6E6B
:101BA000040EED6E6DC0E9FF6EC0EAFFC80EEF6E69
:101BB00028D00001020E746F6DC0E9FF6EC0EAFF0D
:101BC000EE52EF6A6DC0E9FF6EC0EAFFC80EEF6E1D
:101BD00065C0E9FF66C0EAFFEE52100EEF6E65C009
:101BE000E9FF66C0EAFF020EE926000EEA22200E97
:101BF000EE6E040EED6E65C0E9FF66C0EAFFC80E2A
:101C0000EF6E1200D9CFE6FFE1CFD9FF020EE12639
:101C10000001100E785D000E79590EE278C0DEFFEB
:101C200079C0DDFF735103E1010E736F04D07305BA
:101C300002E1020E736F03D0100EDE6EDD6A6DC01E
:101C4000E9FF6EC0EAFFEF926DC0E9FF6EC0EAFFE8
:101C5000EF906DC0E9FF6EC0EAFF010EDB50EF129E
:101C60006DC0E9FF6EC0EAFFEE52DFCFEFFF000E5E
:101C7000DB50785F010EDB50795B200E816F040E24
:101C8000826F77B121D0D9CFE9FFDACFEAFFEE50EA
:101C9000ED1019E075C0F6FF76C0F7FF752B000E4A
:101CA00076230800F550E66E81C0E9FF82C0EAFFA6
:101CB000812B000E8223E552E750EF6EDF06010E06
:101CC00001E2DB06E0D71FD0D9CFE9FFDACFEAFF88
:101CD000EE50ED1018E075C0E9FF76C0EAFF752BF5
:101CE000000E7623EF50E66E81C0E9FF82C0EAFF66
:101CF000812B000E8223E552E750EF6EDF06010EC6
:101D000001E2DB06E1D7020EE15C02E2E16AE552A4
:101D1000E16EE552E7CFD9FF1200D9CFE6FFE1CF60
:101D2000D9FF020EE12663C0E9FF64C0EAFFEE526C
:101D3000EFCFDFFFDFCF10F0105000017D5D000E10
:101D40007E5903E27DC0DFFF09D0DF50106E116ABB
:101D500010507D5D7D6F11507E597E6F010EDB6AE4
:101D6000DF50F36E010EDBCFF4FFF350F45C16E2AC
:101D7000010EDB50EA6A200FE96E040EEA22EF50F2
:101D8000E66E7AC0E9FF7BC0EAFF7A2B000E7B2368
:101D9000E552E750EF6E010EDB2AE2D7000ED88045
:101DA0007D55000E7E5528E265C0E9FF66C0EAFF5A
:101DB000EE52100EEF6E65C0E9FF66C0EAFF020E3C
:101DC000E926000EEA22200EEE6E040EED6E63C0D0
:101DD000E9FF64C0EAFFEF50400B07E165C0E9FF8F
:101DE00066C0EAFFC80EEF6E06D065C0E9FF66C0A8
:101DF000EAFF880EEF6E18D065C0E9FF66C0EAFF03
:101E0000020EE926000EEA22180EEE6E040EED6EAA
:101E10007F51801107E005D080C0FAFF00017F519B
:101E2000F96EFADF00017C9F020EE15C02E2E16ADA
:101E3000E552E16EE552E7CFD9FF12000001778F3E
:101E4000010EE66EE66AE66A710EE66E0F0EE66E4B
:101E500093EC15F0106E050EE15E1050010EE66E6B
:101E6000E66AE66A620EE66E000EE66E93EC15F028
:101E7000106E050EE15E10501AC461F004011A5193
:101E800004E10001100E606F05D00001200E606FAC
:101E9000C2EC07F01200D9CFE6FFE1CFD9FF020E66
:101EA000E126000EDE6E040EDD6EFD0EDB50040D2D
:101EB000F3CF12F0FE0EDB50080DF3501224106E1B
:101EC000116A020E0F0B05E0D89011321032E806AD
:101ED000FBE1D89010361136D89010361136D9CF94
:101EE000E9FFDACFEAFF1050EE261150ED22DECFE7
:101EF000E9FFDDCFEAFFEF9EFD0EDB500FE1FE0EA6
:101F0000EA6ADB34FE0BEA36E96E670EE926000E5C
:101F1000EA22DECFEEFFDDCFEDFF0ED0FE0EEA6A45
:101F2000DB34FE0BEA36E96E6D0EE926000EEA227E
:101F3000DECFEEFFDDCFEDFFDECFE9FFDDCFEAFF45
:101F4000EF8C020EE15C02E2E16AE552E16EE552DD
:101F5000E7CFD9FF1200D9CFE6FFE1CFD9FF020EBC
:101F6000E126FE0EDB50116A700F106E0F0E11226B
:101F700010C0DEFF11C0DDFFFD0EDB50E66EDECFD0
:101F8000E9FFDDCFEAFFE552E750EE6EED6AFD0EA8
:101F9000DBA407D0E66AFE0EDBCFE6FF7CDFE5526E
:101FA000E552FD0EDBA208D0010EE66EFE0EDBCF81
:101FB000E6FF71DFE552E552020EE15C02E2E16A02
:101FC000E552E16EE552E7CFD9FF1200D9CFE6FF27
:101FD000E1CFD9FF020EE126FE0EDB5020E165C005
:101FE000E9FF66C0EAFFEE52100EEF6E65C0E9FF32
:101FF00066C0EAFF020EE926000EEA22180EEE6E17
:10200000040EED6E65C0E9FF66C0EAFF8C0EEF6E50
:102010006DC0E9FF6EC0EAFF840EEF6E1DD0FD0EAD
:10202000DBCFE6FFFE0EDB50E824E552E724040D8B
:10203000F3CF10F0F4CF11F0000E1026040E112291
:1020400010C0DEFF11C0DDFF840E106EDECFE9FF91
:10205000DDCFEAFF1050EF12020EE15C02E2E16A0E
:10206000E552E16EE552E7CFD9FF1200D9CFE6FF86
:10207000E1CFD9FF020EE126FD0EDB500FE0FE0E90
:10208000EA6ADB34FE0BEA36E96E6D0EE926000ED5
:10209000EA22EECFDEFFEDCFDDFF0ED0FE0EEA6AC4
:1020A000DB34FE0BEA36E96E670EE926000EEA2203
:1020B000EECFDEFFEDCFDDFFDECFE9FFDDCFEAFFC4
:1020C000EF7CDECFE9FFDDCFEAFF020EE926000E4E
:1020D000EA22FB0EDBCFEEFFFC0EDBCFEDFFDECF07
:1020E000E9FFDDCFEAFFEE52FA0EDBCFEFFF400E45
:1020F000106EDECFE9FFDDCFEAFF1050EF16880E3D
:10210000106EDECFE9FFDDCFEAFF1050EF12FD0EBB
:10211000DB500BE0FE0EEA6ADB34FE0BEA36E96EBA
:102120006D0EE926000EEA220AD0FE0EEA6ADB34C2
:10213000FE0BEA36E96E670EE926000EEA22DECFD4
:1021400010F0DDCF11F010C0F3FF11C0F4FF020E4C
:10215000E15C03E200D0E16AE552E16EE552E7CFCF
:10216000D9FF1200D9CFE6FFE1CFD9FF010EF36E00
:10217000FC0EDB5004E0D890F336E806FCE1F350A7
:10218000E81C106EFD0EDBCFE9FFFE0EDBCFEAFF91
:102190001050EF16E552E7CFD9FF1200D9CFE6FF76
:1021A000E1CFD9FFFE0EDBCF8DF0E552E7CFD9FFAF
:0221B00012001B
:0E21B200FB0E946E826A929C1200D9CFE6FF5B
:1021C000E1CFD9FFFD0EDBCFE9FFFE0EDBCFEAFF4B
:1021D000EE52EF50E840E8403F0B106EFD0EDBCFB3
:1021E000E9FFFE0EDBCFEAFFEF5010100001A66FF3
:1021F000A651040A36E0060A34E0090A32E0060A6B
:1022000030E00C0A10E0060A0EE0090A0CE0060AAB
:102210000AE0080A07E0050A05E00F0A03E0050ADC
:1022200001E03BD03AD0FD0EDBCFE9FFFE0EDBCF65
:10223000EAFF020EE926000EEA22EFCF10F0FD0EB3
:10224000105C0EE2020E106EFD0EDBCFE9FFFE0EFB
:10225000DBCFEAFF020EE926000EEA221050EF263D
:102260001CD0FD0EDBCFE9FFFE0EDBCFEAFF020E36
:10227000E926000EEA22EF5002080EE2020E106E6E
:10228000FD0EDBCFE9FFFE0EDBCFEAFF020EE926F3
:10229000000EEA221050EF5E00D0FD0EDBCFE9FF0A
:1022A000FE0EDBCFEAFFEF50E66EFD0EDBCFE9FF5F
:1022B000FE0EDBCFEAFFEE52E552E750EF6E00D0A4
:1022C000E552E7CFD9FF12008450E8240C0B00013F
:1022D000A76F8250040DF3500C0BAB6F82380F0BBD
:1022E0000C0BAF6FB56BB66B030EB6AF02D0D890C8
:1022F00003D0B55D000EB6591AE2B5C010F0B6C0F5
:1023000011F0D89010361136D89010361136A70E2D
:102310001026000E112210C0E6FF11C0E6FF4EDFAE
:10232000E552E5520001B52B000EB623DDD71200B1
:10233000899C0001B56BB66B030EB6AF02D0D89086
:1023400003D0B55D000EB65973E2B5C0E9FFB6C063
:10235000EAFFD890E936EA36D890E936EA36A70E91
:10236000E926000EEA22020EE926000EEA22EF50CC
:10237000E66EA30EB525E96E000EB621EA6EE552B3
:10238000E750EF6EB5C0E9FFB6C0EAFFD890E93676
:10239000EA36D890E936EA36A70EE926000EEA2298
:1023A000020EE926000EEA22EF50E66EB5C0E9FF04
:1023B000B6C0EAFFD890E936EA36D890E936EA3670
:1023C000A70EE926000EEA22030EE926000EEA22F5
:1023D000E552E750EF6EB5C0E9FFB6C0EAFFD8900E
:1023E000E936EA36D890E936EA36A70EE926000E35
:1023F000EA22020EE926000EEA22800EEF6EA30EFC
:10240000B525E96E000EB621EA6EEFCF10F0FD0E95
:10241000105C09E2A30EB525E96E000EB621EA6E46
:10242000EF50020801E3898CB52B000EB62384D748
:02243000120098
:0E2432000902220001010080320904000001AD
:102440000300000009211101000122450007058158
:102450000310000A040309041A0351002D0042006E
:10246000650072007200790020004F0053004700A1
:102470004300240351002D004200650072007200E9
:102480007900200050006C00610079006500720046
:10249000200023003000240351002D00420065007D
:1024A000720072007900200050006C006100790019
:1024B00065007200200023003100240351002D002C
:1024C00042006500720072007900200050006C002C
:1024D00061007900650072002000230032002403AF
:1024E00051002D004200650072007200790020004A
:1024F00050006C006100790065007200200023002C
:102500003300240351002D00420065007200720068
:102510007900200050006C006100790065007200B5
:10252000200023003400240351002D0042006500E8
:10253000720072007900200050006C006100790088
:1025400065007200200023003500240351002D0097
:1025500042006500720072007900200050006C009B
:10256000610079006500720020002300360024031A
:1025700051002D00420065007200720079002000B9
:1025800050006C006100790065007200200023009B
:102590003700240351002D004200650072007200D4
:1025A0007900200050006C00610079006500720025
:1025B000200023003800240351002D004200650054
:1025C000720072007900200050006C0061007900F8
:1025D0006500720020002300390005010904A101F3
:1025E00016000026FF0075089501093081020931A7
:1025F00081020932810209338102093481020935DD
:1026000081020936810209378102093881020509F0
:102610001901291815002501750195188102C0328C
:10262000245424582472245424582496245424587E
:1026300024BA2454245824DE245424582402255433
:102640002458242625542458244A25542458246EDA
:0D2650002554245824922554245824B625DE
:02265E00D9CFD2
:10266000E6FFE1CFD9FFE652FE0EDB50A96EFD0E6C
:10267000DB50A86EA69EA69CA684F250DF6EF26A7E
:10268000550EA76EAA0EA76EA682DF50F26E00004E
:10269000A1B802D00000FCD7A694A198E552E5525B
:1026A000E7CFD9FF1200D9CFE6FFE1CFD9FFFE0E69
:1026B000DB50A96EA69EA69CA680A85000D0E5522D
:1026C000E7CFD9FF1200D9CFE6FFE1CFD9FF020E45
:1026D000E126DF6A010EDB6A010EDBCFE6FFE3DFF6
:1026E000E552DF6EDF2ADF50090802E2010EDF6EDD
:1026F000DFCFE6FF010EDBCFE6FFB1DFE552E552AB
:102700000000010EDBCFE6FFCEDFE552DF6EDF50CB
:1027100000D0106E020EE15C02E2E16AE552E16E69
:102720001050E552E7CFD9FF1200D9CFE6FFE1CF35
:10273000D9FF030EE126DF6A811C0F0BE76E010E45
:10274000E7CFDBFFDFCFE6FFAEDFE552E76E020E3D
:10275000E7CFDBFF010EF36E010EDBCFF4FFF3508A
:10276000F45C13E3010EDB5009080FE3010EDBCF2D
:10277000E6FFDFCFE6FF73DFE552E5520000010E12
:10278000DB50E76E020EE7CFDBFF020EDB500908DD
:102790000BE2020EDB6A020EDBCFE6FFDFCFE6FFC5
:1027A0005EDFE552E5520000DFCFE6FF7CDFE55259
:1027B00000D0106E030EE15C02E2E16AE552E16EC8
:0A27C0001050E552E7CFD9FF1200D8
:0627CA00040118511F0B71
:1027D000010801E06DD01C5101E06AD0060E195DC0
:1027E00028E11B51230A21E0010A11E0030A01E05C
:1027F00020D0000161050AE10001440E756F240E2E
:10280000766F090E786F796BC00E776F12D000016A
:1028100061050AE10001DA0E756F250E766F450E2F
:10282000786F796BC00E776F04D00001800E776FE0
:1028300000D004011851600BE842E842E842E84247
:10284000E842010801E034D019510B0A2BE0080AD4
:102850001EE0090A16E0080A09E00B0A05E0080A6A
:1028600001E026D026D824D025D822D00001D10ED0
:10287000756F000E766F010E786F796BC10E776FF2
:1028800017D00001800E776F1BC4D1F011D000016A
:10289000D20E756F000E766F010E786F796B810E18
:1028A000776F06D00001800E776F1AC4D2F000D087
:0828B0001200120012001200D8
:0828B8000001C16B7F0EC26F2D
:1028C000C36FC46FC56FC66FC76F3F0E806E9280B7
:1028D0009282928492869288928A010EC26E0D0E26
:1028E000C16E2A0EC06EC2821200C2B253D0000165
:1028F000C151050A1AE0010A15E0070A10E0010AB1
:102900000BE0030A06E0010A01E012D0C4CFC2F0D6
:102910000FD0C4CFC3F00CD0C4CFC4F009D0C4CF03
:10292000C5F006D0C4CFC6F003D0C4CFC7F000D0E6
:10293000C12BC151010801E2C16BC151050A24E05C
:10294000010A1DE0070A16E0010A0FE0030A08E089
:10295000010A01E01ED0C30EC2140009C26E19D0D4
:10296000C30EC2140409C26E14D0C30EC2140809E7
:10297000C26E0FD0C30EC2140C09C26E0AD0C30EB1
:10298000C2141009C26E05D0C30EC2141409C26E5F
:0629900000D0C28212001B
:0A2996001201000200000010D8003A
:1029A00040030100010200011201000200000010BA
:1029B000D8004103010001020001120100020000E1
:1029C0000010D800420301000102000112010002C0
:1029D00000000010D80043030100010200011201B1
:1029E000000200000010D8004403010001020001B1
:1029F0001201000200000010D8004503010001028E
:102A000000011201000200000010D800460301007E
:102A1000010200011201000200000010D80047036B
:102A20000100010200011201000200000010D800A4
:102A30004803010001020001120100020000001021
:0A2A4000D800490301000102000163
:062A4A002A0EF66E080ED4
:102A5000F76E000EF86E00010900F550BC6F09001A
:102A6000F550BD6F03E1BC6701D03DD00900F550C2
:102A7000B76F0900F550B86F0900F550B96F09003C
:102A80000900F550E96E0900F550EA6E09000900E9
:102A90000900F550BA6F0900F550BB6F0900090035
:102AA000F6CFBEF0F7CFBFF0F8CFC0F0B7C0F6FF5B
:102AB000B8C0F7FFB9C0F8FF0001BA5302E1BB5339
:102AC00007E00900F550EE6EBA07F8E2BB07F9D748
:102AD000BEC0F6FFBFC0F7FFC0C0F8FF0001BC07D3
:082AE000000EBD5BBFD7120020
:082AE8009368816A07EC08F015
:102AF0009568836A848E1200811C0001C86F831C54
:102B0000C96F821CCA6F800ECB6F80B802D0CB6BAE
:102B100002D080A6CB69CC6F80B402D0CC6B02D03F
:062B200080AACC6912003E
:0A2B2600FE0EE3CFE9FFFF0EE3CF40
:102B3000EAFFE9CFF3FFEACFF4FFFB0EE35003E136
:102B4000FC0EE35009E0FB0EE30602E2FC0EE30696
:0A2B5000FD0EE350EE6EF1D7120007
:062B5A00FF0EE350196EAE
:102B6000EF0E01D0F30EE76EE72EB4EF15F00C0E6A
:102B7000186EE76AE72EBAEF15F0182EB9EF15F0C8
:082B8000192EB2EF15F012004E
:082B8800056A046A100EE76EF5
:102B9000D89008360936043605360D50045C0E50C0
:102BA000055805E30D50045E0E50055A082AE72E1D
:042BB000F0D7120048
:0C2BB400000EF36E00EE00F0080E01D8D9
:102BC0001200EA6002D0EE6AFCD7F350E96012000E
:042BD000EE6AFCD7D6
:0C2BD40013EE00F023EE00F0F86A019C04
:102BE00025EC15F003EC08F025EC06F0FBD71200FD
:102BF000FF0EE350196E1B0E00D001D0200EE76EC1
:0C2C0000E72EFED7192EFAD700D01200E4
:042C0C00FF0EE35084
:102C1000E84E1200000000D000D000D0E82EFAD715
:022C20001200A0
:020000040030CA
:0100000027D8
:0100010004FA
:010002003FBE
:010003001EDE
:010005008179
:010006008178
:010008000FE8
:01000900C036
:01000A000FE6
:01000B00E014
:01000C000FE4
:01000D0040B2
:00000001FF
