:020000040000FA
:06000000D5EF14F0120020
:0600080004EF08F01200F5
:060018000CEF08F01200DD
:06082A000100FC0F0000BC
:08083000C800000004000000F4
:08083800D9CFE6FFE1CFD9FFA3
:10084000020EE126DE6ADD6A800EE76EFD0EDBCF6A
:1008500000F0FE0EDBCF01F0E7500012FD0E00C0ED
:10086000DBFFFE0E01C0DBFF8B82949294908B80A5
:10087000DECF00F0DDCF01F0080E005C000E015865
:1008800021E28B900000FD0EDB50800B02E08B829A
:1008900001D08B92000000008B800000FD0EDBCFAA
:1008A00000F0FE0EDBCF01F0D89000360136FD0ED1
:1008B00000C0DBFFFE0E01C0DBFFDF2A010E01E3FB
:1008C000DB2AD6D7DE6ADD6ADECF00F0DDCF01F0AD
:1008D000080E005C000E015821E28B900000FB0E18
:1008E000DB50800B02E08B8201D08B9200008B806A
:1008F00000000000FB0EDBCF00F0FC0EDBCF01F0B0
:10090000D89000360136FB0E00C0DBFFFC0E01C0A4
:10091000DBFFDF2A010E01E3DB2AD6D7020EE15C02
:1009200002E2E16AE552E16EE552E7CFD9FF12003B
:10093000D9CFE6FFE1CFD9FF040EE126020EDB6A34
:10094000030EDB6ADE6ADD6A7F0EE76EFD0EDBCF2B
:1009500000F0FE0EDBCF01F0E7500016016AFD0E3D
:1009600000C0DBFFFE0E01C0DBFF8B8294928B8008
:10097000DECF00F0DDCF01F0080E005C000E015864
:100980001DE28B90FD0EDB50800B02E08B8201D0CC
:100990008B928B80FD0EDBCF00F0FE0EDBCF01F0E3
:1009A000D89000360136FD0E00C0DBFFFE0E01C000
:1009B000DBFFDF2A010E01E3DB2ADAD79482DE6A4D
:1009C000DD6ADECF00F0DDCF01F0100E005C000E1E
:1009D000015806E20000DF2A010E01E3DB2AF1D70D
:1009E0008B8294829482DE6ADD6ADECF00F0DDCFF6
:1009F00001F0080E005C000E01583AE28B908B80EB
:100A0000020EDBCF00F0030EDBCF01F0D8900036F2
:100A10000136020E00C0DBFF030E01C0DBFF82A225
:100A200011D0010EE76E020EDBCF00F0030EDBCF1C
:100A300001F0E7500012020E00C0DBFF030E01C000
:100A4000DBFF11D0FE0EE76E020EDBCF00F0030ECF
:100A5000DBCF01F0E7500016016A020E00C0DBFF99
:100A6000030E01C0DBFFDF2A010E01E3DB2ABDD745
:100A700094928B828B80020EDBCF00F0030EDBCFD3
:100A800001F000C0F3FF01C0F4FF00D0040EE15CF0
:100A900002E2E16AE552E16EE552E7CFD9FF1200CA
:100AA000D9CFE6FFE1CFD9FF040EE126DE6ADD6A89
:100AB000020EDB6A030EDB6A966A070EF36E020E05
:100AC000F3CFDBFF030EDB6A020EDBCF00F0030E79
:100AD000DBCF01F00001800E011437E18494020E97
:100AE000E66EF1EC14F0E552010EF36E020EDB50EF
:100AF00004E0D890F336E806FCE1F350026E036A96
:100B000002BE0368FD0EDB500214006EFE0EDB50C9
:100B10000314016E0050011002E1000E01D0010E1D
:100B2000E8B08482E8A08492020EE66EF1EC14F044
:100B3000E5528484050EE66EF1EC14F0E552020EE7
:100B4000DB06030E01E2DB06BFD78492020E966E2F
:100B5000780EE66EF1EC14F0E552070EF36E020E1D
:100B6000F3CFDBFF030EDB6A020EDBCF00F0030ED8
:100B7000DBCF01F00001800E011420E18494070E08
:100B8000E66EF1EC14F0E5528484050EE66EF1ECAD
:100B900014F0E5528450020B01E0010EF36E020ED8
:100BA000DB5004E0D890F336E806FCE1F350DF12A6
:100BB000020EDB06030E01E2DB06D6D7966A8492AC
:100BC000780EE66EF1EC14F0E552DECF00F0DDCFEA
:100BD00001F000C0F3FF01C0F4FF040EE15C03E28A
:100BE00000D0E16AE552E16EE552E7CFD9FF12008D
:100BF000DACFE4FFE2CFDAFFE652000E000901E0AF
:100C0000F292E552E5CFDAFF1100D8CFE4FFE0CF52
:100C1000E4FFE46EDACFE4FFE2CFDAFFE652F2500F
:100C2000200B0AE0F250040B07E08B74150ED76E10
:100C3000A00ED66EF292F294E552E5CFDAFFE550BF
:100C4000E5CFE0FFE5CFD8FF1000D08EF28CF28E1A
:100C5000F28EF28C800ED56E150ED76EA00ED66E6B
:100C6000F194F28A9E6A26D8966A84928484050E4C
:100C7000E66EE3EC14F0E5528494050EE66EE3ECC8
:100C800014F0E5528484E668BEEC14F0E552E668A0
:100C9000BEEC14F0E552E668BEEC14F0E552E668EE
:100CA000BEEC14F0E55265EC08F064EC11F017D8D6
:100CB000FAD712000F0EC11202D80FEF08F0A6ECFF
:100CC00013F0B4EC07F0D9EC10F064EC07F0E66E2A
:100CD000CEEC10F0E5520001AE6BAF6B1200200EAF
:100CE0000001605D03E36D50020B01E001D001D80B
:100CF0001200BFEC13F00001AE51AF1102E1000E83
:100D000008D0AEC0E9FFAFC0EAFFEF50800B01E0B2
:100D1000010E000953E1BCEC07F098EC11F0C6C0DD
:100D200033F4C7C034F48EC035F4160EE66EE66AAE
:100D3000B7DEE552E552F3500401366F0001C86F8B
:100D4000C96B170EE66EE66AABDEE552E552F3CFED
:100D500000F0F4CF01F0800E00240401366F180E6D
:100D6000E66EE66A9DDEE552E552F3CF00F0F4CF81
:100D700001F0800E00240401376F8FC038F4BDC02D
:100D800039F4BEC03AF4C3C03CF4C4C03DF4C5C09D
:100D90003EF4C8C03EF40C0EE66E330EE66E040E52
:100DA000E66E010EE66EE66E36EC10F0006E050E95
:100DB000E15E0050F3CFAEF0F4CFAFF000D0120000
:100DC00012001200120012002FEF13F012001A0E80
:100DD000E66E010EE66EABEC0FF0E552E552120046
:100DE0006D840001080EB06F070EB16FB007000EE2
:0C0DF000B15BB051B111FAE16D9412003A
:040DFC00D9CFE6FF66
:100E0000E1CFD9FFE652FE0EDB50A96EFD0EDB509E
:100E1000A86EA69EA69CA684F250DF6EF26A550EBE
:100E2000A76EAA0EA76EA682DF50F26E0000A1B8D0
:100E300002D00000FCD7A694A198E552E552E7CF76
:100E4000D9FF1200D9CFE6FFE1CFD9FFFE0EDB506C
:100E5000A96EA69EA69CA680A85000D0E552E7CF1A
:100E6000D9FF1200D9CFE6FFE1CFD9FF020EE1266C
:100E7000DF6A010EDB6A010EDBCFE6FFE3DFE5523E
:100E8000DF6EDF2ADF50090802E2010EDF6EDFCFDE
:100E9000E6FF010EDBCFE6FFB1DFE552E5520000D1
:100EA000010EDBCFE6FFCEDFE552DF6EDF5000D074
:100EB000006E020EE15C02E2E16AE552E16E005072
:100EC000E552E7CFD9FF1200D9CFE6FFE1CFD9FF36
:100ED000030EE126DF6A811C0F0BE76E010EE7CFE0
:100EE000DBFFDFCFE6FFAEDFE552E76E020EE7CFB6
:100EF000DBFF010EF36E010EDBCFF4FFF350F45C69
:100F000013E3010EDB5009080FE3010EDBCFE6FF10
:100F1000DFCFE6FF73DFE552E5520000010EDB5044
:100F2000E76E020EE7CFDBFF020EDB5009080BE293
:100F3000020EDB6A020EDBCFE6FFDFCFE6FF5EDFED
:100F4000E552E5520000DFCFE6FF7CDFE55200D03E
:100F5000006E030EE15C02E2E16AE552E16E0050D0
:080F6000E552E7CFD9FF1200B2
:080F68009368816AFCEC07F0BC
:100F70009568836A848E1200811C0001C36F831CF4
:100F8000C46FC56B800EC66F80B802D0C66B02D02E
:100F900080A6C669C76F80B402D0C76B02D080AA92
:040FA000C76912000B
:0C0FA400FE0EE3CFE9FFFF0EE3CFEAFFF3
:100FB000E9CFF3FFEACFF4FFFB0EE35003E1FC0EB1
:100FC000E35009E0FB0EE30602E2FC0EE306FD0E31
:080FD000E350EE6EF1D71200B0
:080FD800000EF36E00EE00F0C4
:100FE000080E01D81200EA6002D0EE6AFCD7F35076
:080FF000E9601200EE6AFCD773
:040FF800F19E120054
:040FFC0000000000F1
:06100000D5EF14F0120010
:021006001200D6
:06100800F8EF05F01200F4
:0610180005EF06F01200D6
:02101E00D9CF28
:10102000E6FFE1CFD9FFE6526A6A686A9F0E6B6EEF
:10103000FB0E696E6D8C6D9C6E6A010EE66EE66A43
:10104000E66A710EE66E0F0EE66ED2EC07F0006EE9
:10105000050EE15E0050DF6ADF50006E016A060E89
:10106000005C000E015810E2DF50040DF3CFE9FFE1
:10107000F4CFEAFF000EE926040EEA22EE6AEE6AD9
:10108000EE6AEE6ADF2AE8D7160E706E68A60CD0FC
:10109000030EE66E680EE66E0F0EE66EB2EC10F012
:1010A000E552E552E552F2D70001776B7C6B7D6B20
:1010B0007E6B6D98040E6D6F040E6E6F616B606BCE
:1010C000E552E552E7CFD9FF1200D9CFE6FFE1CFD5
:1010D000D9FFE6520001605111E105D06D6A696ADD
:1010E0000001606B7BD06D6A696A6DB602D06D8657
:1010F000FCD70001010E606F140E6F6E600508E1F1
:101100006DBA06D0686A696A69806988020E606F84
:101110006850040B04E06950040B01E096D86DB2EE
:101120005DD06850010B11E06950010B0EE077DFD4
:101130000001040E606F0401180E026F040E036FAD
:10114000100E016F006B8C0E00136850100B04E042
:101150006950100B01E06AD86850400B10E06950EC
:10116000400B0DE0E2EC06F0060EE66E680EE66E51
:101170000F0EE66EB2EC10F0E552E552E552685003
:10118000200B04E06950200B01E02DD86850020BC1
:1011900006E06950020B03E0E3EC06F06A6A040E15
:1011A0000001605D01E21AD069A618D0DF6A040E62
:1011B000DF5C14E268A60FD06CCF84F0030EE66EFD
:1011C000680EE66E0F0EE66EB2EC10F0E552E552D8
:1011D000E5524ED801D002D0DF2AE9D7E552E552D8
:1011E000E7CFD9FF120070A015D063C0E9FF64C03B
:1011F000EAFFEF5080080DE16DC0E9FF6EC0EAFF25
:10120000EF50840806E163C0E9FF64C0EAFF8C0E7A
:10121000EF6E7090050EE66E680EE66E0F0EE66ECF
:10122000B2EC10F0E552E552E55212006984040E6A
:10123000E66E680EE66E0F0EE66EB2EC10F0E5524A
:10124000E552E5526D82E0EF06F06D92E1EC06F0BA
:10125000699468A40CD0020EE66E680EE66E0F0E5E
:10126000E66EB2EC10F0E552E552E552F2D712000C
:10127000FD0E000184151FE17E0E8415E8407F0BF2
:10128000040DF3CF63F0F4CF64F0000E6327040E77
:10129000642363C065F064C066F063C0E9FF64C0A6
:1012A000EAFFEF503C0BE842E8420D0802E109D8A2
:1012B00001D01ED805D0FD0E8415040801E121D807
:1012C00012006DC0E9FF6EC0EAFFEF50800B05E031
:1012D0006DC0E9FF6EC0EAFFEF6A0001736B746BCB
:1012E000786B796B776BF8D8E4EC06F030EF0DF0A3
:1012F000020E0001745D03E18DEC0EF001D04ED8BA
:101300001200D9CFE6FFE1CFD9FFE6526DC0E9FF69
:101310006EC0EAFFEF50400B01E0010EDF6E080ED9
:101320000001605D0AE11AC46EFF6E50000803E21E
:10133000100E606F02D0040E606F740529E16DC05D
:10134000E9FF6EC0EAFF020EE926000EEA22200E37
:10135000EE6E040EED6E02EC0EF0020E0001735DF7
:1013600007E16DC0E9FF6EC0EAFF840EEF6E0FD09B
:10137000DF5007E16DC0E9FF6EC0EAFFC80EEF6EF7
:1013800006D06DC0E9FF6EC0EAFF880EEF6E01D097
:1013900005D8E552E552E7CFD9FF1200D9CFE6FFD5
:1013A000E1CFD9FF030EE126020E0001745D4AE190
:1013B0006D50100B47E063C0E9FF64C0EAFFEE52D6
:1013C000EF50006E016A080E001801E101503AE189
:1013D00063C0E9FF64C0EAFFEF503C0BE842E8421B
:1013E0000D0830E165C0E9FF66C0EAFFEF50800BF1
:1013F00029E165C0E9FF66C0EAFF020EE926000E9A
:10140000EA22180EEE6E040EED6EDF6ADF50006EFB
:10141000016A080E005C000E015813E2DF50EA6A10
:10142000200FE96E040EEA22EF50E66EDF50EA6A02
:10143000180FE96E040EEA22E552E750EF6EDF2A3C
:10144000E5D731D0746B65C0E9FF66C0EAFFEE52A4
:10145000100EEF6E65C0E9FF66C0EAFF020EE926D6
:10146000000EEA22180EEE6E040EED6E65C0E9FF66
:1014700066C0EAFF8C0EEF6E6DC0E9FF6EC0EAFF3A
:10148000EF6A000E6D19006E6EC001F0010E00C013
:10149000DBFF020E01C0DBFF010EDBCFE9FF020E16
:1014A000DBCFEAFFEF6A00017CAF0CD07F518011E7
:1014B00007E005D080C0FAFF00017F51F96EFADF26
:1014C00000017C9F030EE15C02E2E16AE552E16EFD
:1014D000E552E7CFD9FF120004011851600BE84232
:1014E000E842E842E842E842000901E04DD01951E3
:1014F0000C0A49E00B0A44E00C0A36E0010A27E036
:101500000B0A23E0020A21E0030A1DE0080A11E0A9
:10151000010A0CE00F0A08E0030A01E034D00001E0
:10152000778F080E606F30D0B6D82ED01EEC0FF03B
:101530002BD00001610E756F000E766F7781010E62
:10154000786F778F21D032DA1FD01FD81DD01C5171
:101550000001756F766B620E7527000E762377811A
:10156000010E786F778F10D00001778F04011C5126
:10157000EA6A620FE96E000EEA221AC4EFFF04D095
:10158000E6EC06F001D000D01200D9CFE6FFE1CFA3
:10159000D9FF050EE12604011A0510E118511F0BB1
:1015A00000090CE10001778F030E0401195D04E1CD
:1015B0000001010E836F02D00001836B04011A51F8
:1015C00060E118511F0B02085CE11C510F0B000970
:1015D00058E00001778F040EDB6A020EF36E040EF2
:1015E000DBCFF4FFF350F45C4CE2000EDE6E040E31
:1015F000DD6E04011C51800B01E0010E026E1C51D6
:101600000F0BE8240224040DF3CF00F0F4CF01F017
:10161000D9CFE9FFDACFEAFF0050EE260150ED22E4
:10162000030E195D07E1DECFE9FFDDCFEAFF840E8F
:10163000EF6E24D01C510F0B016A700F006E0F0E5D
:101640000122020E00C0DBFF030E01C0DBFF020E11
:10165000DBCFE9FF030EDBCFEAFFEE90ED521CAFCC
:1016600007D0DECFE9FFDDCFEAFF400EEF6E06D0F8
:10167000DECFE9FFDDCFEAFFC80EEF6E040EDB2AF6
:10168000ACD7050EE15C02E2E16AE552E16EE5529B
:10169000E7CFD9FF1200800E0401185D01E085D16B
:1016A0000001C00E776F04011B51030A01E1A8D0AD
:1016B000010A01E187D0030A03E00001776B75D1CD
:1016C00000018D51090A3DE0010A36E00F0A2FE0C2
:1016D000010A28E0030A21E0010A1AE0070A13E0E0
:1016E000010A0CE0030A05E02A0E756F280E766FDA
:1016F0002DD03C0E756F280E766F28D04E0E756F6C
:10170000280E766F23D0600E756F280E766F1ED070
:10171000720E756F280E766F19D0840E756F280EB5
:10172000766F14D0960E756F280E766F0FD0A80EB8
:10173000756F280E766F0AD0BA0E756F280E766F09
:1017400005D0CC0E756F280E766F00D08D51090A2A
:1017500034E0010A2EE00F0A28E0010A22E0030A21
:101760001CE0010A16E0070A10E0010A0AE0030A79
:1017700004E0120E786F796B24D0120E786F796BBB
:1017800020D0120E786F796B1CD0120E786F796BA7
:1017900018D0120E786F796B14D0120E786F796BA7
:1017A00010D0120E786F796B0CD0120E786F796BA7
:1017B00008D0120E786F796B04D0120E786F796BA7
:1017C00000D0F3D01A51F66EF76AD890F636F73695
:1017D0001F0EF626260EF7220900F5CF75F00A0037
:1017E000F5CF76F0020E0001F76A7525F66E765198
:1017F000F7220900F5CF78F00A00F5CF79F0D5D0BF
:1018000000018D51090A01E1B4D0010A01E19FD024
:101810000F0A01E18AD0010A76E0030A62E0010AB8
:101820004EE0070A3AE0010A26E0030A12E004014A
:101830001A51F66EF76AD890F636F736210EF6266C
:10184000260EF7220900F5CF75F00A00F5CF76F0E5
:10185000A2D004011A51F66EF76AD890F636F73620
:10186000270EF626260EF7220900F5CF75F00A009E
:10187000F5CF76F090D004011A51F66EF76AD89041
:10188000F636F7362D0EF626260EF7220900F5CF8E
:1018900075F00A00F5CF76F07ED004011A51F66E8D
:1018A000F76AD890F636F736330EF626260EF7226C
:1018B0000900F5CF75F00A00F5CF76F06CD0040181
:1018C0001A51F66EF76AD890F636F736390EF626C4
:1018D000260EF7220900F5CF75F00A00F5CF76F055
:1018E0005AD004011A51F66EF76AD890F636F736D8
:1018F0003F0EF626260EF7220900F5CF75F00A00F6
:10190000F5CF76F048D004011A51F66EF76AD890F8
:10191000F636F736450EF626260EF7220900F5CFE5
:1019200075F00A00F5CF76F036D004011A51F66E44
:10193000F76AD890F636F7364B0EF626260EF722C3
:101940000900F5CF75F00A00F5CF76F024D0040138
:101950001A51F66EF76AD890F636F736510EF6261B
:10196000260EF7220900F5CF75F00A00F5CF76F0C4
:1019700012D004011A51F66EF76AD890F636F7368F
:10198000570EF626260EF7220900F5CF75F00A004D
:10199000F5CF76F000D075C0F6FF76C0F7FF0800EF
:1019A000F5500001786F796B00D01200D9CFE6FFB7
:1019B000E1CFD9FF020EE1260401206B216B185103
:1019C0001F0B020A12E0030A0DE0010A01E034D005
:1019D0000001778F040120810001830502E10401E9
:1019E00020832AD00001778F27D00001778F000E47
:1019F000DE6E040EDD6E04011C51800B01E0010E51
:101A0000026E1C510F0BE8240224040DF3CF00F0EA
:101A1000F4CF01F0D9CFE9FFDACFEAFF0050EE268C
:101A20000150ED22DECFE9FFDDCFEAFFEF50040BDE
:101A300002E0010E206F00D0000177AF07D0200E2A
:101A4000756F040E766F7781020E786F020EE15C7F
:101A500002E2E16AE552E16EE552E7CFD9FF1200FA
:101A60006D98000177BF4AD07CAF28D0020E746F0A
:101A70006DC0E9FF6EC0EAFFEE52EF6A6DC0E9FF8C
:101A80006EC0EAFFC80EEF6E65C0E9FF66C0EAFFF0
:101A9000EE52100EEF6E65C0E9FF66C0EAFF020E5F
:101AA000E926000EEA22200EEE6E040EED6E65C0F1
:101AB000E9FF66C0EAFFC80EEF6E1FD065C0E9FF00
:101AC00066C0EAFFEE52100EEF6E65C0E9FF66C019
:101AD000EAFF020EE926000EEA22180EEE6E040E50
:101AE000ED6E65C0E9FF66C0EAFF8C0EEF6E6DC05B
:101AF000E9FF6EC0EAFF840EEF6E83D07CBF81D019
:101B0000040118AF56D00001785104011E5D000198
:101B1000795104011F5904E21EC478F01FC479F002
:101B200071D80001010E746F65C0E9FF66C0EAFF5D
:101B3000EE52100EEF6E65C0E9FF66C0EAFF020EBE
:101B4000E926000EEA22180EEE6E040EED6E65C058
:101B5000E9FF66C0EAFF800EEF6E63C0E9FF64C074
:101B6000EAFFEE52100EEF6E63C0E9FF64C0EAFFB9
:101B7000020EE926000EEA22180EEE6E040EED6E3D
:101B800063C0E9FF64C0EAFF800EEF6E6DC0E9FF3D
:101B90006EC0EAFF020EE926000EEA22200EEE6E6B
:101BA000040EED6E6DC0E9FF6EC0EAFFC80EEF6E69
:101BB00028D00001020E746F6DC0E9FF6EC0EAFF0D
:101BC000EE52EF6A6DC0E9FF6EC0EAFFC80EEF6E1D
:101BD00065C0E9FF66C0EAFFEE52100EEF6E65C009
:101BE000E9FF66C0EAFF020EE926000EEA22200E97
:101BF000EE6E040EED6E65C0E9FF66C0EAFFC80E2A
:101C0000EF6E1200D9CFE6FFE1CFD9FF020EE12639
:101C10000001100E785D000E79590EE278C0DEFFEB
:101C200079C0DDFF735103E1010E736F04D07305BA
:101C300002E1020E736F03D0100EDE6EDD6A6DC01E
:101C4000E9FF6EC0EAFFEF926DC0E9FF6EC0EAFFE8
:101C5000EF906DC0E9FF6EC0EAFF010EDB50EF129E
:101C60006DC0E9FF6EC0EAFFEE52DFCFEFFF000E5E
:101C7000DB50785F010EDB50795B200E816F040E24
:101C8000826F77B121D0D9CFE9FFDACFEAFFEE50EA
:101C9000ED1019E075C0F6FF76C0F7FF752B000E4A
:101CA00076230800F550E66E81C0E9FF82C0EAFFA6
:101CB000812B000E8223E552E750EF6EDF06010E06
:101CC00001E2DB06E0D71FD0D9CFE9FFDACFEAFF88
:101CD000EE50ED1018E075C0E9FF76C0EAFF752BF5
:101CE000000E7623EF50E66E81C0E9FF82C0EAFF66
:101CF000812B000E8223E552E750EF6EDF06010EC6
:101D000001E2DB06E1D7020EE15C02E2E16AE552A4
:101D1000E16EE552E7CFD9FF1200D9CFE6FFE1CF60
:101D2000D9FF020EE12663C0E9FF64C0EAFFEE526C
:101D3000EFCFDFFFDFCF00F0005000017D5D000E30
:101D40007E5903E27DC0DFFF09D0DF50006E016ADB
:101D500000507D5D7D6F01507E597E6F010EDB6A04
:101D6000DF50F36E010EDBCFF4FFF350F45C16E2AC
:101D7000010EDB50EA6A200FE96E040EEA22EF50F2
:101D8000E66E7AC0E9FF7BC0EAFF7A2B000E7B2368
:101D9000E552E750EF6E010EDB2AE2D7000ED88045
:101DA0007D55000E7E5528E265C0E9FF66C0EAFF5A
:101DB000EE52100EEF6E65C0E9FF66C0EAFF020E3C
:101DC000E926000EEA22200EEE6E040EED6E63C0D0
:101DD000E9FF64C0EAFFEF50400B07E165C0E9FF8F
:101DE00066C0EAFFC80EEF6E06D065C0E9FF66C0A8
:101DF000EAFF880EEF6E18D065C0E9FF66C0EAFF03
:101E0000020EE926000EEA22180EEE6E040EED6EAA
:101E10007F51801107E005D080C0FAFF00017F519B
:101E2000F96EFADF00017C9F020EE15C02E2E16ADA
:101E3000E552E16EE552E7CFD9FF12000001778F3E
:101E4000010EE66EE66AE66A710EE66E0F0EE66E4B
:101E5000D2EC07F0006E050EE15E0050010EE66E5A
:101E6000E66AE66A620EE66E000EE66ED2EC07F0F7
:101E7000006E050EE15E00501AC461F004011A51B3
:101E800004E10001100E606F05D00001200E606FAC
:101E9000E7EC06F01200D9CFE6FFE1CFD9FF020E42
:101EA000E126000EDE6E040EDD6EFD0EDB50040D2D
:101EB000F3CF02F0FE0EDB50080DF3500224006E4B
:101EC000016A020E0F0B05E0D89001320032E806DD
:101ED000FBE1D89000360136D89000360136D9CFD4
:101EE000E9FFDACFEAFF0050EE260150ED22DECF07
:101EF000E9FFDDCFEAFFEF9EFD0EDB500FE1FE0EA6
:101F0000EA6ADB34FE0BEA36E96E670EE926000E5C
:101F1000EA22DECFEEFFDDCFEDFF0ED0FE0EEA6A45
:101F2000DB34FE0BEA36E96E6D0EE926000EEA227E
:101F3000DECFEEFFDDCFEDFFDECFE9FFDDCFEAFF45
:101F4000EF8C020EE15C02E2E16AE552E16EE552DD
:101F5000E7CFD9FF1200D9CFE6FFE1CFD9FF020EBC
:101F6000E126FE0EDB50016A700F006E0F0E01229B
:101F700000C0DEFF01C0DDFFFD0EDB50E66EDECFF0
:101F8000E9FFDDCFEAFFE552E750EE6EED6AFD0EA8
:101F9000DBA407D0E66AFE0EDBCFE6FF7CDFE5526E
:101FA000E552FD0EDBA208D0010EE66EFE0EDBCF81
:101FB000E6FF71DFE552E552020EE15C02E2E16A02
:101FC000E552E16EE552E7CFD9FF1200D9CFE6FF27
:101FD000E1CFD9FF020EE126FE0EDB5020E165C005
:101FE000E9FF66C0EAFFEE52100EEF6E65C0E9FF32
:101FF00066C0EAFF020EE926000EEA22180EEE6E17
:10200000040EED6E65C0E9FF66C0EAFF8C0EEF6E50
:102010006DC0E9FF6EC0EAFF840EEF6E1DD0FD0EAD
:10202000DBCFE6FFFE0EDB50E824E552E724040D8B
:10203000F3CF00F0F4CF01F0000E0026040E0122D1
:1020400000C0DEFF01C0DDFF840E006EDECFE9FFC1
:10205000DDCFEAFF0050EF12020EE15C02E2E16A1E
:10206000E552E16EE552E7CFD9FF1200D9CFE6FF86
:10207000E1CFD9FF020EE126FD0EDB500FE0FE0E90
:10208000EA6ADB34FE0BEA36E96E6D0EE926000ED5
:10209000EA22EECFDEFFEDCFDDFF0ED0FE0EEA6AC4
:1020A000DB34FE0BEA36E96E670EE926000EEA2203
:1020B000EECFDEFFEDCFDDFFDECFE9FFDDCFEAFFC4
:1020C000EF7CDECFE9FFDDCFEAFF020EE926000E4E
:1020D000EA22FB0EDBCFEEFFFC0EDBCFEDFFDECF07
:1020E000E9FFDDCFEAFFEE52FA0EDBCFEFFF400E45
:1020F000006EDECFE9FFDDCFEAFF0050EF16880E5D
:10210000006EDECFE9FFDDCFEAFF0050EF12FD0EDB
:10211000DB500BE0FE0EEA6ADB34FE0BEA36E96EBA
:102120006D0EE926000EEA220AD0FE0EEA6ADB34C2
:10213000FE0BEA36E96E670EE926000EEA22DECFD4
:1021400000F0DDCF01F000C0F3FF01C0F4FF020E8C
:10215000E15C03E200D0E16AE552E16EE552E7CFCF
:10216000D9FF1200D9CFE6FFE1CFD9FF010EF36E00
:10217000FC0EDB5004E0D890F336E806FCE1F350A7
:10218000E81C006EFD0EDBCFE9FFFE0EDBCFEAFFA1
:102190000050EF16E552E7CFD9FF1200D9CFE6FF86
:1021A000E1CFD9FFFE0EDBCF8DF0E552E7CFD9FFAF
:0221B00012001B
:0E21B200FB0E946E826A929C1200D9CFE6FF5B
:1021C000E1CFD9FFFD0EDBCFE9FFFE0EDBCFEAFF4B
:1021D000EE52EF50E840E8403F0B006EFD0EDBCFC3
:1021E000E9FFFE0EDBCFEAFFEF5000100001916F18
:1021F0009151040A36E0060A34E0090A32E0060A80
:1022000030E00C0A10E0060A0EE0090A0CE0060AAB
:102210000AE0080A07E0050A05E00F0A03E0050ADC
:1022200001E03BD03AD0FD0EDBCFE9FFFE0EDBCF65
:10223000EAFF020EE926000EEA22EFCF00F0FD0EC3
:10224000005C0EE2020E006EFD0EDBCFE9FFFE0E1B
:10225000DBCFEAFF020EE926000EEA220050EF264D
:102260001CD0FD0EDBCFE9FFFE0EDBCFEAFF020E36
:10227000E926000EEA22EF5002080EE2020E006E7E
:10228000FD0EDBCFE9FFFE0EDBCFEAFF020EE926F3
:10229000000EEA220050EF5E00D0FD0EDBCFE9FF1A
:1022A000FE0EDBCFEAFFEF50E66EFD0EDBCFE9FF5F
:1022B000FE0EDBCFEAFFEE52E552E750EF6E00D0A4
:1022C000E552E7CFD9FF12008450E8240C0B00013F
:1022D000926F8250040DF3500C0B966F82380F0BE7
:1022E0000C0B9A6FA06BA16B030EA1AF02D0D8901C
:1022F00003D0A05D000EA1591AE2A0C000F0A1C059
:1023000001F0D89000360136D89000360136920E92
:102310000026000E012200C0E6FF01C0E6FF4EDFEE
:10232000E552E5520001A02B000EA123DDD71200DB
:10233000899C0001A06BA16B030EA1AF02D0D890C5
:1023400003D0A05D000EA15973E2A0C0E9FFA1C0B7
:10235000EAFFD890E936EA36D890E936EA36920EA6
:10236000E926000EEA22020EE926000EEA22EF50CC
:10237000E66E8E0EA025E96E000EA121EA6EE552F2
:10238000E750EF6EA0C0E9FFA1C0EAFFD890E936A0
:10239000EA36D890E936EA36920EE926000EEA22AD
:1023A000020EE926000EEA22EF50E66EA0C0E9FF19
:1023B000A1C0EAFFD890E936EA36D890E936EA3685
:1023C000920EE926000EEA22030EE926000EEA220A
:1023D000E552E750EF6EA0C0E9FFA1C0EAFFD89038
:1023E000E936EA36D890E936EA36920EE926000E4A
:1023F000EA22020EE926000EEA22800EEF6E8E0E11
:10240000A025E96E000EA121EA6EEFCF00F0FD0ECF
:10241000005C09E28E0EA025E96E000EA121EA6E95
:10242000EF50020801E3898CA02B000EA12384D772
:02243000120098
:0E2432000902220001010080320904000001AD
:102440000300000009211101000122450007058158
:102450000310000A040309041A0351002D0042006E
:10246000650072007200790020004F0053004700A1
:102470004300240351002D004200650072007200E9
:102480007900200050006C00610079006500720046
:10249000200023003000240351002D00420065007D
:1024A000720072007900200050006C006100790019
:1024B00065007200200023003100240351002D002C
:1024C00042006500720072007900200050006C002C
:1024D00061007900650072002000230032002403AF
:1024E00051002D004200650072007200790020004A
:1024F00050006C006100790065007200200023002C
:102500003300240351002D00420065007200720068
:102510007900200050006C006100790065007200B5
:10252000200023003400240351002D0042006500E8
:10253000720072007900200050006C006100790088
:1025400065007200200023003500240351002D0097
:1025500042006500720072007900200050006C009B
:10256000610079006500720020002300360024031A
:1025700051002D00420065007200720079002000B9
:1025800050006C006100790065007200200023009B
:102590003700240351002D004200650072007200D4
:1025A0007900200050006C00610079006500720025
:1025B000200023003800240351002D004200650054
:1025C000720072007900200050006C0061007900F8
:1025D0006500720020002300390005010904A101F3
:1025E00016000026FF0075089501093081020931A7
:1025F00081020932810209338102093481020935DD
:1026000081020936810209378102093881020509F0
:102610001901291815002501750195188102C0328C
:10262000245424582472245424582496245424587E
:1026300024BA2454245824DE245424582402255433
:102640002458242625542458244A25542458246EDA
:0D2650002554245824922554245824B625DE
:02265E00040175
:1026600018511F0B010801E06DD01C5101E06AD028
:10267000060E195D28E11B51230A21E0010A11E031
:10268000030A01E020D0000161050AE10001440EC7
:10269000756F240E766F090E786F796BC00E776FA9
:1026A00012D0000161050AE10001DA0E756F250EF6
:1026B000766F450E786F796BC00E776F04D000018E
:1026C000800E776F00D004011851600BE842E84299
:1026D000E842E842E842010801E034D019510B0A0F
:1026E0002BE0080A1EE0090A16E0080A09E00B0AB6
:1026F00005E0080A01E026D026D824D025D822D02B
:102700000001CC0E756F000E766F010E786F796B3D
:10271000C10E776F17D00001800E776F1BC4CCF00D
:1027200011D00001CD0E756F000E766F010E786F1F
:10273000796B810E776F06D00001800E776F1AC417
:0C274000CDF000D01200120012001200B8
:04274C000001BC6B61
:102750007F0EBD6FBE6FBF6FC06FC16FC26F3F0E88
:10276000806E92809282928492869288928A010EE2
:10277000C26E0D0EC16E2A0EC06EC2821200C2B2AF
:1027800053D00001BC51050A1AE0010A15E0070AFE
:1027900010E0010A0BE0030A06E0010A01E012D092
:1027A000C4CFBDF00FD0C4CFBEF00CD0C4CFBFF0AB
:1027B00009D0C4CFC0F006D0C4CFC1F003D0C4CF7D
:1027C000C2F000D0BC2BBC51010801E2BC6BBC5173
:1027D000050A24E0010A1DE0070A16E0010A0FE0DD
:1027E000030A08E0010A01E01ED0C30EC21400096A
:1027F000C26E19D0C30EC2140409C26E14D0C30E27
:10280000C2140809C26E0FD0C30EC2140C09C26EE6
:102810000AD0C30EC2141009C26E05D0C30EC21472
:0A2820001409C26E00D0C28212003B
:06282A0012010002000093
:102830000010D8044003010001020001120100024F
:1028400000000010D8044103010001020001120140
:10285000000200000010D804420301000102000140
:102860001201000200000010D8044303010001021D
:1028700000011201000200000010D804440301000E
:10288000010200011201000200000010D8044503FB
:102890000100010200011201000200000010D80432
:1028A00046030100010200011201000200000010B5
:1028B000D8044703010001020001120100020000D8
:1028C0000010D804480301000102000112010002B7
:0E28D00000000010D8044903010001020001BD
:0228DE002A0EC0
:1028E000F66E080EF76E000EF86E00010900F55046
:1028F000B76F0900F550B86F03E1B76701D03DD05D
:102900000900F550B26F0900F550B36F0900F5509A
:10291000B46F09000900F550E96E0900F550EA6E40
:10292000090009000900F550B56F0900F550B66FB0
:1029300009000900F6CFB9F0F7CFBAF0F8CFBBF035
:10294000B2C0F6FFB3C0F7FFB4C0F8FF0001B55343
:1029500002E1B65307E00900F550EE6EB507F8E264
:10296000B607F9D7B9C0F6FFBAC0F7FFBBC0F8FF8A
:0C2970000001B707000EB85BBFD71200D3
:04297C00FF0EE35017
:10298000076EEF0E01D0F30EE76EE72EC5EF14F0E1
:102990000C0E066EE76AE72ECBEF14F0062ECAEF98
:0A29A00014F0072EC3EF14F012002C
:0629AA0013EE00F023EE25
:1029B00000F0F86A059C6FEC14F003EC08F025ECCD
:0629C00006F0FBD7120037
:0A29C600FF0EE350076E1B0E00D059
:1029D00001D0200EE76EE72EFED7072EFAD700D0E3
:0229E0001200E3
:0E29E200FF0EE350E84E1200000000D000D0BF
:0829F00000D0E82EFAD7120016
:020000040030CA
:0100000027D8
:0100010004FA
:010002003FBE
:010003001EDE
:0100050001F9
:010006008178
:010008000FE8
:01000900C036
:01000A000FE6
:01000B00E014
:01000C000FE4
:01000D0040B2
:00000001FF
