:020000040000FA
:060000006DEF25F0120077
:0600080004EF08F01200F5
:080018000CEF08F01200DACF32
:10002000E4FFE2CFDAFFE9CFE4FFEACFE4FFF6CF67
:10003000E4FFF7CFE4FFF5CFE4FFF3CFE4FFF4CF25
:10004000E4FFFACFE4FF00EE00F0140EE80403E34F
:10005000EECFE4FFFBD700EE14F0100EE80403E34C
:10006000EECFE4FFFBD7E652F2A425D0160ED76EF2
:10007000180ED66EF292F2940201662B000E6723E0
:100080006823692324C124F0256A266A276A24503C
:10009000665D2550675926506859275069590BE30A
:1000A000640E0101245D05E15C0EE66E97EC25F01F
:1000B000E55237EC24F09EA007D09E9002016A2BF7
:1000C000000E6B236C236D23E55200EE23F0100E1F
:1000D000E80403E3E5CFEDFFFBD700EE13F0140EC9
:1000E000E80403E3E5CFEDFFFBD7E5CFFAFFE5CF6B
:1000F000F4FFE5CFF3FFE5CFF5FFE5CFF7FFE5CF61
:10010000F6FFE5CFEAFFE5CFE9FFE5CFDAFF110023
:10011000D8CFE4FFE0CFE4FFE46EDACFE4FFE2CF34
:10012000DAFFE6529EA007D09E9002016A2B000ED5
:100130006B236C236D23E552E5CFDAFFE550E5CF65
:10014000E0FFE5CFD8FF10008F0EE66E050EE66EDD
:10015000EB0EE66ED9EC23F0E552E552E552050EC2
:10016000E66E97EC25F0E552BCEC25F0B4EC25F0FA
:10017000000901E0FBD7A2EC25F0F3CF64F2F4CF45
:1001800065F2B9EF25F0EBD926EC1DF00201AE6B5C
:10019000AF6B0E0EAFAF02D0D89003D0AE5D000EA5
:1001A000AF5901E3F0D0A3EC21F0090A01E1D4D06A
:1001B000010A01E1BED00F0A01E1A8D0010A01E164
:1001C00092D0030A01E17CD0010A67E0070A52E0FD
:1001D000010A3DE0030A28E0010A13E0310E0201A2
:1001E000AE25E96E010EAF21EA6EEF50E66E6E0E9F
:1001F000AE25E96E020EAF21EA6EE552E750EF6ED2
:10020000BED03F0E0201AE25E96E010EAF21EA6EAF
:10021000EF50E66E6E0EAE25E96E020EAF21EA6E6D
:10022000E552E750EF6EABD04D0E0201AE25E96E00
:10023000010EAF21EA6EEF50E66E6E0EAE25E96E4E
:10024000020EAF21EA6EE552E750EF6E98D05B0EDA
:100250000201AE25E96E010EAF21EA6EEF50E66EA7
:100260006E0EAE25E96E020EAF21EA6EE552E75042
:10027000EF6E85D0690E0201AE25E96E010EAF2149
:10028000EA6EEF50E66E6E0EAE25E96E020EAF21FD
:10029000EA6EE552E750EF6E72D0770E0201AE259E
:1002A000E96E010EAF21EA6EEF50E66E6E0EAE25DE
:1002B000E96E020EAF21EA6EE552E750EF6E5FD0B5
:1002C000850E0201AE25E96E010EAF21EA6EEF50F8
:1002D000E66E6E0EAE25E96E020EAF21EA6EE552B5
:1002E000E750EF6E4CD0930E0201AE25E96E010E81
:1002F000AF21EA6EEF50E66E6E0EAE25E96E020E8D
:10030000AF21EA6EE552E750EF6E39D0A10E02013F
:10031000AE25E96E010EAF21EA6EEF50E66E6E0E6D
:10032000AE25E96E020EAF21EA6EE552E750EF6EA0
:1003300026D0AF0E0201AE25E96E010EAF21EA6EA6
:10034000EF50E66E6E0EAE25E96E020EAF21EA6E3C
:10035000E552E750EF6E13D0BD0E0201AE25E96EF7
:10036000010EAF21EA6EEF50E66E6E0EAE25E96E1D
:10037000020EAF21EA6EE552E750EF6E00D0AE2BD1
:10038000000EAF2306D77C6B6E0EE66E020EE66E95
:100390002EEC1DF0E552E5520201AE6BAF6B0A0E7A
:1003A000AFAF02D0D89003D0AE5D000EAF5915E2CA
:1003B000270EAE25E96E010EAF21EA6EEF50E66E14
:1003C0006E0EAE25E96E020EAF21EA6EE552E750E1
:1003D000EF6EAE2B000EAF23E2D7786B6E0EE66E9B
:1003E000020EE66E2EEC1DF0E552E552A80E146EDC
:1003F000440E156E166A14C0E6FF15C0E6FF16C05F
:10040000E6FF6E0EE66E020EE66EC6EC21F0176E8B
:10041000050EE15E17506E0EE66E020EE66E2EECD5
:100420001DF0E552E552900E146E440E156E166ADC
:1004300014C0E6FF15C0E6FF16C0E6FF6E0EE66EBE
:10044000020EE66EC6EC21F0176E050EE15E175047
:100450006E0EE66E020EE66E2EEC1DF0E552E552D3
:100460002C0EE66EB5EC1FF0E55235EC25F00009D8
:1004700001E0FBD7000EE66E010EE66EBDEC24F047
:10048000E552E55235EC25F0000901E0FBD7C00E3E
:10049000E66E94EC24F0E552100EE66E08EC25F0C2
:1004A000E55235EC25F0000901E0FBD70F0EE66EB2
:1004B000010EE66EBDEC24F0E552E5520101CB6B76
:1004C0000A0ECB5D07E2E66A08EC25F0E552010171
:1004D000CB2BF6D7AAEC1FF03AEC24F0896A1F0E5A
:1004E000926EC0EC08F053D824C114F0156A166A55
:1004F000176A14500201665D155067591650685905
:10050000175069592AE3898A37EC24F01DDE64C24A
:10051000E6FF65C2E6FFCE50E66EE66ACF50E66EB5
:10052000E66A6AC2E6FF6BC2E6FF6CC2E6FF6DC216
:10053000E6FFE6EC18F0146E0A0EE15E14500101BD
:10054000246F0201666B676B686B696B6A6B6B6B20
:100550006C6B6D6B3AEC24F0899AC3D712001F0EB6
:10056000B46E070EB46E010EC26E0D0EC16E010E9A
:10057000946E806A826A02D834EF08F0896A1F0E8E
:10058000926E0101206B216B226B236B1200200EF7
:100590000101E76ED019E8AE02D0E73402D0E7508F
:1005A000D05D03E36D50020B01E01AD1010120512F
:1005B000211102E1000E08D020C1E9FF21C1EAFFAC
:1005C000EF50800B01E0010E000901E009D1100E8F
:1005D0000501005D08E0810E0501005D04E0820E6A
:1005E0000501005D00E005010051EE0A01E18DD03A
:1005F000110A01E183D07D0A5CE0030A33E0010ABD
:1006000030E0900A01E0A3D0400EE66E050EE66EE3
:10061000C7EC1DF0E552E55201012251231102E120
:10062000000E08D022C1E9FF23C1EAFFEF50800B82
:1006300001E0010E000914E1400EE66E400EE66E88
:10064000050EE66E010EE66E010EE66EFAEC11F096
:10065000146E050EE15E1450F3CF22F1F4CF23F1B6
:10066000ACD0ABD00501406B01012251231102E156
:10067000000E08D022C1E9FF23C1EAFFEF50800B32
:1006800001E0010E000914E1400EE66E400EE66E38
:10069000050EE66E010EE66E010EE66EFAEC11F046
:1006A000146E050EE15E1450F3CF22F1F4CF23F166
:1006B00084D001012251231102E1000E08D022C191
:1006C000E9FF23C1EAFFEF50800B01E0010E0009B2
:1006D00014E1400EE66E400EE66E050EE66E010E6B
:1006E000E66E010EE66EFAEC11F0146E050EE15E98
:1006F0001450F3CF22F1F4CF23F15FD001C5E6FF10
:10070000A9EC21F0E552FF0058D0A3EC21F0E66EF1
:10071000E66A780E146E440E156E166A14C0E6FF73
:1007200015C0E6FF16C0E6FF6E0EE66E020EE66E20
:10073000C6EC21F0176E070EE15E17506E0EE66EE6
:10074000020EE66E2EEC1DF0E552E55236D00501A4
:100750000551E66EE66A05010451E66EE66A05019A
:100760000351E66EE66A05010251E66EE66A05018E
:100770000151E66EE66A05010051E66EE66A380E42
:10078000146E440E156E166A14C0E6FF15C0E6FF1F
:1007900016C0E6FF6E0EE66E020EE66EC6EC21F0A7
:1007A000176E110EE15E17506E0EE66E020EE66ECB
:1007B0002EEC1DF0E552E55200D0400EE66E000E24
:1007C000E66E050EE66EE66A010EE66EFAEC11F0D4
:1007D000146E050EE15E1450F3CF20F1F4CF21F139
:1007E000120012001200120012009AEF20F0120004
:1007F0001E0EE66E010EE66E53EC11F0E552E55268
:10080000400EE66E000EE66E050EE66EE66A010E1E
:10081000E66EFAEC11F0146E050EE15E1450F3CFA3
:1008200020F1F4CF21F112000101EF051EE10101D9
:10083000F0051BE1D7DF6D920101F06B0201100E94
:10084000B06F0E0EB16FB007000EB15BB051B111B9
:10085000FAE16D84080EB06F070EB16FB007000E9D
:10086000B15BB051B111FAE16D941200D9CFE6FF3E
:10087000E1CFD9FFFD0EDBCF08F0FE0EDBCF09F094
:10088000E868081802E17F0E091831E0030E081825
:1008900001E109502AE0020E081801E1095023E0A5
:1008A000010E081801E109501CE0740E081801E15E
:1008B000095015E0750E081801E109500EE0730E9D
:1008C000081801E1095007E0720E081801E109500B
:1008D00001E00FD00ED087DF0CD083DF0AD082DF9B
:1008E00008D086DF06D083DF04D07FDF02D07CDF34
:0E08F00000D0010E00D0E552E7CFD9FF120074
:061000006DEF25F0120067
:061008000FEF00F01200E2
:0610180088EF00F0120059
:06102A000500BE4C0000B1
:10103000E600000017000000B44C0000DB020000D6
:101040000A0000004B3A0000FD0000000100000013
:10105000504C00000002000064000000804B0000C3
:0810600000010000D0000000B7
:08106800D9CFE6FFE1CFD9FF6B
:10107000E652A09A6A6A686A706A010EE66EE66ACB
:10108000E66A710EE66E0F0EE66E12EC23F0146E39
:10109000050EE15E1450160E6F6E9F0E6B6E7B0E8A
:1010A000696EDF6ADF50146E156A080E145C000E5C
:1010B000155810E2DF50040DF3CFE9FFF4CFEAFF3B
:1010C000000EE926040EEA22EE6AEE6AEE6AEE6A85
:1010D000DF2AE8D76D8C6E6A6D986D9C68A607D084
:1010E00068960101E36BE86BE96BEA6BF7D70101E6
:1010F000010EFA6FFB6FFC6BFD6BF06BDF6A020E8B
:10110000DF5C26E2EA6ADF34FE0BEA36E96EDB0ECC
:10111000E926010EEA22EE6AED6AEA6ADF34FE0B86
:10112000EA36E96ED70EE926010EEA22EE6AED6A8A
:10113000DF50EA6AF40FE96E010EEA22EF6ADF502F
:10114000EA6AF60FE96E010EEA22EF6ADF2AD7D7C4
:101150000101080EDB6F040EDC6F160E706E0401C9
:10116000200E026F040E036F080E016F840E006FD5
:101170000101D16BD06BE552E552E7CFD9FF1200E8
:10118000D9CFE6FFE1CFD9FFE6520101D05116E1F8
:1011900006D06D6A696A0101D06BA19AB9D06D6AF7
:1011A000696A160E6F6E9F0E6B6E7B0E696E6DB662
:1011B00002D06D86FCD70101010ED06FD00508E189
:1011C0006DBA06D0686A696A69806988020ED06F54
:1011D0006850040B05E06950040B02E06894CBD81A
:1011E0006DA202D0A19A94D06850010B08E069501A
:1011F000010B05E039DF0101040ED06F68906850E3
:10120000100B05E06950100B02E0A0D8689868AC9C
:1012100019D069AC0FD0010EE66EE66A000EE66EDC
:10122000E66A730EE66EE66A36EC04F0146E060E9D
:10123000E15E1450689C0101F85101E0F807F85193
:1012400001E174DB6850200B04E06950200B01E0E1
:1012500064D86850020B13E06950020B10E0010ED5
:10126000E66EE66A000EE66EE66AE6687F0EE66EF9
:1012700036EC04F0146E060EE15E14506A6A040E39
:101280000101E76ED019E8AE02D0E73402D0E75092
:10129000D05D02E2A19A3CD069A639D0DF6A040E83
:1012A000DF5C35E268A630D06CCFF1F10101F1517D
:1012B000780BE842E842E842F26F6896F1B508D050
:1012C000F251EA6AF60FE96E010EEA22EF7007D0DA
:1012D000F251EA6AF40FE96E010EEA22EF70F25160
:1012E00002E160D810D0000EE66EE66AF10EE66EFE
:1012F000010EE66E720EE66EE66A36EC04F0146ECF
:10130000060EE15E145001D002D0DF2AC8D7A19AA0
:10131000E552E552E7CFD9FF120070A015D0D3C136
:10132000E9FFD4C1EAFFEF5080080DE1DBC1E9FF1E
:10133000DCC1EAFFEF50840806E1D3C1E9FFD4C164
:10134000EAFF8C0EEF6E7090689A120069846898BC
:101350006D820101010EF06F000EE66EE66AE66E28
:10136000E66A750EE66EE66A36EC04F0146E060E5A
:10137000E15E145012000101F06B000EE66EE66AA9
:10138000E66EE66A740EE66EE66A36EC04F0146EFB
:10139000060EE15E14506D92699468A402D06894C0
:1013A000FCD71200D9CFE6FFE1CFD9FFE652010109
:1013B0002D0EF86FFD0EF11553E17E0EF115E8408C
:1013C0007F0B040DF3CFD3F1F4CFD4F1000ED3276C
:1013D000040ED423D3C1D5F1D4C1D6F1D575D3C170
:1013E000E9FFD4C1EAFFEF503C0BE842E8420D08A8
:1013F00035E1DF6A080EDF5C23E2D3C1E9FFD4C127
:10140000EAFF020EE926000EEA22EE50EFCFEAFFD5
:10141000E96EEF50E66EDF50EA6A200FE96E040EC7
:10142000EA22E552E750EF6ED3C1E9FFD4C1EAFFEB
:10143000020EE926000EEA22EE2AEF22DF2ADAD790
:10144000D3C1E9FFD4C1EAFF020EE926000EEA2269
:10145000200EEE6E040EED6E0DD801D03AD805D0F8
:10146000FD0EF115040801E15AD8E552E552E7CF27
:10147000D9FF12000101DF6BF96BFC6BFD6BF36BA5
:10148000E06BDBC1E9FFDCC1EAFFEF9EDB75DBC18E
:10149000E9FFDCC1EAFFEF9EDB75D5C1E9FFD6C1EC
:1014A000EAFFEF9EE36BE46BE56BE86BE96BEA6BDD
:1014B00091D8000EE66EE66AE66EE66A030EE66E08
:1014C000E66A36EC04F0146E060EE15E145015EF79
:1014D0000FF0020E0101E05D03E1D8EC0FF01ED029
:1014E000E06BF3511AE1D5C1E9FFD6C1EAFFEE5234
:1014F000080EEF6ED5C1E9FFD6C1EAFF020EE9265C
:10150000000EEA22200EEE6E040EED6ED5C1E9FF4C
:10151000D6C1EAFF8C0EEF6E01D0F36B1200D9CF6B
:10152000E6FFE1CFD9FFE652DBC1E9FFDCC1EAFF0C
:10153000EF50400B01E0010EDF6E0101DB75080E7C
:10154000D05D09E122C46EFF6E5003E0100ED06F33
:1015500002D0040ED06FE00529E1DBC1E9FFDCC158
:10156000EAFF020EE926000EEA22280EEE6E040EB5
:10157000ED6E76EC0FF0020E0101DF5D07E1DBC1DD
:10158000E9FFDCC1EAFF840EEF6E0FD0DF5007E108
:10159000DBC1E9FFDCC1EAFFC80EEF6E06D0DBC19C
:1015A000E9FFDCC1EAFF880EEF6E0FD0E8AF0CD088
:1015B000EB51EC1107E005D0ECC1FAFF0101EB5152
:1015C000F96EFADF0101E89FE06BE552E552E7CFE3
:1015D000D9FF120004012051600BE842E842E842C2
:1015E000E842E842000901E059D021510C0A55E0D7
:1015F0000B0A44E00C0A36E0010A27E00B0A23E05C
:10160000020A21E0030A1DE0080A11E0010A0CE0C9
:101610000F0A08E0030A01E040D00101E38F080E41
:10162000D06F3CD014DA3AD078EC10F037D001010A
:10163000D10EE16F010EE26FE381010EE46FE38FE3
:101640002DD08BDB2BD02BD829D024510101E16F79
:10165000E26BD20EE127010EE223E381010EE46F7B
:10166000E38F1CD00101E38F04012451EA6AD20FF9
:10167000E96E010EEA2222C4EFFF10D0000EE66EE2
:10168000E66AE66EE66A020EE66EE66A36EC04F09C
:10169000146E060EE15E145001D000D01200D9CFB6
:1016A000E6FFE1CFD9FF050EE1260401220510E196
:1016B00020511F0B00090CE10101E38F030E04010F
:1016C000215D04E10101010EEF6F02D00101EF6B1A
:1016D0000401225101E020D120511F0B020801E03A
:1016E0001BD124510F0B000901E116D124510F0B1E
:1016F000010801E211D1200E0101D05D01E00CD101
:10170000E38F040124BF1AD024510F0BE96EEA6A5B
:10171000D890E936EA36D70EE926010EEA22EECF56
:10172000DEFFEDCFDDFF24510F0BEA6AF60FE96E05
:10173000010EEA22020EEFCFDBFF19D024510F0B6E
:10174000E96EEA6AD890E936EA36DB0EE926010E40
:10175000EA22EECFDEFFEDCFDDFF24510F0BEA6A68
:10176000F40FE96E010EEA22020EEFCFDBFFD95033
:10177000020FE96EDACFEAFFEF50010B03E1000E32
:10178000DF9401D0DF8424BF10D024510F0BE96E09
:10179000EA6AD890E936EA36D70EE926010EEA223F
:1017A000DECFEEFFDDCFEDFF0FD024510F0BE96E42
:1017B000EA6AD890E936EA36DB0EE926010EEA221B
:1017C000DECFEEFFDDCFEDFF030E215D23E1DECFA7
:1017D000E9FFDDCFEAFFEF50800B13E024BF09D013
:1017E00024510F0BEA6AF60FE96E010EEA22EF822E
:1017F00008D024510F0BEA6AF40FE96E010EEA22B9
:10180000EF82840E146EDECFE9FFDDCFEAFF1450C5
:10181000EF1282D0DF74DECFE9FFDDCFEAFFEF50B9
:10182000800B1BE0DECFE9FFDDCFEAFFEF9EDECFCE
:10183000E9FFDDCFEAFFEF8C020EE66EE66ADECF4F
:10184000E6FFDDCFE6FF050EE66EE66A36EC04F055
:10185000146E060EE15E145005D0DECFE9FFDDCF39
:10186000EAFFEF8CDF74D950020FE96EDACFEAFF9E
:10187000EF50020B07E1DECFE9FFDDCFEAFFEF50CB
:10188000800B2DE0040124BF09D024510F0BEA6A1C
:10189000F60FE96E010EEA22EF9208D024510F0BE9
:1018A000EA6AF40FE96E010EEA22EF923B0E146E23
:1018B000DECFE9FFDDCFEAFF1450EF16020EE66E31
:1018C000E66ADECFE6FFDDCFE6FF050EE66EE66AEE
:1018D00036EC04F0146E060EE15E145008D03B0E98
:1018E000146EDECFE9FFDDCFEAFF1450EF160401DE
:1018F00024510F0B156A700F146E0F0E1522030E74
:1019000014C0DBFF040E15C0DBFF030EDBCFE9FFC5
:10191000040EDBCFEAFFEF90050EE15C02E2E16A24
:10192000E552E16EE552E7CFD9FF12000101FA510D
:101930004DE1010EFA6FFB5149E1010EFB6F020E02
:10194000E05D0DE1DBC1E9FFDCC1EAFFEE52EF6AC9
:10195000DBC1E9FFDCC1EAFFC80EEF6E37D0E0055E
:1019600035E1F36BD3C1E9FFD4C1EAFFEE52080EB3
:10197000EF6ED3C1E9FFD4C1EAFF020EE926000EE3
:10198000EA22200EEE6E040EED6ED3C1E9FFD4C143
:10199000EAFF840EEF6E010EF36FD5C1E9FFD6C1E9
:1019A000EAFFEE52080EEF6ED5C1E9FFD6C1EAFF9D
:1019B000020EE926000EEA22200EEE6E040EED6EF7
:1019C000D5C1E9FFD6C1EAFF800EEF6E120001011A
:1019D000FC6BFD6B020EE05D1AE1D5C1E9FFD6C1DB
:1019E000EAFFEE52080EEF6ED5C1E9FFD6C1EAFF5D
:1019F000020EE926000EEA22280EEE6E040EED6EAF
:101A0000D5C1E9FFD6C1EAFFC80EEF6E1FD0E45181
:101A10000401265D0101E5510401275904E226C4B1
:101A2000E4F127C4E5F162DADBC1E9FFDCC1EAFFDA
:101A3000020EE926000EEA22280EEE6E040EED6E6E
:101A4000DBC1E9FFDCC1EAFFC80EEF6E1200800EB9
:101A50000401205D01E080D10101C00EE36F0401AB
:101A60002351030A01E187D0010A61E0030A03E080
:101A70000101E36B71D1A3EC21F0090A4EE0010AE8
:101A800046E00F0A3EE0010A36E0030A2EE0010AB2
:101A900026E0070A1EE0010A16E0030A0EE0010A2A
:101AA00006E001016A0EE16F370EE26F3CD00101E2
:101AB0007C0EE16F370EE26F36D001018E0EE16FC2
:101AC000370EE26F30D00101A00EE16F370EE26FEA
:101AD0002AD00101B20EE16F370EE26F24D001016E
:101AE000C40EE16F370EE26F1ED00101D60EE16F1A
:101AF000370EE26F18D00101E80EE16F370EE26F8A
:101B000012D00101FA0EE16F370EE26F0CD0010125
:101B10000C0EE16F380EE26F06D001011E0EE16F70
:101B2000380EE26F00D0120EE46FE56B15D1225132
:101B3000F66EF76AD890F636F736F10EF626390EBD
:101B4000F7220900F5CFE1F10A00F5CFE2F1020E2C
:101B50000101F76AE125F66EE251F7220800F5CFA0
:101B6000E4F1030EF76AE125F66EE251F722080070
:101B7000F5CFE5F1F1D0030E225D01E3EAD0A3EC4D
:101B800021F0090A01E1C9D0010A01E1B4D00F0A2C
:101B900001E19FD0010A01E18AD0030A76E0010A3F
:101BA00062E0070A4EE0010A3AE0030A26E0010A71
:101BB00012E004012251F66EF76AD890F636F73635
:101BC000F30EF626390EF7220900F5CFE1F10A00EF
:101BD000F5CFE2F1B4D004012251F66EF76AD89045
:101BE000F636F736FB0EF626390EF7220900F5CF4A
:101BF000E1F10A00F5CFE2F1A2D004012251F66E24
:101C0000F76AD890F636F736030EF6263A0EF72224
:101C10000900F5CFE1F10A00F5CFE2F190D004011F
:101C20002251F66EF76AD890F636F7360B0EF62686
:101C30003A0EF7220900F5CFE1F10A00F5CFE2F103
:101C40007ED004012251F66EF76AD890F636F73648
:101C5000130EF6263A0EF7220900F5CFE1F10A003D
:101C6000F5CFE2F16CD004012251F66EF76AD890FC
:101C7000F636F7361B0EF6263A0EF7220900F5CF98
:101C8000E1F10A00F5CFE2F15AD004012251F66EDB
:101C9000F76AD890F636F736230EF6263A0EF72274
:101CA0000900F5CFE1F10A00F5CFE2F148D00401D7
:101CB0002251F66EF76AD890F636F7362B0EF626D6
:101CC0003A0EF7220900F5CFE1F10A00F5CFE2F173
:101CD00036D004012251F66EF76AD890F636F73600
:101CE000330EF6263A0EF7220900F5CFE1F10A008D
:101CF000F5CFE2F124D004012251F66EF76AD890B4
:101D0000F636F7363B0EF6263A0EF7220900F5CFE7
:101D1000E1F10A00F5CFE2F112D004012251F66E92
:101D2000F76AD890F636F736430EF6263A0EF722C3
:101D30000900F5CFE1F10A00F5CFE2F100D0E1C1F1
:101D4000F6FFE2C1F7FF0800F5500101E46FE56B13
:101D500002D00101E36B00D01200D9CFE6FFE1CF42
:101D6000D9FF020EE1260401286B296B20511F0BBD
:101D7000020A12E0030A0DE0010A01E042D001016B
:101D8000E38F040128810101EF0502E104012883AA
:101D900038D00101E38F35D00101E38F040124BF66
:101DA00010D024510F0BE96EEA6AD890E936EA3672
:101DB000D70EE926010EEA22EECFDEFFEDCFDDFFE2
:101DC0000FD024510F0BE96EEA6AD890E936EA3653
:101DD000DB0EE926010EEA22EECFDEFFEDCFDDFFBE
:101DE000DECFE9FFDDCFEAFFEF50800B09E0DECF69
:101DF000E9FFDDCFEAFFEF50040B02E0010E286F90
:101E000000D00101E3AF07D0280EE16F040EE26FAE
:101E1000E381020EE46F020EE15C02E2E16AE55248
:101E2000E16EE552E7CFD9FF12006D980101E3BFE3
:101E30002BD0E8AF09D0020EE06FFD5101E1C7DD04
:101E40000101FB6BFA6B1FD0D5C1E9FFD6C1EAFFD8
:101E5000EE52080EEF6ED5C1E9FFD6C1EAFF020EC1
:101E6000E926000EEA22200EEE6E040EED6ED5C1BC
:101E7000E9FFD6C1EAFF8C0EEF6EDBC1E9FFDCC1E2
:101E8000EAFF840EEF6E31D0040120AF0DD00101C6
:101E9000010EE06FFC5101E19ADD0101FB6BFA6B71
:101EA000F95101E143DD21D00101020EE06FD5C1FE
:101EB000E9FFD6C1EAFFEE52080EEF6ED5C1E9FF89
:101EC000D6C1EAFF020EE926000EEA22200EEE6ECF
:101ED000040EED6ED5C1E9FFD6C1EAFF840EEF6EA8
:101EE000FB6BFA6BF95101E121DD1200D9CFE6FF5E
:101EF000E1CFD9FFE652080EDF6E0101E45D000E6E
:101F0000E5590BE2E4C1DFFFDF5103E1010EDF6FB2
:101F100004D0DF0502E1020EDF6FDF50146E156A98
:101F20001450E45DE46F1550E559E56FDBC1E9FF3E
:101F3000DCC1EAFFEE52DFCFEFFF280EED6F040E9B
:101F4000EE6FE3B119D0DF5016E0E1C1F6FFE2C158
:101F5000F7FFE12B000EE2230800F550E66EEDC11D
:101F6000E9FFEEC1EAFFED2B000EEE23E552E7504C
:101F7000EF6EDF06E8D717D0DF5015E0E1C1E9FFCB
:101F8000E2C1EAFFE12B000EE223EF50E66EEDC165
:101F9000E9FFEEC1EAFFED2B000EEE23E552E7501C
:101FA000EF6EDF06E9D7E552E552E7CFD9FF120021
:101FB000D9CFE6FFE1CFD9FF020EE126D3C1E9FF79
:101FC000D4C1EAFFEE52EFCFDFFFDFCF14F01450A1
:101FD0000101E95D000EEA5902E2E9C1DFFFDF50CD
:101FE000146E156A1450E95DE96F1550EA59EA6FED
:101FF000010EDB6ADF50F36E010EDBCFF4FFF3500E
:10200000F45C16E2010EDB50EA6A280FE96E040E5A
:10201000EA22EF50E66EE6C1E9FFE7C1EAFFE62BF0
:10202000000EE723E552E750EF6E010EDB2AE2D700
:10203000000ED880E955000EEA5528E2D5C1E9FF27
:10204000D6C1EAFFEE52080EEF6ED5C1E9FFD6C148
:10205000EAFF020EE926000EEA22280EEE6E040EBA
:10206000ED6ED3C1E9FFD4C1EAFFEF50400B07E1A9
:10207000D5C1E9FFD6C1EAFFC80EEF6E06D0D5C1C3
:10208000E9FFD6C1EAFF880EEF6E28D0D5C1E9FF7F
:10209000D6C1EAFFEE52080EEF6ED5C1E9FFD6C1F8
:1020A000EAFF020EE926000EEA22200EEE6E040E72
:1020B000ED6ED5C1E9FFD6C1EAFF840EEF6EEB519C
:1020C000EC1107E005D0ECC1FAFF0101EB51F96E0C
:1020D000FADF0101E89FF95101E128DC020EE15C21
:1020E00002E2E16AE552E16EE552E7CFD9FF120064
:1020F000D9CFE6FFE1CFD9FFE6520101E38F010E10
:10210000E66EE66AE66A710EE66E0F0EE66E12EC99
:1021100023F0146E050EE15E1450DF6ADF50146E7A
:10212000156A080E145C000E155810E2DF50040DFD
:10213000F3CFE9FFF4CFEAFF000EE926040EEA220E
:10214000EE6AEE6AEE6AEE6ADF2AE8D76D8CDF6A25
:10215000020EDF5C10E2DF50EA6AF40FE96E010E56
:10216000EA22EF6ADF50EA6AF60FE96E010EEA2210
:10217000EF6ADF2AEDD7010EE66EE66AE66AD20E56
:10218000E66E010EE66E12EC23F0146E050EE15EB3
:1021900014506D9C0101080EDB6F040EDC6F000E05
:1021A000D36F040ED46FD3C1D5F1D4C1D6F122C4FC
:1021B000D1F1D15103E1100ED06F13D0010EE66EB4
:1021C000E66AD10EE66E010EE66E010EE66EE66A76
:1021D00036EC04F0146E060EE15E14500101200E80
:1021E000D06FE552E552E7CFD9FF1200D9CFE6FF15
:1021F000E1CFD9FF020EE126000EDE6E040EDD6E89
:10220000FD0EDB50E824166EFE0EDB50040DF3507D
:102210001624040DF3CF14F0F4CF15F0D9CFE9FF55
:10222000DACFEAFF1450EE261550ED22DECFE9FF9B
:10223000DDCFEAFFEF9EFD0EDB500FE1FE0EEA6AF6
:10224000DB34FE0BEA36E96ED70EE926010EEA22F0
:10225000DECFEEFFDDCFEDFF0ED0FE0EEA6ADB34FF
:10226000FE0BEA36E96EDB0EE926010EEA22DECF2E
:10227000EEFFDDCFEDFFDECFE9FFDDCFEAFFEF9C24
:10228000DECFE9FFDDCFEAFF040EE926000EEA22E9
:10229000EF8C020EE15C02E2E16AE552E16EE5528A
:1022A000E7CFD9FF1200D9CFE6FFE1CFD9FF020E69
:1022B000E126FD0EDBA407D0E66AFE0EDBCFE6FFCB
:1022C00095DFE552E552FD0EDBA208D0010EE66E69
:1022D000FE0EDBCFE6FF8ADFE552E552FE0EDB5055
:1022E000156A700F146E0F0E152214C0DEFF15C094
:1022F000DDFFDECFE9FFDDCFEAFFFD0EDBCFEFFF35
:10230000020EE15C02E2E16AE552E16EE552E7CFDE
:10231000D9FF1200D9CFE6FFE1CFD9FF020EE126A7
:10232000FE0EDB5020E1D5C1E9FFD6C1EAFFEE5237
:10233000080EEF6ED5C1E9FFD6C1EAFF020EE9260D
:10234000000EEA22200EEE6E040EED6ED5C1E9FFFE
:10235000D6C1EAFF8C0EEF6EDBC1E9FFDCC1EAFFFC
:10236000840EEF6E3DD0FD0EDB50E824166EFE0E9F
:10237000DB50040DF3501624040DF3CF14F0F4CF0A
:1023800015F0000E1426040E152214C0DEFF15C031
:10239000DDFF840E146EDECFE9FFDDCFEAFF1450BF
:1023A000EF12FD0EDB50E824166EFE0EDB50040D1E
:1023B000F3501624010F040DF3CF14F0F4CF15F0F1
:1023C000000E1426040E152214C0DEFF15C0DDFF1A
:1023D000840E146EDECFE9FFDDCFEAFF1450EF125A
:1023E000020EE15C02E2E16AE552E16EE552E7CFFE
:1023F000D9FF1200D9CFE6FFE1CFD9FF020EE126C7
:10240000FD0EDB500FE0FE0EEA6ADB34FE0BEA360F
:10241000E96EDB0EE926010EEA22EECFDEFFEDCFFC
:10242000DDFF0ED0FE0EEA6ADB34FE0BEA36E96E03
:10243000D70EE926010EEA22EECFDEFFEDCFDDFF5B
:10244000D9CFE9FFDACFEAFFEE50ED1003E1F36AEE
:10245000F46A49D0DECFE9FFDDCFEAFF020EE926BC
:10246000000EEA22FB0EDBCFEEFFFC0EDBCFEDFF12
:10247000DECFE9FFDDCFEAFFEE52FA0EDBCFEFFF52
:10248000400E146EDECFE9FFDDCFEAFF1450EF16E9
:10249000880E146EDECFE9FFDDCFEAFF1450EF1295
:1024A000FD0EDB500CE0FE0EEA6ADB34FE0BEA3672
:1024B000E96EDB0EE926010EEA22EF740BD0FE0E68
:1024C000EA6ADB34FE0BEA36E96ED70EE926010E26
:1024D000EA22EF74DECF14F0DDCF15F014C0F3FF65
:1024E00015C0F4FF00D0020EE15C02E2E16AE552A1
:1024F000E16EE552E7CFD9FF1200D9CFE6FFE1CF79
:10250000D9FF6DA84ED0FE0EEA6ADB34FE0BEA3628
:10251000E96EDB0EE926010EEA22EE50EFCFEAFF6C
:10252000E96E400EEE16EE6AEE6AEE6AFE0EEA6A9A
:10253000DB34FE0BEA36E96EDB0EE926010EEA22F9
:10254000EE50EFCFEAFFE96EEE7CFE0EEA6ADB3476
:10255000FE0BEA36E96EDB0EE926010EEA22EF7485
:10256000400E146EFE0EEA6ADB34FE0BEA36E96EAC
:10257000DB0EE926010EEA22EE50EFCFEAFFE96E0C
:102580001450EF16FE0EEA6ADB34FE0BEA36E96EF3
:10259000DB0EE926010EEA22EE50EFCFEAFFE96EEC
:0A25A000EF7CE552E7CFD9FF1200EF
:0625AA0011EC18F0FB0E1D
:1025B000DBCFF3FFDB06F35000090AE05FEC18F015
:1025C000FA0ECAEC18F0F3E1151CF1E1010E01D08E
:1025D000000E40EF18F011EC18F03B0EE12402E37E
:1025E000E168E652E16E010EDB6A020EDB6AF90E6B
:1025F000DBCFF6FFFA0EDBCFF7FFFB0EDBCFF8FFEA
:102600000800F550DF6EDF5002E164EF17F0250E91
:10261000DF5C02E057EF17F0030EDB6A040EDB6AA3
:10262000050EDB6A060EDB6A070EDB6A79EC17F033
:102630002D0EDF5C0CE02B0EDF5C09E0200EDF5C72
:1026400006E0230EDF5C03E0300EDF5C1AE1DF50B2
:10265000300A14E0130A0FE0030A0AE00B0A05E04F
:10266000060AE4E1030EDB80E1D7030EDB82DED74E
:10267000030EDB84DBD7030EDB86D8D7030EDB88A3
:10268000D5D72A0EDF5C1BE175EC17F0C3EC17F011
:1026900010E0030EDB8008680968130EDBCF0DF035
:1026A000140EDBCF0EF096EC22F0040E06C0DBFF1A
:1026B00003D0130EACEC17F079EC17F00BD0090E29
:1026C000DB6A1AEC18F003E08EEC18F0FAD7090E6A
:1026D000ACEC17F0030EDBB0DB982E0EDF5C1BE1D9
:1026E00079EC17F02A0EDF5C0BE175EC17F0C3EC08
:1026F00017F003E1130EFEEC17F079EC17F00BD096
:10270000090EDB6A1AEC18F003E08EEC18F0FAD729
:10271000090EFEEC17F0680EDF5C07E179EC17F0AC
:10272000680EDF5C1DE1030E18D0740EDF5C17E04D
:102730007A0EDF5C14E0480EDF5C06E0540EDF5CCE
:1027400003E05A0EDF5C02E1020E07D06C0EDF5C84
:1027500003E06A0EDF5C04E1010E51EC18F0C9DB06
:10276000DF506E0A01E17FD31E0A01E192D1200AF7
:1027700001E18FD13F0A01E149D11A0A01E146D1B5
:102780000D0A01E143D1200A01E140D13A0A01E1F9
:102790003DD1200A01E13AD1260A01E135D10D0AE5
:1027A00001E132D11A0A01E1D9D0200A4AE0300A07
:1027B0001FE0460A0EE0250A01E083D3D950F90F45
:1027C000E96EFF0EDA20EA6E010EEE5E000EEE5AA2
:1027D000EE5A5FEC18F0250EE66E95DB03E1151C52
:1027E00001E169D35BEC18F001E26BD3DB2A69D31A
:1027F000080EDB6A040EDB50010806E2040EDB045F
:1028000023EC18F0DB508BDB080EDB5009E0030EE5
:10281000DB50010B05E172DB01E04DD3080EDB6AF2
:1028200064DBEFCFDFFFD3EC18F003E1151C01E10F
:1028300042D35BEC18F001E3DB2A60DB01E141D31A
:102840003AD3070EDB5002080FE19FEC18F0030E9D
:1028500066EC18F00E0EEECFDBFF0F0EEECFDBFFB7
:10286000100EEECFDBFF20D0F70EDBCF17F0F80E07
:10287000DBCF18F0020E175E000E185AF70E17C0C5
:10288000DBFFF80E18C0DBFF17C0E9FF18C0EAFF36
:1028900056EC18F0166A0E0E14C0DBFF0F0E15C0B2
:1028A000DBFF100E16C0DBFF0E0EDBCFE6FF0F0EB8
:1028B000DBCFE6FF100EDBCFE6FF3AEC23F0E5526C
:1028C000E552E552130E07C0DBFF140E08C0DBFF14
:1028D000060EDB5005E0130E9AEC18F001E26ADBFD
:1028E000BEEC18F002E2130E37DB81EC18F006E0C4
:1028F000040E9AEC18F002E2050E2EDB030EDBB09C
:1029000005D0FCDA01E0D7D2080EDB6A090EDB6ADB
:102910000E0EDBCFF6FF0F0EDBCFF7FF100EDBCF77
:10292000F8FF0800F550DF6EDF5014E0C4EC18F03B
:1029300011E2D3EC18F003E1151C01E1BCD2BBDBC2
:1029400001E3DB2A090EDB2AD9500E0FE96E000ED7
:10295000CBDBE7D7D3DA01E1B4D2ADD2C6DA110EC0
:10296000EECFDBFF120EEDCFDBFF110EDBCFE6FF6C
:10297000120EDBCFE6FF2CEC23F0E552E552130EEE
:10298000F3CFDBFF140EF4CFDBFF060EDB5004E0C9
:10299000130ED0DB01E20EDBBEEC18F002E2130EE8
:1029A000DBDAAFDB05E0040EC5DB02E2050ED4DAAC
:1029B000030EDBB005D0A2DA01E07DD2080EDB6A9F
:1029C000090EDB6A110EDBCFE9FF120EDBCFEAFF47
:1029D000EFCFDFFFDF5014E0D7DB12E2E4DB03E1EF
:1029E000151C01E168D267DB01E3DB2A090EDB2A53
:1029F000110EDB2ADBCFE9FF120EE8E3DB2AE6D774
:102A00007DDA01E15ED257D2030EDB8E070EDB04C6
:102A100010E195DB040E5ADB0A0EEECFDBFF0B0E46
:102A2000EECFDBFF0C0EEECFDBFF0D0EEECFDBFFAC
:102A30006CD0070EDB5003082CE1030EDBAE0DD08B
:102A4000B2DA020E76DAEFCF14F0156A166A176A58
:102A500014AE39D01568166835D0F70EDBCF15F0F7
:102A6000F80EDBCF16F0020E155E000E165AF70EAA
:102A700015C0DBFFF80E16C0DBFF15C0E9FF16C05E
:102A8000EAFFEFCF14F00A0E14C0DBFF0B0EDB6A77
:102A900038D0070EDB50020809E1030EDBAE04D08C
:102AA00059DB16AE10D00ED055DB0DD0030EDBAEC9
:102AB00012D079DA020E3DDAF9DA166A176A15AE23
:102AC00002D016681768E2DA0C0E16C0DBFF0D0E96
:102AD00017C0DBFF1AD0F70EDBCF16F0F80EDBCFF6
:102AE00017F0020E165E000E175AF70E16C0DBFF27
:102AF000F80E17C0DBFF16C0E9FF17C0EAFFD6DAF1
:102B0000C5DA0C0EDB6A0D0EDB6A060EDB5005E142
:102B1000010EF36E050EF3CFDBFF150EDB6A160E0A
:102B2000DB6AD950370F146E000EDA20156E390E9D
:102B300014C0DBFF3A0E15C0DBFF380EDB6A080E4F
:102B4000DB6A0A0EAEDADF50780A12E0200A10E0E3
:102B5000280A0CE0200A0AE03F0A06E00D0A02E01B
:102B6000200A08E1020E05D0080E03D0080EDF2669
:102B7000100E97DA030EDBBE02D0DB92DB94DB5043
:102B8000800B24E08ADAD890030EEB50000A08E6A6
:102B9000000EEE5C000EEE58000EEE58000EEE58E1
:102BA00015E213DA0B680C680D680E68A1EC23F0CF
:102BB0000A0E02C0DBFF0B0E03C0DBFF0C0E04C0CD
:102BC000DBFF0D0E05C0DBFF2D0E08D0030EDBA2D0
:102BD00002D02B0E03D0DBA408D0200EF36E170E0C
:102BE000F3CFDBFF150EDB2A02D0170EDB6A050ED2
:102BF000DB5003E1B7D901E189D0560E146E4B0EBC
:102C0000156E000E166E070EDBCF17F0186A196AE4
:102C10001A6A17C00BF018C00CF019C00DF01AC0DA
:102C20000EF0D3D9E4EC24F014500224F36E1550C6
:102C30000320F46E16500420F86EF4CFF7FFF3CFA4
:102C4000F6FF0800090EF5CFDBFF580EDF5C0FE141
:102C5000610EF36E090E7BD90AE3200E146E090E85
:102C6000DBCFE7FF1450E75E090EE7CFDBFF070E6F
:102C7000DBCF14F0156A166A176A0FDA14C00BF06E
:102C800015C00CF016C00DF017C00EF0EECF06F018
:102C9000EECF07F0EECF08F0EFCF09F0E4EC24F030
:102CA00009C0EDFF08C0EDFF07C0EDFF06C0EFFF54
:102CB000390EDBCFE9FFDB063A0EDBCFEAFF01E29C
:102CC000DB06090EDBCFEFFF150EDB2A4BD995E1B2
:102CD000030EDBA61DD06F0EDF5C06E1C1D918E341
:102CE000150EDB285BDA14D0780EDF5C09E0580E95
:102CF000DF5C06E0620EDF5C03E0420EDF5C08E1B1
:102D0000020EF36E160EF3CFDBFF02D0150EDB6A58
:102D1000030EDB50100B0EE0040EDBCF14F0050E9B
:102D2000DB50D880145406E2060EDB5003E1040E9B
:102D3000DB5034DA95D90AE2050EDBCFE7FF150E3A
:102D4000DB50E75E050EE7CFDBFF02D0050EDB6A46
:102D5000040EDBCF14F0160E45D9D880145414E2BB
:102D6000160EDBCFE6FF150EDBCFE6FF040EDBCF42
:102D7000E6FF050EDB50E552E75CE552D880E754EC
:102D8000E552D880E7545FD9030EDB50010B0BE10D
:102D9000080EDB5008E0B2D801E08DD0080EDB5001
:102DA000BED8080EDB6A170EDB5007E088D9170E75
:102DB000F1D903E1151C01E17ED0160EDB5016E0BF
:102DC0007ED9300EE66E9FD802E1151C74E077D9EB
:102DD000DFCFE6FF5FEC23F0E552E552E552F4CF9A
:102DE00015F00001F31C02E1151C65E0050EDBCFB8
:102DF00014F0160EDB50D880145409E2050EDBCF18
:102E0000E7FF160EDB50E75E050EE7CFDBFF300E67
:102E1000E66E050ECBD94FE1390EDB2ADBCFE9FF99
:102E20003A0E01E3DB2ADBCFEAFF090EEFCFDBFF2F
:102E3000DB500EE044D9090EADD902E1151C3BE090
:102E4000390EDB2ADBCFE9FF3A0EEDE3DB2AEBD7C5
:102E500055D831E1160EDBCFE6FF080EC3D8E55298
:102E6000E7245DD82ED0070EDB50030A1CE0010AD0
:102E700014E0030A07E07BD9DBCFEEFF020EDBCFC5
:102E8000EDFF1FD0F5D8196A17AE02D0186819687F
:102E90002CD8BCD819C0EEFF14D0EAD817BE1868D9
:102EA00024D8B4D80ED063D9DBCFEFFF0AD07BD9BA
:102EB00005E1151C03E1F368F46810D0FCD801E3C8
:102EC000DB2A79D900EF13F0010EDBCF14F0020EEC
:102ED000DBCF15F014C0F3FF15C0F4FF3B0EE15C2F
:102EE00002E2E16AE552E16ECBD029D9020E66EF2B
:102EF00018F061D90800F550DF6E1200200EE66E62
:102F0000080ED6EF18F05FEC23F0E552E552E552DB
:102F1000F3CF14F0F4CF15F00001F31C1200146E7F
:102F2000156AD950010F4DD91450EE261550ED22D7
:102F30001200185E000E195AF70E18C0DBFFF80ECB
:102F400019C0DBFF18C0E9FF19C0EAFF1200DBCF90
:102F5000F4FFF350F45C1200DB50E76E040EE7CF91
:102F6000DBFF12000A0EDBCF14F00B0EDBCF15F0E7
:102F70000C0EDBCF16F00D0EDBCF17F01450151032
:102F8000161017101200130EEECFDBFF140EEDCF4C
:102F9000DBFF130EDBCF14F0140EDBCF15F00001B6
:102FA000800E15141200F70EDBCF18F0F80EDBCFF1
:102FB00019F01200050EDB50E66ED950130F01D93F
:102FC000E552E750EE6EED6A12000A0EDBCF06F016
:102FD0000B0EDBCF07F00C0EDBCF08F00D0EDBCFB6
:102FE00009F01200DBCFE6FF150EDBCFE6FF050E82
:102FF000DB50E552E724E552E7241200DB50CED83F
:10300000010EF36E060EF3CFDBFF1200EE50EFCF92
:10301000EAFFE96E16C0EEFF17C0EEFF18C0EEFF24
:103020001200D9CFE6FFDACFE6FFE1CFD9FFE2CF3A
:10303000DAFF1200DFCFE6FFE66A4BEC25F0E5523F
:10304000E552F3501200E76E080EE7CFDBFF1200E7
:10305000EECF14F0EECF15F0EFCF16F0176A120096
:10306000050EDBCF14F0150EDB50D880145412007F
:10307000010EDBCF16F0020EDBCF17F0186A12003C
:10308000E552E5CFDAFFE7CFD9FF12000A0E14C0F0
:10309000DBFF0B0E15C0DBFF1200D9500A0FE1EF6A
:1030A00018F0F36E070EF3CFDBFF1200EECF14F033
:1030B000EFCF15F01200010EDB2A020E1200FC0EFB
:1030C000DBCFE6FFFD0EDBCFE6FF1200145E000E45
:1030D000155AF70E14C0DBFFF80E15C0DBFF14C045
:1030E000E9FF15C0EAFF1200DA20EA6EEF2AEECF00
:1030F000F6FF000EEF22EECFF7FFEF22EECFF8FF44
:103100001200040EDBCFE6FF130EDB50E552E75C46
:103110009ADFDB5004DF060EDB501200090EDB5095
:103120000A0DF350DF24D00FE76E090EE7CFDBFF67
:1031300079EF17F0DB50F36E050EA7EF17F0F70EDF
:10314000DBCF14F0F80EDBCF15F01200DFCFE6FF77
:1031500083EF17F028DF030EECDE28EF18F0D5EC34
:1031600012F0E552E552E552E55200091200BDDECB
:10317000EE50EFCFEAFFE96E010E1200130EDB50A6
:10318000F36E040EA7EF17F0040EDB50F36E090E7A
:10319000A7EF17F0DBCFE6FF83EF17F0E76E050E22
:1031A000E7CFDBFF12008BDFA6EF18F0DBCFE6FFE7
:1031B00086DFAFEF18F0D950F90FE96EFF0E74EF0C
:0C31C00018F0E96E000EDA20EA6E120032
:0431CC00D9CFE6FF72
:1031D000E1CFD9FF020100510201C45D01E0DED060
:1031E0002EC220F02FC221F030C222F0236AFB0E43
:1031F000DBCF14F0FC0EDBCF15F0FD0EDBCF16F0AD
:10320000FE0EDBCF17F016C017F015C016F014C075
:1032100015F00001146A16C017F015C016F014C09E
:1032200015F0146AF90EDBCF18F0FA0EDBCF19F0A7
:103230001A6A1B6A1AC01BF019C01AF018C019F0DC
:10324000186A18501426195015221A5016221B50AD
:103250001722F70EDBCF1CF0F80EDBCF1DF01E6A35
:103260001F6A1C5014261D5015221E5016221F5076
:10327000172214C006F015C007F016C008F017C0DA
:1032800009F020C00BF021C00CF022C00DF023C0CB
:103290000EF0A1EC23F002C029F203C02AF204C010
:1032A0002BF205C02CF2800EE66E94EC24F0E55271
:1032B000100EE66E08EC25F0E552D950FB0FE96ED2
:1032C000FF0EDA20EA6EEECFE6FFEECFE6FFEECF9E
:1032D000E6FFEFCFE6FF19EC20F0E552E552E552AC
:1032E000E552840EE66E94EC24F0E552100EE66E84
:1032F00008EC25F0E5522EC214F02FC215F030C2B2
:1033000016F0176A14C0E6FF15C0E6FF16C0E6FF08
:1033100017C0E6FF09EC21F0E552E552E552E5520F
:103320008A0EE66E94EC24F0E552100EE66E08EC80
:1033300025F0E552F50EDBCFE6FFF60EDBCFE6FF1C
:10334000D5EC1EF0E552E552C00EE66E94EC24F08A
:10335000E552100EE66E08EC25F0E55229C2E6FFB4
:103360002AC2E6FF2BC2E6FF2CC2E6FFC7D8E55211
:10337000E552E552E552899C928C8B9294828B9413
:10338000948480B408D000C2C4F20201010E2E6FF2
:103390002F6B306B02D001C2C4F256D0FB0EDBCFD4
:1033A00014F0FC0EDBCF15F0FD0EDBCF16F0FE0E99
:1033B000DBCF17F016C017F015C016F014C015F0CB
:1033C0000001146A16C017F015C016F014C015F0ED
:1033D000146AF90EDBCF18F0FA0EDBCF19F01A6A77
:1033E0001B6A1AC01BF019C01AF018C019F0186A2D
:1033F00018501426195015221A5016221B50172245
:10340000F70EDBCF1CF0F80EDBCF1DF01E6A1F6A33
:1034100014501C240201296F15501D202A6F1650CC
:103420001E202B6F17501F202C6F29C2E6FF2AC2C7
:10343000E6FF2BC2E6FF2CC2E6FF0DD8E552E552AF
:10344000E552E55200C2C4F20201C45100D0E55277
:10345000E7CFD9FF1200D9CFE6FFE1CFD9FFFB0EAE
:10346000DBCF14F0FC0EDBCF15F0FD0EDBCF16F03A
:10347000FE0EDBCF17F0130ED8901732163215322E
:103480001432E806F9E114C031F215C032F216C068
:1034900033F20201D880020E3155000E3255000E73
:1034A00033550BE3140E2E6F2F6B306B899C928C6F
:1034B0008B8294928B8494941DD0D880040E3155C5
:1034C000000E3255000E33550BE3280E2E6F2F6B76
:1034D000306B899C928C8B9294828B8494940AD0CA
:1034E000500E2E6F2F6B306B899C928C8B92948236
:1034F0008B949484E552E7CFD9FF1200D9CFE6FF31
:10350000E1CFD9FF020EE1262E0EDF6E010EDB6A3F
:103510000201256BCA0E266F9A0E276F3B0E286F8D
:103520000201C56BD950FB0FE96EFF0EDA20EA6E7F
:10353000D880000EEE54000EEE54000EEE54000E35
:10354000EE5401E300D10201236B246B0A0E24AF79
:1035500002D0D89003D0235D000E245901E3CCD0D3
:1035600025C20BF026C20CF027C20DF028C20EF0C7
:10357000FB0EDBCF06F0FC0EDBCF07F0FD0EDBCF42
:1035800008F0FE0EDBCF09F0E4EC24F006C0C6F232
:1035900025C20BF026C20CF027C20DF028C20EF097
:1035A000FB0EDBCF06F0FC0EDBCF07F0FD0EDBCF12
:1035B00008F0FE0EDBCF09F0E4EC24F0FB0E02C0B5
:1035C000DBFFFC0E03C0DBFFFD0E04C0DBFFFE0EC5
:1035D00005C0DBFF0201C651000802E3C5513DE012
:1035E00035EC25F0000901E0FBD7300E0201C625BD
:1035F000E66E6BEC24F0E5520201C52B23C214F0F9
:1036000024C215F0090ED8801456000E1556030E6C
:103610000D6E0E6A14C008F015C009F070EC22F0AF
:1036200004C014F005C015F01450151015E1020186
:10363000090E231901E124510FE035EC25F00009B2
:1036400001E0FBD7D9CFE6FFDACFE6FFBDEC24F0EF
:10365000E552E5522C0EDF6E33D023C214F024C2A3
:1036600015F0090ED8801456000E1556030E0D6E77
:103670000E6A14C008F015C009F070EC22F004C006
:1036800014F005C015F01450151010E10201090ED8
:10369000231901E124510AE035EC25F0000901E08D
:1036A000FBD7200EE66E6BEC24F0E55235EC25F0EE
:1036B000000901E0FBD7200EE66E6BEC24F0E5522A
:1036C0000A0E0B6E0C6A0D6A0E6A25C206F026C23F
:1036D00007F027C208F028C209F0E4EC24F006C085
:1036E00025F207C026F208C027F209C028F202011D
:1036F000232B000E24232AD70201C551030815E20B
:10370000C551EA6A020FE96E020EEA22EFCFDFFF2F
:1037100035EC25F0000901E0FBD7D9CFE6FFDACF81
:10372000E6FFBDEC24F0E552E55235EC25F000094A
:1037300001E0FBD70E0EE66E020EE66EBDEC24F045
:10374000E552E55208D0120EE66E020EE66EBDECB2
:1037500024F0E552E552020EE15C02E2E16AE55234
:0A376000E16EE552E7CFD9FF120039
:06376A0012010002000044
:103770000008D904990902000102030112010002A4
:1037800000000008D9040001020001020301120137
:10379000000200000008D904010102000102030137
:1037A0001201000200000008D90402010200010217
:1037B00003011201000200000008D9040301020005
:1037C000010203011201000200000008D9040401F3
:1037D0000200010203011201000200000008D904E6
:1037E00005010200010203011201000200000008AD
:1037F000D9040601020001020301120100020000C7
:103800000008D904070102000102030112010002AD
:1038100000000008D904080102000102030112019E
:10382000000200000008D90409010200010203019E
:1038300009022900010100C032090400000203004E
:103840000000092111010001221C0007058103402D
:103850000001070501034000010403090418035196
:103860000075006500730065006E006200650072FF
:1038700000720079001E0351002D004200650072A5
:103880000072007900200048007A00200020002308
:10389000003F001E0351002D0042006500720072BF
:1038A000007900200048007A00200020002300302A
:1038B000001E0351002D0042006500720072007965
:1038C00000200048007A0020002000230031001E64
:1038D0000351002D00420065007200720079002043
:1038E0000048007A0020002000230032001E03510F
:1038F000002D00420065007200720079002000482F
:10390000007A0020002000230033001E0351002D08
:103910000042006500720072007900200048007AC1
:103920000020002000230034001E0351002D00421F
:10393000006500720072007900200048007A0020C3
:10394000002000230035001E0351002D00420065B9
:1039500000720072007900200048007A00200020E8
:1039600000230036001E0351002D00420065007246
:103970000072007900200048007A00200020002317
:103980000037001E0351002D0042006500720072D6
:10399000007900200048007A002000200023003831
:1039A000001E0351002D0042006500720072007974
:1039B00000200048007A0020002000230039001673
:1039C000035100420057002000760031002E0030E5
:1039D00000760020000600FF0901A101190129401D
:1039E0001501254075089540810019012940910075
:1039F000C0303859385D387538BF3959385D38931B
:103A000038BF3959385D38B138BF3959385D38CF8A
:103A100038BF3959385D38ED38BF3959385D380B02
:103A200039BF3959385D382939BF3959385D384778
:103A300039BF3959385D386539BF3959385D3883F0
:0B3A400039BF3959385D38A139BF3952
:013A4B00007A
:043A4C000001606BAA
:103A5000616B626B636B646B656B1200D9CFE6FFC1
:103A6000E1CFD9FF020EE126FD0EDBCFE6FFFE0E11
:103A7000DBCFE6FF2CEC23F0E552E5520001645168
:103A8000F324146E6551F420156E7E0E145C000E46
:103A9000155801E372D0DE6ADD6ADECF14F0DDCFA7
:103AA00015F014C0E6FF15C0E6FFFD0EDBCFE6FF04
:103AB000FE0EDBCFE6FF2CEC23F0E552E552E5529B
:103AC000E7CF15F0E552E7CF14F0F3CF16F0F4CFBF
:103AD00017F01650145C1750155828E2FD0EDBCF76
:103AE00014F0FE0EDBCF15F0DE501424E96EDD502D
:103AF0001520EA6EEF50E66E660E00016225E96E53
:103B0000000E6321EA6EE552E750EF6E010E62256A
:103B1000626F000E6321636F636B629F642B000E04
:103B20006523DF2A010E01E3DB2AB7D7660E000109
:103B30006225E96E000E6321EA6E0D0EEF6E010E36
:103B40006225626F000E6321636F636B629F642B5B
:103B5000000E6523660E6225E96E000E6321EA6E93
:103B60000A0EEF6E010E6225626F000E6321636F15
:103B7000636B629F642B000E6523020EE15C02E220
:103B8000E16AE552E16EE552E7CFD9FF1200D9CFE5
:103B9000E6FFE1CFD9FF040EE126DE6ADD6A00010F
:103BA0003F0ED8806455000E655504E23F0EDE6E70
:103BB000DD6A04D064C0DEFF65C0DDFFDECF14F037
:103BC000DDCF15F01406000E155AFD0EDBCFE9FF10
:103BD000FE0EDBCFEAFF14C0EFFF6451651140E039
:103BE000010EF36E020EF3CFDBFF030EDB6A020E53
:103BF000DBCF14F0030EDBCF15F0DECF16F0DDCFF8
:103C000017F01650145C175015582AE2660E6025FE
:103C1000E96E000E6121EA6EEF50E66E020EDBCF18
:103C200014F0030EDBCF15F0FD0EDB501424E96E0B
:103C3000FE0EDB501520EA6EE552E750EF6E010EE6
:103C40006025606F000E6121616F616B609F64078A
:103C5000000E655B020EDB2A030E01E3DB2AC7D7E9
:103C6000040EE15C02E2E16AE552E16EE552E7CF63
:043C7000D9FF120066
:0C3C7400D9CFE6FFE1CFD9FF020EE12618
:103C80002E0EDF6E010EDB6A0201100EE16F270EB1
:103C9000E26FE36BE46BDF6BE06B050EE0AF02D02D
:103CA000D89003D0DF5D000EE05975E2E1C20BF061
:103CB000E2C20CF0E3C20DF0E4C20EF0FB0EDBCF6B
:103CC00006F0FC0EDBCF07F0FD0EDBCF08F0FE0E9A
:103CD000DBCF09F0E4EC24F006C0C3F2E1C20BF044
:103CE000E2C20CF0E3C20DF0E4C20EF0FB0EDBCF3B
:103CF00006F0FC0EDBCF07F0FD0EDBCF08F0FE0E6A
:103D0000DBCF09F0E4EC24F0FB0E02C0DBFFFC0E7D
:103D100003C0DBFFFD0E04C0DBFFFE0E05C0DBFFB2
:103D200035EC25F0000901E0FBD7300E0201C32578
:103D3000E66E6BEC24F0E5520201010EDF1901E1A1
:103D4000E0510DE135EC25F0000901E0FBD7D9CFBA
:103D5000E6FFDACFE6FFBDEC24F0E552E5520A0EAD
:103D60000B6E0C6A0D6A0E6AE1C206F0E2C207F041
:103D7000E3C208F0E4C209F0E4EC24F006C0E1F28A
:103D800007C0E2F208C0E3F209C0E4F20201DF2B4F
:103D9000000EE02382D7020EE15C02E2E16AE55206
:103DA000E16EE552E7CFD9FF1200D9CFE6FFE1CFB0
:103DB000D9FFFD0EDBCFBCF2FE0EDBCFBDF2020160
:103DC000D890BC37BD37BCC214F0BDC215F0166A1E
:103DD000176A15AE02D01668176814C0E6FF15C042
:103DE000E6FF16C0E6FF17C0E6FF44DFE552E552E6
:0C3DF000E552E552E552E7CFD9FF120082
:043DFC00D9CFE6FF36
:103E0000DACFE6FFFA0EE3CFD9FFFB0EE3CFDAFFFE
:103E1000FD0EE35209E72D0EDE6EFC0EE31EE32AD3
:103E2000FD0ED8B4E306E31EE652E652E652FD0E5E
:103E3000E124E76EFF0EE220E46EE652F70EE3CFD8
:103E4000E6FFF70EE3CFE6FF6EEC1FF0F90EE1247C
:103E5000E96EFF0EE220EA6E5EEC1FF00AE15BEC19
:103E60001FF009E15EEC1FF008E15BEC1FF007E1D9
:103E700008D069EC1FF064EC1FF069EC1FF064ECF3
:103E80001FF069EC1FF0DE6AF90EE126FF0EE22258
:103E9000FF0EE3CFDAFFE552FF0EE3CFD9FFE55285
:103EA000FC0EE124E96EFF0EE220EA6EEECFF3FF96
:103EB000EFCFF4FF1200EF380F0B1200EF500F0B93
:103EC00002E1EE52D8841200EF380F0B300FDE6E95
:103ED0001200EE500F0B300FDE6E1200FC0EE3CF1F
:103EE000E9FFFD0EE3CFEAFF100EE66EEE6AEE6A22
:103EF000EF6AD890FD0EE336FE0EE336ED36ED3672
:103F0000EF36FF0EE30609E08FEC1FF0EE528FEC68
:103F10001FF0EE528FEC1FF0EDD7E56E1200030E8E
:103F2000EF24E8B6EF6E300EEF24E8BEEF6E000C23
:103F3000120EE66E89EC25F0E5521200010EE66ED7
:103F400089EC25F0E5521200010EE66E89EC25F0B1
:103F5000E552120035EC25F0000901E0FBD7010E17
:103F6000E66E94EC24F0E5521200D9CFE6FFE1CFE3
:103F7000D9FFF00E81169316939C939A93988A9C7E
:103F80008A9A8A98DBDF300EE66E94EC24F0E552D4
:103F9000050EE66E08EC25F0E552300EE66E94EC68
:103FA00024F0E552010EE66E08EC25F0E552320EE3
:103FB000E66E94EC24F0E55235EC25F0000901E0C2
:103FC000FBD735EC25F0000901E0FBD7280EE66EA3
:103FD00094EC24F0E55235EC25F0000901E0FBD724
:103FE000080EE66E94EC24F0E55235EC25F000095D
:103FF00001E0FBD70C0EE66E94EC24F0E552AADF4C
:1040000035EC25F0000901E0FBD7060EE66E94ECD6
:1040100024F0E55235EC25F0000901E0FBD7800ED5
:10402000E66E40EC24F0E55200D0E552E7CFD9FF30
:0240300012007C
:0E403200D9CFE6FFE1CFD9FF020EE1262E0E18
:10404000DF6E010EDB6A0201B80EEA6F0B0EEB6F3A
:10405000EC6BED6BEE6BEE5107082AE3D950FB0FCA
:10406000E96EFF0EDA20EA6EEA51EE5CEB51EE5893
:10407000EC51EE58ED51EE5801E21AD00A0E0B6EDB
:104080000C6A0D6A0E6AEAC206F0EBC207F0ECC2D7
:1040900008F0EDC209F0A1EC23F002C0EAF203C07F
:1040A000EBF204C0ECF205C0EDF20201EE2BD3D727
:1040B000EE51EA6AE60FE96E000EEA22EFCFDFFF6B
:1040C00035EC25F0000901E0FBD7D9CFE6FFDACFC8
:1040D000E6FFBDEC24F0E552E5520201EE51EA6A3A
:1040E000F00FE96E000EEA22EFCFDFFF35EC25F08E
:1040F000000901E0FBD7D9CFE6FFDACFE6FFBDEC40
:1041000024F0E552E55235EC25F0000901E0FBD73B
:10411000FA0EE66E000EE66EBDEC24F0E552E552B6
:10412000020EE15C02E2E16AE552E16EE552E7CFA0
:04413000D9FF1200A1
:0C413400040120511F0B010801E068D0BD
:10414000245101E065D0060E215D25E12351230AAB
:1041500021E0010A11E0030A01E01DD00101D105AF
:104160000AE10101420EE16F380EE26F090EE46FC1
:10417000E56BC00EE36F0FD00101D1050AE101012B
:10418000D50EE16F390EE26F1C0EE46FE56BC00EC9
:10419000E36F01D000D004012051600BE842E842F7
:1041A000E842E842E842010801E032D021510B0A1E
:1041B00029E0080A1CE0090A14E0080A07E00B0AD3
:1041C00004E0080A01E024D023D022D00101FE0E31
:1041D000E16F010EE26F010EE46FE56BC10EE36F5C
:1041E00017D00101800EE36F23C4FEF111D001014D
:1041F000FF0EE16F010EE26F010EE46FE56B810EC1
:10420000E36F06D00101800EE36F22C4FFF100D0FE
:0242100012009A
:0E421200D9CFE6FFE1CFD9FF030EE126310E32
:10422000DF6EDE522F0EDD6E020EDB6A35EC25F0FE
:10423000000901E0FBD7D9CFE6FFDACFE6FFBDECFE
:1042400024F0E552E552E50EE66E020EE66EFB0E38
:10425000DBCFE6FFFC0EDBCFE6FFFEEC1EF0E55207
:10426000E552E552E552E50EE66E020EE66EBDEC55
:1042700024F0E552E5520201E96BE951146E156A2A
:10428000040E145C000E15580BE2E951EA6AE50FC2
:10429000E96E020EEA22EF5001E102D0E92BEDD7E0
:1042A000E951146E156A040ED8801456000E155686
:1042B00014C0E9F2E951000808E2200EE66E6BEC4A
:1042C00024F0E5520201E907F5D7030EE15C02E2B2
:0E42D000E16AE552E16EE552E7CFD9FF120038
:0242DE00D9CF36
:1042E000E6FFE1CFD9FFE652FE0EDB50A96EFD0ED0
:1042F000DB50A86EA69EA69CA684F250DF6EF26AE2
:10430000550EA76EAA0EA76EA682DF50F26E0000B1
:10431000A1B802D00000FCD7A694A198E552E552BE
:10432000E7CFD9FF1200D9CFE6FFE1CFD9FFFE0ECC
:10433000DB50A96EA69EA69CA680A85000D0E55290
:10434000E7CFD9FF1200FDC0E6FFEDDFE55200D058
:104350001200D9CFE6FFE1CFD9FF000EF36EFE0EBB
:10436000DBCFF4FFF350F45C0DE3FE0EDB500908E5
:1043700009E3FE0EDBCFE6FFFDC0E6FFB0DFE5524E
:0C438000E5520000E552E7CFD9FF120023
:04438C00D9CFE6FFA0
:10439000DACFE6FFE1CFD9FFE2CFDAFFE652E6520D
:1043A000E652E652D950F90F146EFF0EDA20156E60
:1043B000020E14C0DBFF030E15C0DBFF020EDBCFC5
:1043C000E6FF030EDBCFE6FFF90EDBCFE6FFFA0ECA
:1043D000DBCFE6FFFB0EDBCFE6FFD950FC0FE66E2E
:1043E000FF0EDA20E66EEBEC12F0146E070EE15CC5
:1043F00002E2E16AE552E16E1450F3CFDEFFF4CF42
:10440000DDFFFC0EDBCFE9FFFD0EDBCFEAFFEF6A3D
:10441000DECF14F0DDCF15F014C0F3FF15C0F4FFAC
:10442000040EE15C02E2E16AE552E16EE552E5CF9D
:08443000DAFFE7CFD9FF12000B
:084438004F4F5053202D204985
:104440006E76616C696420636F6D6D616E6420309F
:104450007825582030782558203078255820307815
:104460002558203078255820307825582066726FDE
:104470006D20686F73742E005049445F4745542087
:104480002D203078255820746F20686F73742E00AB
:104490005553422044657669636520496E697469A5
:1044A000616C697365642E002843293230313420F1
:1044B00044617669642051756573656E62657272D8
:1044C00079202D20687474703A2F2F7777772E51CA
:0F44D0004279746573576F726C642E636F6D0061
:1044E000006A0EAE79EF22F00D6C0E1EE86A0E2205
:1044F000001E09AE81EF22F0086C091EE86A09224D
:10450000001E1FEC25F009BE91EF22F000AE000C5A
:10451000086C091EE86A0922046C051EE86A052277
:10452000000C00BE88EF22F00188FF0C09C013F0D8
:1045300008C012F008500D02F4CF07F0F3CF06F0D8
:1045400009500E02F4CF09F0F3CF08F00D02F3503A
:104550000726F4500822E86A092212500E02F3508E
:104560000726F4500822E86A09220EAEBCEF22F0BA
:104570001250085E1350095A13AE000C0D50085E1D
:064580000E50095A000C68
:0A4586002A0EF66E100EF76E000EFE
:10459000F86E02010900F550D66F0900F550D76F8B
:1045A00003E1D66701D03DD00900F550D16F090075
:1045B000F550D26F0900F550D36F09000900F5508E
:1045C000E96E0900F550EA6E090009000900F5508E
:1045D000D46F0900F550D56F09000900F6CFD8F265
:1045E000F7CFD9F2F8CFDAF2D1C2F6FFD2C2F7FF95
:1045F000D3C2F8FF0201D45302E1D55307E009000A
:10460000F550EE6ED407F8E2D507F9D7D8C2F6FF19
:10461000D9C2F7FFDAC2F8FF0201D607000ED75B56
:04462000BFD71200EE
:0C462400FE0EE3CFE9FFFF0EE3CFEAFF3C
:10463000E9CFF3FFEACFF4FFFB0EE35003E1FC0EFA
:10464000E35009E0FB0EE30602E2FC0EE306FD0E7A
:10465000E350EE6EF1D71200FE0EE3CFE9FFFF0E3E
:10466000E3CFEAFFF36AF46AEE5203E0F34AF42A76
:10467000FBD71200FF0EE3CFF8FFE552FF0EE3CFAA
:10468000F7FFE552FF0EE3CFF6FFE552E66AE66A72
:10469000E66A0900F55209E0FD0EE32A05E1FE0E87
:1046A000E32A02E1FF0EE32AF4D7FD0EE3CF07F081
:0E46B000FE0EE3CF08F0FF0EE3CF09F012007C
:0246BE00D9CF52
:1046C000E6FFDACFE6FFE1CFD9FFE2CFDAFFFB0E5C
:1046D000DBCF14F0FC0EDBCF15F00001800E1514BB
:1046E0001AE1FB0EDBCFE9FFFC0EDBCFEAFFEECFDA
:1046F000F3FFEDCFF4FFEE2A000EEF22F3CFE9FF38
:10470000F4CFEAFFFD0EDBCFEFFFEF50156AF36E3B
:1047100015C0F4FF10D0FB0EDB50FE0806E1FD0EC5
:10472000DBCFE6FF7BEC25F005D0FD0EDBCFE6FF0F
:10473000BEEC25F0E552E552E5CFDAFFE7CFD9FF31
:02474000120065
:0E47420006500B02F3CF02F0F4CF03F00C028E
:10475000F3500326000EF420046E06500D02F350B1
:104760000426000EF420056E06500E02F3500526B6
:1047700007500B02F3500326F4500422000E0522CA
:1047800007500C02F3500426F450052207500D0286
:10479000F350052608500B02F3500426F45005226E
:1047A00008500C02F350052609500B02F350052661
:0247B0001200F5
:0E47B200D9CFE6FFDACFE6FFE1CFD9FFE2CFA5
:1047C000DAFFC26AC06AFC0EDB407F0B3C0BC26E94
:1047D000FC0EDB38F00B300B146EFB0EDB500F0BB6
:1047E0001410C16EFD0EDB50040DF350380B156E26
:1047F000FD0EDB380F0B070B146EFD0EDB50800B2C
:1048000014101510C06EFC0EDBAE03D09E9C9D8C68
:10481000F28CC280E552E5CFDAFFE7CFD9FF120074
:10482000800ED56E160ED76E180ED66ED59ED59C00
:10483000D59AD598D596F80ED5140009D56ED08E98
:10484000F28CF28EF28EF28CF184F28A1200CD9EFE
:10485000CD9CCF0ECD140009CD6ECD96CD84CD82EA
:10486000CD909F909D801200DBDF27EF24F0D59E36
:10487000CD901200F9DFCE6ACF6AD58ECD801200BE
:10488000D9CFE6FFDACFE6FFE1CFD9FFE2CFDAFFFB
:10489000F00E93168116FD0EDB508009E8380F0BE1
:1048A0000F0B81128A9C8A9A0FD8F00E8116FD0E8A
:1048B000DB500F0B811208D80F0E9312E552E5CF93
:1048C000DAFFE7CFD9FF120098EC1FF08A8898EC46
:0648D0001FF08A9812009F
:0A48D600D9CFE6FFDACFE6FFE1CF0D
:1048E000D9FFE2CFDAFFF00E93168116FD0EDB380A
:1048F0000F0B0F0B81128A8A8A9C0FD8F00E81163B
:10490000FD0EDB500F0B811208D80F0E9312E552EB
:10491000E5CFDAFFE7CFD9FF120098EC1FF08A88C5
:0849200098EC1FF08A981200C8
:08492800D9CFE6FFDACFE6FF6C
:10493000E1CFD9FFE2CFDAFFF00E93168116FD0E1C
:10494000DB380F0B0F0B81128A9C8A9A0FD8F00E5E
:104950008116FD0EDB500F0B811208D80F0E93123B
:10496000E552E5CFDAFFE7CFD9FF120098EC1FF050
:0A4970008A8898EC1FF08A98120064
:06497A00D9CFE6FFDACF01
:10498000E6FFE1CFD9FFE2CFDAFF16D80FE035EC32
:1049900025F00009FCE110D8E66E6BEC24F0E5523E
:1049A000FC0EDB2AFD0EF1E3DB2AEFD7E552E5CF63
:1049B000DAFFE7CFD9FF1200FC0EDBCFE9FFFD0ED7
:0849C000DBCFEAFFEF5012000B
:0849C800056A046A036A026A31
:1049D000200EE76ED89006360736083609360236BE
:1049E0000336043605360B50025C0C5003580D504C
:1049F00004580E50055809E30B50025E0C50035A40
:104A00000D50045A0E50055A062AE72EE4D712001C
:104A1000FF0EE350296EEF0E01D0F30EE76EE72E86
:104A20000FEF25F00C0E286EE76AE72E15EF25F044
:0E4A3000282E14EF25F0292E0DEF25F0120090
:024A3E00056A07
:104A4000046A100EE76ED89008360936043605362B
:104A50000D50045C0E50055805E30D50045E0E50D9
:0A4A6000055A082AE72EF0D71200CD
:064A6A008A8C8A9A98EC88
:104A70001FF08A8898EC1FF081A602D003D8010CA1
:104A800001D8000C8A9898EC1FF08A8898EC1FF0E7
:064A90008A988A9C1200C6
:0A4A9600F36AF46AFF0EE124E96EF2
:104AA000FF0EE220EA6EED6607D02F0EEF6404D011
:0A4AB0003A0EEF6001D0F32A120065
:064ABA00000EF36E00EE99
:104AC00000F0080E01D81200EA6002D0EE6AFCD7AE
:0A4AD000F350E9601200EE6AFCD713
:064ADA0013EE00F023EED4
:104AE00000F0F86A019CC3EC22F0BFEC25F0C3ECA7
:064AF00000F0FBD71200EC
:0A4AF600FF0EE350ACBA04D0AF6A23
:104B0000AB8EAC8A949CACA2FED7AD6EF36EF46A09
:024B1000120091
:0E4B1200FF0EE350296E1B0E00D001D0200EC6
:0E4B2000E76EE72EFED7292EFAD700D012003E
:024B2E00FF0E78
:104B3000E350E84E1200000000D000D000D0E82E74
:044B4000FAD712008E
:0C4B4400C450176E166AC3501610F36EB2
:064B500017C0F4FF120083
:0A4B56003031323334353637383948
:074B600061626364656600F9
:084B6800C250020B01E0010E36
:024B7000120031
:064B7200C2909D9C1200A0
:044B7800C2821200E3
:024B7C00120025
:024B7E00120023
:104B8000512D427974657320576F726C642E004802
:104B90007A20436F756E7465722076312E30760000
:104BA000000000000A00005142572076312E307676
:104BB00020512D426572727920487A2020233F517E
:104BC0002D426572727920487A20202330512D427F
:104BD0006572727920487A20202331512D42657206
:104BE000727920487A20202332512D4265727279E1
:104BF00020487A20202333512D4265727279204853
:104C00007A20202334512D426572727920487A200F
:104C1000202335512D426572727920487A20202355
:104C200036512D426572727920487A2020233751FF
:104C30002D426572727920487A20202338512D4206
:104C40006572727920487A20202339000000000024
:104C5000640A202020204B4B4B4D4D4D4700487A95
:104C600020002D2D2D3E4E6F20696E7075743C2DE9
:104C70002D2D0000000000000000000000070100D2
:104C80000001000000010203040506070202020100
:104C900002030405060708030303000000000000E8
:104CA00000000102030000000000000000060708E9
:044CB0000000000000
:0A4CB4006442200000000000000030
:024CBE00455659
:104CC0002020205655533F004C4C4C4D48484848F6
:054CD0003F004620003A
:020000040030CA
:0100000027D8
:0100010006F8
:010002003FBE
:010003001EDE
:01000500807A
:010006008178
:010008000FE8
:01000900C036
:01000A000FE6
:01000B00E014
:01000C000FE4
:01000D0040B2
:00000001FF
