:020000040000FA
:060000008AEF06F0120079
:0600080004EF08F01200F5
:060018000CEF08F01200DD
:02001E000100DF
:0C002000300D00006000000055000000E2
:04002C00DACFE4FF44
:10003000E2CFDAFFE652E552E5CFDAFF1100D8CF82
:10004000E4FFE0CFE4FFE46EDACFE4FFE2CFDAFFD3
:10005000E652E552E5CFDAFFE550E5CFE0FFE5CF28
:10006000D8FF100007D89BEC08F047EC04F071D8DB
:10007000FAD712000F0EC112F19E848E04D8B5EC8F
:1000800003F00FEF08F0928492869288928A938010
:100090009382938493869388938A938C938E8150D2
:1000A000100B01E0010E04014F6F8150200B01E0A5
:1000B000010E506F8050200B01E0010E516F8050F7
:1000C000100B01E0010E526F8050080B01E0010E91
:1000D000536F8050040B01E0010E546F8150010BEF
:1000E000576F8150020B01E0010E586F8150040BD5
:1000F00001E0010E596F8150080B01E0010E5A6FAB
:100100008150200B01E0010E5C6F8150400B01E03B
:10011000010E5D6F8150800B01E0010E5E6F9580D6
:100120009582958495869588958A958C958E835031
:10013000010B556F8350020B01E0010E566F616B8E
:1001400061C460F461C45FF4626B636B646B656B84
:100150001200200E0001E76EB519E8AE02D0E734B8
:1001600002D0E750B55D03E36D50020B01E002D011
:1001700002D886D8120004016251631102E1000E18
:1001800008D062C4E9FF63C4EAFFEF50800B01E0CE
:10019000010E000942E1616B61C460F461C45FF467
:1001A0003DD8F3CF0DF0F4CF0EF00DC0E6FF0EC03A
:1001B000E6FF4BD8E552E7CF0EF0E552E7CF0DF062
:1001C0000D50F3100B6E0E50F4100C6E0BC05FF45C
:1001D0007BEC04F0EAC060F4EBC061F483BE04D0B1
:1001E0000401010E606F616F5FC443F460C444F4A6
:1001F00061C445F4030EE66E430EE66E040EE66E31
:10020000010EE66EE66E85EC10F00B6E050EE15EFB
:100210000B50F3CF62F4F4CF63F412008350010B60
:100220000401555D0EE08350010B556F83B009D07A
:100230000001B1510B6E0C6A0BC0F3FF0CC0F4FF50
:1002400003D0F36AF46A00D012008350020B01E07D
:10025000010E0401565D10E08350020B01E0010E17
:10026000566F83B209D00001B2510B6E0C6A0BC0FD
:10027000F3FF0CC0F4FF03D0F36AF46A00D012005D
:1002800004016451651102E1000E08D064C4E9FF65
:1002900065C4EAFFEF50800B01E0010E000901E0A8
:1002A00014D10401476B486B496B4A6B4B6B4C6B29
:1002B0004D6B4E6B9ED9F3CF47F4020E0001B36F26
:1002C000B46B1FD9F350E66E470E0001B325E96EFB
:1002D000040EB421EA6EE552E750EF6E470EB325E7
:1002E000E96E040EB421EA6EEF5003E0B32B000E6A
:1002F000B42316D9F350E66E470E0001B325E96E1C
:10030000040EB421EA6EE552E750EF6E470EB325B6
:10031000E96E040EB421EA6EEF5003E0B32B000E39
:10032000B4230DD9F350E66E470E0001B325E96EF4
:10033000040EB421EA6EE552E750EF6E470EB32586
:10034000E96E040EB421EA6EEF5003E0B32B000E09
:10035000B42304D9F350E66E470E0001B325E96ECD
:10036000040EB421EA6EE552E750EF6E470EB32556
:10037000E96E040EB421EA6EEF5003E0B32B000ED9
:10038000B423FBD8F350E66E470E0001B325E96EA7
:10039000040EB421EA6EE552E750EF6E470EB32526
:1003A000E96E040EB421EA6EEF5003E0B32B000EA9
:1003B000B423F2D8F350E66E470E0001B325E96E80
:1003C000040EB421EA6EE552E750EF6E470EB325F6
:1003D000E96E040EB421EA6EEF5003E0B32B000E79
:1003E000B423E9D8F350E66E470E0001B325E96E59
:1003F000040EB421EA6EE552E750EF6E470EB325C6
:10040000E96E040EB421EA6EEF5003E0B32B000E48
:10041000B423E0D8F350E66E470E0001B325E96E31
:10042000040EB421EA6EE552E750EF6E470EB32595
:10043000E96E040EB421EA6EEF5003E0B32B000E18
:10044000B423ECD8F350E66E470E0001B325E96EF5
:10045000040EB421EA6EE552E750EF6E470EB32565
:10046000E96E040EB421EA6EEF5003E0B32B000EE8
:10047000B423E3D8F350E66E470E0001B325E96ECE
:10048000040EB421EA6EE552E750EF6E470EB32535
:10049000E96E040EB421EA6EEF5003E0B32B000EB8
:1004A000B423080EE66E470EE66E040EE66E010EED
:1004B000E66E020EE66E85EC10F00B6E050EE15E48
:1004C0000B50F3CF64F4F4CF65F400D012008150E8
:1004D000200B01E0010E0401505D09E08150200B6A
:1004E00001E0010E506F81BA02D0010E02D0000E61
:1004F00000D0120081B802D0010E02D0000E00D050
:10050000120080BA09D00001A7510B6E0C6A0BC013
:10051000F3FF0CC0F4FF03D0F36AF46A00D01200BA
:1005200080B809D00001A6510B6E0C6A0BC0F3FF16
:100530000CC0F4FF03D0F36AF46A00D0120080B656
:1005400009D00001A5510B6E0C6A0BC0F3FF0CC063
:10055000F4FF03D0F36AF46A00D0120080B409D02B
:100560000001A4510B6E0C6A0BC0F3FF0CC0F4FF2A
:1005700003D0F36AF46A00D0120081B009D0000100
:1005800084510B6E0C6A0BC0F3FF0CC0F4FF03D058
:10059000F36AF46A00D0120081B209D000016F51F1
:1005A0000B6E0C6A0BC0F3FF0CC0F4FF03D0F36AB0
:1005B000F46A00D0120081B409D0000166510B6EBC
:1005C0000C6A0BC0F3FF0CC0F4FF03D0F36AF46AAB
:1005D00000D0120081B609D0000165510B6E0C6A83
:1005E0000BC0F3FF0CC0F4FF03D0F36AF46A00D031
:1005F000120081BA09D00001AA510B6E0C6A0BC01F
:10060000F3FF0CC0F4FF09D00001A8510B6E0C6A77
:100610000BC0F3FF0CC0F4FF00D0120081BC09D066
:10062000000185510B6E0C6A0BC0F3FF0CC0F4FF88
:1006300003D0F36AF46A00D0120081BE09D0000131
:1006400087510B6E0C6A0BC0F3FF0CC0F4FF03D094
:10065000F36AF46A00D012001200120012001200B5
:1006600080EF05F012001A0EE66E010EE66EDEEC6B
:100670000FF0E552E5521A0EE66E020EE66EDEEC63
:100680000FF0E552E55212000001D9051EE100010C
:10069000DA051BE1E2DF6D920001DA6B0401100E56
:1006A000666F0E0E676F6607000E675B6651671117
:1006B000FAE16D84080E666F070E676F6607000E1D
:1006C000675B66516711FAE16D941200D9CFE6FFBE
:1006D000E1CFD9FFFD0EDBCF06F0FE0EDBCF07F03A
:1006E000050E061801E1075039E0E868061802E136
:1006F0007F0E071831E0030E061801E107502AE0CB
:10070000020E061801E1075023E0010E061801E170
:1007100007501CE0740E061801E1075015E0750E35
:10072000061801E107500EE0730E061801E10750AC
:1007300007E0720E061801E1075001E010D00FD05B
:100740008DDF0DD089DF0BD088DF09D08CDF07D09B
:1007500089DF05D085DF03D082DF01D000D0010E14
:0A07600000D0E552E7CFD9FF1200E8
:06076A001200D9CFE6FFEA
:10077000E1CFD9FFFD0EDBCFE9FFFE0EDBCFEAFFB5
:10078000EE52EF50E840E8403F0B0B6EFD0EDBCF22
:10079000E9FFFE0EDBCFEAFFEF500B100001ED6F1B
:1007A000ED51040A3AE0060A38E0090A36E0060A82
:1007B00034E00C0A10E0060A0EE0090A0CE0060A12
:1007C0000AE0080A07E0050A05E00F0A03E0050A47
:1007D00001E046D045D0FD0EDBCFE9FFFE0EDBCFBA
:1007E000EAFF020EE926000EEA22EFCF0BF07E0EA2
:1007F000E76E0B18E8AE02D0E73402D0E7500B5C8E
:100800000BE2FD0EDBCFE9FFFE0EDBCFEAFF020EAF
:10081000E926000EEA22EF2A23D0FD0EDBCFE9FF06
:10082000FE0EDBCFEAFF020EE926000EEA22EFCF32
:100830000BF0820EE76E0B18E8AE02D00B3403D03B
:10084000E750D8800B540BE2FD0EDBCFE9FFFE0E24
:10085000DBCFEAFF020EE926000EEA22EF0600D007
:10086000FD0EDBCFE9FFFE0EDBCFEAFFEF50E66EB9
:10087000FD0EDBCFE9FFFE0EDBCFEAFFEE52E552C5
:10088000E750EF6E00D0E552E7CFD9FF1200845059
:10089000E8240C0B0001EE6F8250040DF3500C0B9A
:1008A000F26F82380F0B0C0BF66FFC6BFD6B030EB7
:1008B000FDAF02D0D89003D0FC5D000EFD591AE2C6
:1008C000FCC00BF0FDC00CF0D8900B360C36D89065
:1008D0000B360C36EE0E0B26000E0C220BC0E6FF7C
:1008E0000CC0E6FF43DFE552E5520001FC2B000E91
:1008F000FD23DDD712000001FC6BFD6B030EFDAF85
:1009000002D0D89003D0FC5D000EFD595CE2FCC023
:10091000E9FFFDC0EAFFD890E936EA36D890E9361B
:10092000EA36EE0EE926000EEA22020EE926000E55
:10093000EA22EF50E66EEA0EFC25E96E000EFD217C
:10094000EA6EE552E750EF6EFCC0E9FFFDC0EAFF3A
:10095000D890E936EA36D890E936EA36EE0EE9263E
:10096000000EEA22020EE926000EEA22EF50E66EA1
:10097000FCC0E9FFFDC0EAFFD890E936EA36D8901E
:10098000E936EA36EE0EE926000EEA22030EE926E3
:10099000000EEA22E552E750EF6EFCC0E9FFFDC011
:1009A000EAFFD890E936EA36D890E936EA36EE0E14
:1009B000E926000EEA22020EE926000EEA22EF6A7C
:0809C000FC2BFD239BD7120064
:0809C80012010002000000080A
:1009D000D8040000030001020001090242000201E4
:1009E00000C03209040000010301020009211101C5
:1009F0000001223200070581030300010904010000
:100A00000103010100092111010001223F00070536
:100A1000820308000107050203080001040309041A
:100A200034034D006900630072006F0063006800CA
:100A300069007000200054006500630068006E00CB
:100A40006F006C006F0067007900200049006E00A5
:100A500063002E00320351002D0042006500720039
:100A60007200790020002D0020004D006F007500FD
:100A7000730065002F004B006500790062006F0075
:100A800061007200640005010902A1010901A100D1
:100A90000509190129031500250195037501810236
:100AA0009501750581010501093009311581257F01
:100AB000750895028106C0C005010906A101050758
:100AC00019E029E7150025017501950881029501B6
:100AD000750881039505750105081901290591021D
:100AE00095017503910395067508150025650507A1
:0F0AF000190029658100C0DA091C0A200A540A7E
:100B0000040130511F0B010801E08AD0345103E089
:100B1000340501E085D0060E315D45E13351230AED
:100B200041E0010A21E0030A01E03DD00001B605E1
:100B30001AE1040134510AE10001EC0ECB6F090EF9
:100B4000CC6F090ECE6FCF6BC00ECD6F0401340594
:100B50000AE10001050ECB6F0A0ECC6F090ECE6FB5
:100B6000CF6BC00ECD6F1FD00001B6051AE1040196
:100B700034510AE10001860ECB6F0A0ECC6F320EA3
:100B8000CE6FCF6BC00ECD6F040134050AE10001BA
:100B9000B80ECB6F0A0ECC6F3F0ECE6FCF6BC00E70
:100BA000CD6F01D000D004013051600BE842E84223
:100BB000E842E842E842010801E032D031510B0A34
:100BC00029E0080A1CE0090A14E0080A07E00B0AF9
:100BD00004E0080A01E024D023D022D00001FE0E58
:100BE000CB6F000ECC6F010ECE6FCF6BC10ECD6FF1
:100BF00017D00001800ECD6F33C4FEF011D000017C
:100C0000FF0ECB6F000ECC6F010ECE6FCF6B810E3F
:100C1000CD6F06D00001800ECD6F32C4FFF000D042
:020C20001200C0
:0E0C22001E0EF66E000EF76E000EF86E040148
:100C30000900F5506D6F0900F5506E6F03E16D67A7
:100C400001D03DD00900F550686F0900F550696F7B
:100C50000900F5506A6F09000900F550E96E0900B6
:100C6000F550EA6E090009000900F5506B6F0900A4
:100C7000F5506C6F09000900F6CF6FF4F7CF70F4F0
:100C8000F8CF71F468C4F6FF69C4F7FF6AC4F8FFCF
:100C900004016B5302E16C5307E00900F550EE6E5E
:100CA0006B07F8E26C07F9D76FC4F6FF70C4F7FF63
:100CB00071C4F8FF04016D07000E6E5BBFD7120010
:100CC000FE0EE3CFE9FFFF0EE3CFEAFFE9CFF3FF2C
:100CD000EACFF4FFFB0EE35003E1FC0EE35009E022
:100CE000FB0EE30602E2FC0EE306FD0EE350EE6EA1
:040CF000F1D7120026
:0C0CF400000EF36E00EE00F0080E01D8B8
:100D00001200EA6002D0EE6AFCD7F350E9601200EC
:040D1000EE6AFCD7B4
:0C0D140013EE00F023EE00F0F86A0A9CD9
:100D200011EC06F003EC08F032EC00F0FBD71200F7
:100D30000405060708090A0B0C0D0E0F10111213FB
:100D40001415161718191A1B1C1D1E1F20212223EB
:100D50002425262728292A2B2C2D2E2F30313233DB
:100D6000363738393A3B3C3D3E3F404142434445AB
:100D70004A4B4C4E4F505152000102040810204083
:050D80008001020200E9
:061000008AEF06F0120069
:021006001200D6
:0610080016EF00F01200DB
:061018001FEF00F01200C2
:02101E00D9CF28
:10102000E6FFE1CFD9FFE652A09A6A6A686A706A61
:10103000020EE66EE66AE66A710EE66E0F0EE66E68
:1010400060EC06F00B6E050EE15E0B50160E6F6E37
:101050009F0E6B6E7B0E696EDF6ADF500B6E0C6A43
:101060000C0E0B5C000E0C5810E2DF50040DF3CF99
:10107000E9FFF4CFEAFF000EE926040EEA22EE6A49
:10108000EE6AEE6AEE6ADF2AE8D76D8C6E6A6D98BA
:101090006D9C68A607D068960001CD6BD26BD36BB0
:1010A000D46BF7D70001010EE66FE76FE86BE96BD1
:1010B000DA6BDF6A030EDF5C26E2EA6ADF34FE0BDE
:1010C000EA36E96EC30EE926000EEA22EE6AED6A00
:1010D000EA6ADF34FE0BEA36E96EBD0EE926000E41
:1010E000EA22EE6AED6ADF50EA6ADE0FE96E000E70
:1010F000EA22EF6ADF50EA6AE10FE96E000EEA22A7
:10110000EF6ADF2AD7D70001080EC36F040EC46F41
:10111000160E706E0401300E026F040E036F080E7F
:10112000016F840E006F0001B66BB56BE552E5529E
:10113000E7CFD9FF1200D9CFE6FFE1CFD9FFE652C2
:101140000001B55116E106D06D6A696A0001B56B00
:10115000A19AB9D06D6A696A160E6F6E9F0E6B6E9A
:101160007B0E696E6DB602D06D86FCD70001010E54
:10117000B56FB50508E16DBA06D0686A696A69801D
:101180006988020EB56F6850040B05E06950040BC6
:1011900002E06894CBD86DA202D0A19A94D0685096
:1011A000010B08E06950010B05E039DF0001040E76
:1011B000B56F68906850100B05E06950100B02E0A5
:1011C000A0D8689868AC19D069AC0FD0010EE66E53
:1011D000E66A000EE66EE66A730EE66EE66A66EC96
:1011E00003F00B6E060EE15E0B50689C0001E451AB
:1011F00001E0E407E45101E165DB6850200B04E005
:101200006950200B01E064D86850020B13E069506C
:10121000020B10E0010EE66EE66A000EE66EE66A6C
:10122000E6687F0EE66E66EC03F00B6E060EE15E7E
:101230000B506A6A040E0001E76EB519E8AE02D0E1
:10124000E73402D0E750B55D02E2A19A3CD069A62E
:1012500039D0DF6A040EDF5C35E268A630D06CCF8F
:10126000DBF00001DB51780BE842E842E842DC6F3A
:101270006896DBB508D0DC51EA6AE10FE96E000E32
:10128000EA22EF7007D0DC51EA6ADE0FE96E000E49
:10129000EA22EF70DC5102E160D810D0000EE66E59
:1012A000E66ADB0EE66E000EE66E720EE66EE66A2B
:1012B00066EC03F00B6E060EE15E0B5001D002D01F
:1012C000DF2AC8D7A19AE552E552E7CFD9FF12002D
:1012D00070A015D0B9C0E9FFBAC0EAFFEF5080088E
:1012E0000DE1C3C0E9FFC4C0EAFFEF50840806E186
:1012F000B9C0E9FFBAC0EAFF8C0EEF6E7090689A31
:101300001200698468986D820001010EDA6F000E88
:10131000E66EE66AE66EE66A750EE66EE66A66EC0C
:1013200003F00B6E060EE15E0B5012000001DA6B4B
:10133000000EE66EE66AE66EE66A740EE66EE66A31
:1013400066EC03F00B6E060EE15E0B506D92699435
:1013500068A402D06894FCD71200D9CFE6FFE1CF91
:10136000D9FFE65200012D0EE46FFD0EDB1553E1AF
:101370007E0EDB15E8407F0B040DF3CFB9F0F4CF00
:10138000BAF0000EB927040EBA23B9C0BBF0BAC038
:10139000BCF0BB75B9C0E9FFBAC0EAFFEF503C0B27
:1013A000E842E8420D0835E1DF6A080EDF5C23E21F
:1013B000B9C0E9FFBAC0EAFF020EE926000EEA2230
:1013C000EE50EFCFEAFFE96EEF50E66EDF50EA6ACB
:1013D000300FE96E040EEA22E552E750EF6EB9C015
:1013E000E9FFBAC0EAFF020EE926000EEA22EE2A61
:1013F000EF22DF2ADAD7B9C0E9FFBAC0EAFF020E4E
:10140000E926000EEA22300EEE6E040EED6E0DD8C7
:1014100001D03AD805D0FD0EDB15040801E15AD8F9
:10142000E552E552E7CFD9FF12000001C96BE56B29
:10143000E86BE96BDD6BCA6BC3C0E9FFC4C0EAFFB0
:10144000EF9EC375C3C0E9FFC4C0EAFFEF9EC3753A
:10145000BBC0E9FFBCC0EAFFEF9ECD6BCE6BCF6B8C
:10146000D26BD36BD46B90D8000EE66EE66AE66E54
:10147000E66A030EE66EE66A66EC03F00B6E060E95
:10148000E15E0B50B4EF0DF0020E0001CA5D03E106
:1014900077EC0EF01ED0CA6BDD511AE1BBC0E9FF3C
:1014A000BCC0EAFFEE52080EEF6EBBC0E9FFBCC045
:1014B000EAFF020EE926000EEA22300EEE6E040E5E
:1014C000ED6EBBC0E9FFBCC0EAFF8C0EEF6E01D031
:1014D000DD6B1200D9CFE6FFE1CFD9FFE652C3C0E2
:1014E000E9FFC4C0EAFFEF50400B01E0010EDF6EE0
:1014F0000001C375080EB55D09E132C46EFF6E5080
:1015000003E0100EB56F02D0040EB56FCA0528E1D6
:10151000C3C0E9FFC4C0EAFF020EE926000EEA22BA
:10152000380EEE6E040EED6E80DB020E0001C95D1A
:1015300007E1C3C0E9FFC4C0EAFF840EEF6E0FD01D
:10154000DF5007E1C3C0E9FFC4C0EAFFC80EEF6E79
:1015500006D0C3C0E9FFC4C0EAFF880EEF6E0FD00B
:10156000D2AF0CD0D551D61107E005D0D6C0FAFFC6
:101570000001D551F96EFADF0001D29FCA6BE55226
:10158000E552E7CFD9FF120004013051600BE84269
:10159000E842E842E842E842000901E059D031510E
:1015A0000C0A55E00B0A44E00C0A36E0010A27E079
:1015B0000B0A23E0020A21E0030A1DE0080A11E0F9
:1015C000010A0CE00F0A08E0030A01E040D0000124
:1015D000CD8F080EB56F3CD006DA3AD017EC0FF07D
:1015E00037D00001B60ECB6F000ECC6FCD81010E4F
:1015F000CE6FCD8F2DD057DA2BD02BD829D03451A8
:101600000001CB6FCC6BB70ECB27000ECC23CD8166
:10161000010ECE6FCD8F1CD00001CD8F040134514F
:10162000EA6AB70FE96E000EEA2232C4EFFF10D06B
:10163000000EE66EE66AE66EE66A020EE66EE66AA0
:1016400066EC03F00B6E060EE15E0B5001D000D08D
:101650001200D9CFE6FFE1CFD9FF030EE126040146
:10166000320510E130511F0B00090CE10001CD8F54
:10167000030E0401315D04E10001010ED96F02D0B7
:101680000001D96B0401325101E012D130511F0B1E
:10169000020801E00DD134510F0B000901E108D11E
:1016A00034510F0B020801E203D1200E0001B55D99
:1016B00001E0FED0CD8F040134BF1AD034510F0B9E
:1016C000E96EEA6AD890E936EA36BD0EE926000EE0
:1016D000EA22EECFDEFFEDCFDDFF34510F0BEA6AD9
:1016E000E10FE96E000EEA22020EEFCFDBFF19D008
:1016F00034510F0BE96EEA6AD890E936EA36C30E28
:10170000E926000EEA22EECFDEFFEDCFDDFF3451F9
:101710000F0BEA6ADE0FE96E000EEA22020EEFCF2F
:10172000DBFFD950020FE96EDACFEAFFEF50010B71
:1017300003E1000EDF9401D0DF8434BF10D03451B8
:101740000F0BE96EEA6AD890E936EA36BD0EE92653
:10175000000EEA22DECFEEFFDDCFEDFF0FD03451D9
:101760000F0BE96EEA6AD890E936EA36C30EE9262D
:10177000000EEA22DECFEEFFDDCFEDFF030E315D7E
:1017800023E1DECFE9FFDDCFEAFFEF50800B13E06E
:1017900034BF09D034510F0BEA6AE10FE96E000E35
:1017A000EA22EF8208D034510F0BEA6ADE0FE96EAD
:1017B000000EEA22EF82840E0B6EDECFE9FFDDCF52
:1017C000EAFF0B50EF1274D0DF74DECFE9FFDDCFFC
:1017D000EAFFEF50800B1BE0DECFE9FFDDCFEAFF31
:1017E000EF9EDECFE9FFDDCFEAFFEF8C020EE66E63
:1017F000E66ADECFE6FFDDCFE6FF050EE66EE66ABF
:1018000066EC03F00B6E060EE15E0B5005D0DECFEA
:10181000E9FFDDCFEAFFEF8CDF74D950020FE96EEC
:10182000DACFEAFFEF50020B0EE1DECFE9FFDDCFAA
:10183000EAFFEF50800B34E0DECFE9FFDDCFEAFFB7
:10184000EF50040B2DE1040134BF09D034510F0BCC
:10185000EA6AE10FE96E000EEA22EF9208D03451F5
:101860000F0BEA6ADE0FE96E000EEA22EF923B0EE2
:101870000B6EDECFE9FFDDCFEAFF0B50EF16020E55
:10188000E66EE66ADECFE6FFDDCFE6FF050EE66E2A
:10189000E66A66EC03F00B6E060EE15E0B5008D0B4
:1018A0003B0E0B6EDECFE9FFDDCFEAFF0B50EF16EC
:1018B000030EE15C02E2E16AE552E16EE552E7CF38
:1018C000D9FF12000001E6514DE1010EE66FE7512C
:1018D00049E1010EE76F020ECA5D0DE1C3C0E9FFE9
:1018E000C4C0EAFFEE52EF6AC3C0E9FFC4C0EAFF1A
:1018F000C80EEF6E37D0CA0535E1DD6BB9C0E9FF20
:10190000BAC0EAFFEE52080EEF6EB9C0E9FFBAC0E6
:10191000EAFF020EE926000EEA22300EEE6E040EF9
:10192000ED6EB9C0E9FFBAC0EAFF840EEF6E010E9A
:10193000DD6FBBC0E9FFBCC0EAFFEE52080EEF6EE0
:10194000BBC0E9FFBCC0EAFF020EE926000EEA2296
:10195000300EEE6E040EED6EBBC0E9FFBCC0EAFFB8
:10196000800EEF6E12000001E86BE96B020ECA5D9B
:101970001AE1BBC0E9FFBCC0EAFFEE52080EEF6EF1
:10198000BBC0E9FFBCC0EAFF020EE926000EEA2256
:10199000380EEE6E040EED6EBBC0E9FFBCC0EAFF70
:1019A000C80EEF6E1FD0CE510401365D0001CF513D
:1019B0000401375904E236C4CEF037C4CFF035D92C
:1019C000C3C0E9FFC4C0EAFF020EE926000EEA2206
:1019D000380EEE6E040EED6EC3C0E9FFC4C0EAFF20
:1019E000C80EEF6E1200800E0401305D5BE1000155
:1019F000C00ECD6F04013351030A34E0010A0EE03A
:101A0000030A03E00001CD6B4DD00001C80ECB6F7F
:101A1000090ECC6F120ECE6FCF6B44D03251F66EE2
:101A2000F76AD890F636F736F70EF6260A0EF72242
:101A30000900F5CFCBF00A00F5CFCCF0020E000183
:101A4000F76ACB25F66ECC51F7220800F5CFCEF021
:101A5000030EF76ACB25F66ECC51F7220800F5CFBE
:101A6000CFF020D0030E325D1AE23251F66EF76AE3
:101A7000D890F636F736F90EF6260A0EF722090048
:101A8000F5CFCBF00A00F5CFCCF0CBC0F6FFCCC041
:101A9000F7FF0800F5500001CE6FCF6B02D00001B8
:101AA000CD6B00D01200D9CFE6FFE1CFD9FF020EF7
:101AB000E1260401386B396B30511F0B020A12E02A
:101AC000030A0DE0010A01E03BD00001CD8F0401C3
:101AD00038810001D90502E10401388331D00001C9
:101AE000CD8F2ED00001CD8F040134BF10D03451E2
:101AF0000F0BE96EEA6AD890E936EA36BD0EE926A0
:101B0000000EEA22EECFDEFFEDCFDDFF0FD0345125
:101B10000F0BE96EEA6AD890E936EA36C30EE92679
:101B2000000EEA22EECFDEFFEDCFDDFFDECFE9FFD4
:101B3000DDCFEAFFEF50040B02E0010E386F00D05A
:101B40000001CDAF07D0380ECB6F040ECC6FCD8126
:101B5000020ECE6F020EE15C02E2E16AE552E16E36
:101B6000E552E7CFD9FF12006D980001CDBF2BD011
:101B7000D2AF09D0020ECA6FE95101E1F4DE0001D3
:101B8000E76BE66B1FD0BBC0E9FFBCC0EAFFEE52BB
:101B9000080EEF6EBBC0E9FFBCC0EAFF020EE926EB
:101BA000000EEA22300EEE6E040EED6EBBC0E9FFB1
:101BB000BCC0EAFF8C0EEF6EC3C0E9FFC4C0EAFFF1
:101BC000840EEF6E31D0040130AF0DD00001010E54
:101BD000CA6FE85101E1C7DE0001E76BE66BE55132
:101BE00001E170DE21D00001020ECA6FBBC0E9FF27
:101BF000BCC0EAFFEE52080EEF6EBBC0E9FFBCC0EE
:101C0000EAFF020EE926000EEA22300EEE6E040E06
:101C1000ED6EBBC0E9FFBCC0EAFF840EEF6EE76B60
:101C2000E66BE55101E14EDE1200D9CFE6FFE1CFD0
:101C3000D9FFE652080EDF6E0001CE5D000ECF59CF
:101C40000BE2CEC0DFFFC95103E1010EC96F04D022
:101C5000C90502E1020EC96FDF500B6E0C6A0B5012
:101C6000CE5DCE6F0C50CF59CF6FC3C0E9FFC4C05B
:101C7000EAFFEE52DFCFEFFF380ED76F040ED86FBA
:101C8000CDB119D0DF5016E0CBC0F6FFCCC0F7FFC6
:101C9000CB2B000ECC230800F550E66ED7C0E9FF31
:101CA000D8C0EAFFD72B000ED823E552E750EF6EDD
:101CB000DF06E8D717D0DF5015E0CBC0E9FFCCC076
:101CC000EAFFCB2B000ECC23EF50E66ED7C0E9FF26
:101CD000D8C0EAFFD72B000ED823E552E750EF6EAD
:101CE000DF06E9D7E552E552E7CFD9FF1200D9CF99
:101CF000E6FFE1CFD9FF020EE126B9C0E9FFBAC085
:101D0000EAFFEE52EFCFDFFFDFCF0BF00B50000109
:101D1000D35D000ED45902E2D3C0DFFFDF500B6E5B
:101D20000C6A0B50D35DD36F0C50D459D46F010E95
:101D3000DB6ADF50F36E010EDBCFF4FFF350F45C8F
:101D400016E2010EDB50EA6A380FE96E040EEA2251
:101D5000EF50E66ED0C0E9FFD1C0EAFFD02B000EF5
:101D6000D123E552E750EF6E010EDB2AE2D7000ED9
:101D7000D880D355000ED45528E2BBC0E9FFBCC0C3
:101D8000EAFFEE52080EEF6EBBC0E9FFBCC0EAFFEF
:101D9000020EE926000EEA22380EEE6E040EED6EFB
:101DA000B9C0E9FFBAC0EAFFEF50400B07E1BBC082
:101DB000E9FFBCC0EAFFC80EEF6E06D0BBC0E9FF6A
:101DC000BCC0EAFF880EEF6E28D0BBC0E9FFBCC0E4
:101DD000EAFFEE52080EEF6EBBC0E9FFBCC0EAFF9F
:101DE000020EE926000EEA22300EEE6E040EED6EB3
:101DF000BBC0E9FFBCC0EAFF840EEF6ED551D6111F
:101E000007E005D0D6C0FAFF0001D551F96EFADF20
:101E10000001D29FE55101E155DD020EE15C02E2D5
:101E2000E16AE552E16EE552E7CFD9FF1200D9CF62
:101E3000E6FFE1CFD9FFE6520001CD8F020EE66E3C
:101E4000E66AE66A710EE66E0F0EE66E60EC06F06C
:101E50000B6E050EE15E0B50DF6ADF500B6E0C6AF5
:101E60000C0E0B5C000E0C5810E2DF50040DF3CF8B
:101E7000E9FFF4CFEAFF000EE926040EEA22EE6A3B
:101E8000EE6AEE6AEE6ADF2AE8D76D8C020EE66E25
:101E9000E66AE66AB70EE66E000EE66E60EC06F0E5
:101EA0000B6E050EE15E0B506D9C0001080EC36FBA
:101EB000040EC46F000EB96F040EBA6FB9C0BBF048
:101EC000BAC0BCF032C4B6F0B65103E1100EB56F23
:101ED00013D0010EE66EE66AB60EE66E000EE66EF2
:101EE000010EE66EE66A66EC03F00B6E060EE15E2E
:101EF0000B500001200EB56FE552E552E7CFD9FF38
:101F00001200D9CFE6FFE1CFD9FF020EE126000E85
:101F1000DE6E040EDD6EFD0EDB50E8240D6EFE0E4F
:101F2000DB50040DF3500D24040DF3CF0BF0F4CF70
:101F30000CF0D9CFE9FFDACFEAFF0B50EE260C50B8
:101F4000ED22DECFE9FFDDCFEAFFEF9EFD0EDB5095
:101F50000FE1FE0EEA6ADB34FE0BEA36E96EBD0ED7
:101F6000E926000EEA22DECFEEFFDDCFEDFF0ED038
:101F7000FE0EEA6ADB34FE0BEA36E96EC30EE92692
:101F8000000EEA22DECFEEFFDDCFEDFFDECFE9FF70
:101F9000DDCFEAFFEF9CDECFE9FFDDCFEAFF040EE5
:101FA000E926000EEA22EF8C020EE15C02E2E16A11
:101FB000E552E16EE552E7CFD9FF1200D9CFE6FF37
:101FC000E1CFD9FF020EE126FD0EDBA407D0E66AC1
:101FD000FE0EDBCFE6FF95DFE552E552FD0EDBA2FC
:101FE00008D0010EE66EFE0EDBCFE6FF8ADFE5527B
:101FF000E552FE0EDB500C6A700F0B6E0F0E0C22BA
:102000000BC0DEFF0CC0DDFFDECFE9FFDDCFEAFF56
:10201000FD0EDBCFEFFF020EE15C02E2E16AE5526A
:10202000E16EE552E7CFD9FF1200D9CFE6FFE1CF4D
:10203000D9FF020EE126FE0EDB5020E1BBC0E9FF16
:10204000BCC0EAFFEE52080EEF6EBBC0E9FFBCC099
:10205000EAFF020EE926000EEA22300EEE6E040EB2
:10206000ED6EBBC0E9FFBCC0EAFF8C0EEF6EC3C0D3
:10207000E9FFC4C0EAFF840EEF6E3DD0FD0EDB50D9
:10208000E8240D6EFE0EDB50040DF3500D24040DFC
:10209000F3CF0BF0F4CF0CF0000E0B26040E0C2245
:1020A0000BC0DEFF0CC0DDFF840E0B6EDECFE9FF40
:1020B000DDCFEAFF0B50EF12FD0EDB50E8240D6E72
:1020C000FE0EDB50040DF3500D24010F040DF3CF71
:1020D0000BF0F4CF0CF0000E0B26040E0C220BC0FC
:1020E000DEFF0CC0DDFF840E0B6EDECFE9FFDDCF1F
:1020F000EAFF0B50EF12020EE15C02E2E16AE552E8
:10210000E16EE552E7CFD9FF1200D9CFE6FFE1CF6C
:10211000D9FF020EE126FD0EDB500FE0FE0EEA6A4B
:10212000DB34FE0BEA36E96EC30EE926000EEA2226
:10213000EECFDEFFEDCFDDFF0ED0FE0EEA6ADB3420
:10214000FE0BEA36E96EBD0EE926000EEA22EECF5E
:10215000DEFFEDCFDDFFD9CFE9FFDACFEAFFEE50AA
:10216000ED1003E1F36AF46A49D0DECFE9FFDDCF79
:10217000EAFF020EE926000EEA22FB0EDBCFEEFF9D
:10218000FC0EDBCFEDFFDECFE9FFDDCFEAFFEE5245
:10219000FA0EDBCFEFFF400E0B6EDECFE9FFDDCF97
:1021A000EAFF0B50EF16880E0B6EDECFE9FFDDCF96
:1021B000EAFF0B50EF12FD0EDB500CE0FE0EEA6A58
:1021C000DB34FE0BEA36E96EC30EE926000EEA2286
:1021D000EF740BD0FE0EEA6ADB34FE0BEA36E96ED2
:1021E000BD0EE926000EEA22EF74DECF0BF0DDCF44
:1021F0000CF00BC0F3FF0CC0F4FF00D0020EE15C4A
:1022000002E2E16AE552E16EE552E7CFD9FF120042
:10221000D9CFE6FFE1CFD9FF6DA84ED0FE0EEA6A16
:10222000DB34FE0BEA36E96EC30EE926000EEA2225
:10223000EE50EFCFEAFFE96E400EEE16EE6AEE6A60
:10224000EE6AFE0EEA6ADB34FE0BEA36E96EC30E76
:10225000E926000EEA22EE50EFCFEAFFE96EEE7CAF
:10226000FE0EEA6ADB34FE0BEA36E96EC30EE9269F
:10227000000EEA22EF74400E0B6EFE0EEA6ADB34AB
:10228000FE0BEA36E96EC30EE926000EEA22EE5096
:10229000EFCFEAFFE96E0B50EF16FE0EEA6ADB3471
:1022A000FE0BEA36E96EC30EE926000EEA22EE5076
:1022B000EFCFEAFFE96EEF7CE552E7CFD9FF1200DE
:020000040030CA
:0100000027D8
:0100010004FA
:010002003EBF
:010003001EDE
:010005008179
:010006008178
:010008000FE8
:01000900C036
:01000A000FE6
:01000B00E014
:01000C000FE4
:01000D0040B2
:00000001FF
