:020000040000FA
:0600000031EF1EF01200BA
:0600080004EF08F01200F5
:080018000CEF08F01200DACF32
:10002000E4FFE652E552E5CFDAFF1100D8CFE4FF56
:10003000E0CFE4FFE46EDACFE4FFE2CFDAFFE9CF0E
:10004000E4FFEACFE4FFF6CFE4FFF7CFE4FFF8CF19
:10005000E4FFF5CFE4FFF3CFE4FFF4CFE4FFFACF02
:10006000E4FFFBCFE4FF00EE00F0140EE80403E32E
:10007000EECFE4FFFBD700EE14F0070EE80403E335
:10008000EECFE4FFFBD7E652F250200B0DE0F2502A
:10009000040B0AE0480ED76EE50ED66EF292F2948B
:1000A00082EC17F001019069E55200EE1AF0070E9C
:1000B000E80403E3E5CFEDFFFBD700EE13F0140EE9
:1000C000E80403E3E5CFEDFFFBD7E5CFFBFFE5CF8A
:1000D000FAFFE5CFF4FFE5CFF3FFE5CFF5FFE5CF7E
:1000E000F8FFE5CFF7FFE5CFF6FFE5CFEAFFE5CF75
:1000F000E9FFE5CFDAFFE550E5CFE0FFE5CFD8FF38
:10010000100095D896EC19F08B900201E86BE96B22
:100110000E0EE9AF02D0D89003D0E85D000EE95989
:1001200043E29DEC1CF0090A36E0010A30E00F0AB8
:100130002AE0010A24E0030A1EE0010A18E0070A87
:1001400012E0010A0CE0030A06E0010A28E11C0E95
:1001500023DB020E27D02A0E1FDB020E23D0380E1F
:100160001BDB020E1FD0460E17DB020E1BD0540EF7
:1001700013DB020E17D0620E0FDB020E13D0700ECF
:100180000BDB020E0FD07E0E07DB020E0BD08C0EA7
:1001900003DB020E07D09A0EFFDA020E03D00E0E1A
:1001A000FBDA020EE8DAB4D7B66BDCDA0201E86BF0
:1001B000E96B0A0EE9AF02D0D89003D0E85D000EDB
:1001C000E95906E2040EE825E96E020ED4DAF1D709
:1001D000B26BC8DA210EE66E370EE66E000EE5DA77
:1001E000090EE66E370EE66E000EDFDAABEC15F0A8
:1001F000E6688EEC17F0E552880ED56E480ED76E85
:10020000E50ED66ED08EF28CF28EF28EF28CF194D8
:10021000F28A0A0ECB6E040ECA6E050EBE6E1C0E5E
:10022000BD6E78EC08F01AD8ACEC16F0FAD70F0EC9
:10023000C16E926AC00E936E946A806A816A826A05
:1002400002D828EF08F0010E8916020E921692824B
:100250000201006B016B026B036B1200200E0101A7
:10026000E76EC419E8AE02D0E73402D0E750C45DAF
:1002700003E36D50020B01E0EDD1020100510111C9
:1002800002E1000E08D000C2E9FF01C2EAFFEF5010
:10029000800B01E0010E000901E0DCD1100E050128
:1002A000005D26E0810E0501005D22E0820E050161
:1002B000005D1EE08BA01CD005010051E66EE66AD1
:1002C000E80EE66E360EE66E000EE66EA80EE66EE0
:1002D000020EE66E14EC1CF0146E070EE15E145074
:1002E000A80EE66E020EE66E9EEC19F0E552E5529F
:1002F00005010051EE0A01E14CD1110A01E11CD1C6
:10030000FF0A01E1DED0820A01E1B2D0030A01E175
:1003100084D0010A01E17FD0040A76E0CD0A60E0D2
:10032000010A56E0580A01E051D1400EE66E050E72
:10033000E66EF7EC19F0E552E552020102510311A5
:1003400002E1000E08D002C2E9FF03C2EAFFEF504B
:10035000800B01E0010E00093AE199EC17F0010869
:1003600022E19CEC17F0E00EE66E360EE66E000E13
:10037000E66EA80EE66E020EE66E14EC1CF0146E2D
:10038000050EE15E1450A80EE66E020EE66E9EECBF
:1003900019F0E552E552400EE66E050EE66EF7ECFA
:1003A00019F0E552E552400EE66E400EE66E050E7F
:1003B000E66E010EE66E010EE66EEAEC0DF0146ECE
:1003C000050EE15E1450F3CF02F2F4CF03F22FD109
:1003D000040E0501015D02E1898A01D0899A27D1C5
:1003E000899689980501010502E189860CD0020EE3
:1003F0000501015D02E1898806D0030E0501015D5A
:1004000002E18986898813D10501015102E18994AD
:1004100001D089840CD18B700AD18150800B01E00E
:10042000010E0501406F02010251031102E1000EAD
:1004300008D002C2E9FF03C2EAFFEF50800B01E0DF
:10044000010E000914E1400EE66E400EE66E050E48
:10045000E66E010EE66E010EE66EEAEC0DF0146E2D
:10046000050EE15E1450F3CF02F2F4CF03F2DFD0B9
:100470008B50010B0501406F02010251031102E193
:10048000000E08D002C2E9FF03C2EAFFEF50800B62
:1004900001E0010E000914E1400EE66E400EE66E2A
:1004A000050EE66E010EE66E010EE66EEAEC0DF04C
:1004B000146E050EE15E1450F3CF02F2F4CF03F296
:1004C000B6D0000EE66E050EE66E3DEC17F0E55276
:1004D000E5528BA030D005010551E66EE66A0501B4
:1004E0000451E66EE66A05010351E66EE66A05010F
:1004F0000251E66EE66A05010151E66EE66A050103
:100500000051E66EE66AAD0EE66E360EE66E000E41
:10051000E66EA80EE66E020EE66E14EC1CF0146E8B
:10052000110EE15E1450A80EE66E020EE66E9EEC11
:1005300019F0E552E5527BD001C5E6FFA2EC1CF0B4
:10054000E5528BA024D09DEC1CF0E66EE66A050116
:100550000151E66EE66A05010051E66EE66A880E14
:10056000E66E360EE66E000EE66EA80EE66E020E23
:10057000E66E14EC1CF0146E0B0EE15E1450A80E27
:10058000E66E020EE66E9EEC19F0E552E552FF00B3
:100590004ED09DEC1CF0E66EE66A700EE66E360EEE
:1005A000E66E000EE66EA80EE66E020EE66E14EC27
:1005B0001CF0146E070EE15E1450A80EE66E020EDB
:1005C000E66E9EEC19F0E552E55231D00501055179
:1005D000E66EE66A05010451E66EE66A050103511E
:1005E000E66EE66A05010251E66EE66A0501015112
:1005F000E66EE66A05010051E66EE66A300EE66ECA
:10060000360EE66E000EE66EA80EE66E020EE66E82
:1006100014EC1CF0146E110EE15E1450A80EE66E80
:10062000020EE66E9EEC19F0E552E55200D0400E47
:10063000E66E000EE66E050EE66EE66A010EE66EEA
:10064000EAEC0DF0146E050EE15E1450F3CF00F2EB
:10065000F4CF01F212001200120012001200ACEFEF
:100660001BF012001E0EE66E010EE66EBAEC0DF0E7
:10067000E552E552400EE66E000EE66E050EE66EA1
:10068000E66A010EE66EEAEC0DF08AD8F3CF00F2CE
:10069000F4CF01F212000101E5051EE10101E605BA
:1006A0001BE1DADF6D920101E66B0201100EEA6FC9
:1006B0000E0EEB6FEA07000EEB5BEA51EB11FAE16D
:1006C0006D84080EEA6F070EEB6FEA07000EEB5B16
:1006D000EA51EB11FAE16D941200D9CFE6FFE1CFB8
:1006E000D9FFFD0EDBCF08F0FE0EDBCF09F0E86886
:1006F000081802E17F0E09182FE0030E081801E127
:10070000095028E0020E081801E1095021E0010E0D
:10071000081801E109501AE0740E081801E10950A7
:1007200013E0750E081801E109500CE0730E08186B
:1007300001E1095005E0720E08180FE109500DD0D3
:100740008CDF0BD088DF09D087DF07D08BDF05D0A7
:1007500088DF03D084DF01D081DF010EE552E7CFCF
:10076000D9FF1200A80EE66E020EE66E9EEC19F09E
:10077000E552E5521200E921EA6EEF50E66EA80E4E
:10078000E825E96E020EE921EA6EE552E750EF6EC8
:10079000E82B000EE92312000201E825E96E1200A1
:1007A000146E050EE15E14501200E66EA80EE66EA1
:0E07B000020EE66E14EC1CF0F3DFB2EF03F065
:0610000031EF1EF01200AA
:061008000FEF00F01200E2
:0610180016EF00F01200CB
:06102A000300AB3C0000D6
:10103000F302000001000000E43C00000002000098
:10104000A8000000B03C0000900100003400000047
:101050005EEC0FF0A09A6A6A686A706ABFEC0EF0E4
:1010600004EC0FF0DF6AF5EC0EF003E2A5EC0EF0F5
:10107000FAD76D8C6E6A6D986D9C68A607D06896DD
:101080000101D86BDD6BDE6BDF6BF7D70101010E61
:10109000F06FF16FF26BF36BE66BDF6A020EDF5CF1
:1010A00011E2EA6ADF3461EC0FF0EA22EE6AED6ADF
:1010B000EA6ADF3468EC0FF0EA22EE6AED6AB5EC1A
:1010C0000EF0ECD70101080ECF6F040ED06F160E94
:1010D000706E0401200E026F040E036F080E016F84
:1010E000840E006F0101C56BC46BE5527FEF0EF0FB
:1010F0005EEC0FF00101C4510BE16D6A696A04EC0A
:101100000FF06DB602D06D86FCD70101010EC46FE1
:10111000C40508E16DBA06D0686A696A69806988A1
:10112000020EC46F6850040B05E06950040B02E026
:10113000689497D86DB244D06850010B08E06950AC
:10114000010B05E085DF0101040EC46F6890685053
:10115000100B05E06950100B02E078D8689868AC75
:101160000FD069AC05D00BEC0FF0730E43EC0EF012
:10117000689C0101EE5101E0EE07EE5101E149DA10
:101180006850200B04E06950200B01E04CD86850F7
:10119000020B0BE06950020B08E00BEC0FF0E66865
:1011A0007F0EE66E6FEC0FF06A6A040E0101E76EC7
:1011B000C419E8AE02D0E73402D0E750C45D02E2C1
:1011C000A19A2ED069A62BD0DF6A040EDF5C27E23D
:1011D00068A625D06CCFE7F10101E751780BE84212
:1011E000E842E842E86F6896E7B504D0E8517DEC44
:1011F0000FF003D0E85182EC0FF0EA22EF70E851D3
:1012000002E13DD80AD0000EE66EE66AE70EE66E11
:10121000010EE66E720E43EC0EF0DF2AD6D7A19ACD
:10122000E5527FEF0EF070A00FD08BEC0EF0EF5078
:10123000800809E175EC0EF0EF50840804E18BECB6
:101240000EF08C0EEF6E7090689A120069846898A8
:101250006D820101010EE66FDBEC0EF0750E43EFBF
:101260000EF00101E66BDBEC0EF0740E43EC0EF0B9
:101270006D92699468A402D06894FCD712005EEC69
:101280000FF001012D0EEE6FFD0EE71540E17E0E11
:10129000E715E8407F0B040DF3CFC7F1F4CFC8F199
:1012A000000EC727040EC823C7C1C9F1C8C1CAF1BF
:1012B000C9758BEC0EF0EF503C0BE842E8420D088C
:1012C00024E1DF6A080EDF5C1AE28BEC0EF0020EFE
:1012D000E926000EC8EC0EF0EF50E66EDF50EA6A29
:1012E000200FE96E040EEA22E552E750EF6E8BEC18
:1012F0000EF091EC0FF0EE2AEF22DF2AE3D78BEC11
:101300000EF02AEC0FF00BD807D029D805D0FD0E2F
:10131000E715040801E133D8E5527FEF0EF0010133
:10132000D36BEF6BF26BF36BE96BD46B75EC0EF078
:10133000EF9ECF7575EC0EF0EF9ECF7519EC0FF0A8
:10134000EF9ED86BD96BDA6BDD6BDE6BDF6B5CD835
:10135000DBEC0EF0030E43EC0EF07EEF0CF0020E11
:101360000101D45D02E1EDEF0CF0D46BE95105E130
:101370003AEC0EF08C0EEF6E1200E96B12005EEC90
:101380000FF075EC0EF0EF50400B01E0010EDF6E38
:101390000101CF75080EC45D08E122C46EFF6E50D6
:1013A00002E0100E01D0040EC46FD40518E175ECF4
:1013B0000EF090EC0EF0CFDA020E0101D35D04E1E5
:1013C00075EC0EF0840E09D0DF5004E175EC0EF0E0
:1013D000C80E03D075EC0EF0880EEF6E12D0DDAFA4
:1013E0000FD0E051E111E21109E007D0E2C1FBFFAB
:1013F000E1C1FAFF0101E051F96EF8DF0101DD9F63
:10140000D46BE5527FEF0EF004012051600BE842EF
:10141000E842E842E842E842000901E012002151B6
:101420000C0A46E00B0A3FE00C0A31E0010A22E018
:101430000B0A1EE0020A1CE0030A18E0080A10E08A
:10144000010A0CE00F0A08E0030A01E012000101A2
:10145000D88F080EC46F12004DEF0BF054EF0DF053
:101460000101C50ED56F010ED66F0CD043EF0CF005
:1014700059EF0AF024510101D56FD66BC60ED5275E
:10148000010ED623D881010ED96FD88F1200010129
:10149000D88F04012451EA6AC60FE96E010EEA22D0
:1014A00022C4EFFF1200DBEC0EF0020E43EF0EF051
:1014B00012007AEC0EF0050EE1260401220510E17F
:1014C00020511F0B00090CE10101D88F030E04010C
:1014D000215D04E10101010EE56F02D00101E56B20
:1014E0000401225101E08ED020511F0B020801E0BF
:1014F00089D024510F0B000901E184D024510F0B36
:10150000010801E27FD0200E0101C45D01E07AD024
:10151000D88F040124BF07D045EC0FF0E1EC0EF0AA
:10152000E7EC0EF006D04AEC0FF0E1EC0EF0EBEC3D
:101530000EF0EA22020EEFCFDBFF12EC0FF0010BF0
:1015400003E1000EDF9401D0DF8424BF03D045EC1B
:101550000FF002D04AEC0FF0EA22DECFEEFFDDCF33
:10156000EDFF030E215D10E14FEC0FF009E024BF09
:1015700003D0E7EC0EF002D0EBEC0EF0EA22EF82A3
:10158000840E96EC0FF03ED0DF744FEC0FF007E0C6
:10159000A7DBEF9EA5DBEF8C34EC0FF002D0A0DBD5
:1015A000EF8CDF7412EC0FF0020B03E14FEC0FF045
:1015B00011E0040124BF03D0E7EC0EF002D0EBEC05
:1015C0000EF0EA22EF923B0E146E87EC0FF034EC33
:1015D0000FF003D03B0E87EC0FF0040124510F0BEA
:1015E000156A700F146E0F0E1522030E14C0DBFF68
:1015F000040E15C0DBFF030EDBCFE9FF040EDBCFCB
:10160000EAFFEF90050EE15C02E2E16AE552E16E6D
:1016100076D30101F05122E1010EF06FF1511EE18C
:10162000010EF16F020ED45D07E15FDBEE52EF6A4F
:101630005CDBC80EEF6E1200D40510E1E96B6BDBCA
:10164000EE52080EEF6E67DB2AEC0FF064DB840EBF
:10165000EF6E010EE96F0EDB800EEF6E12000101DE
:10166000F26BF36B020ED45D05E18BEC0FF058DBEF
:10167000E0DB10D0D9510401265D0101DA510401EB
:10168000275904E226C4D9F127C4DAF164D92DDB45
:1016900047DB2BDBC80EEF6E1200800E0401205DCD
:1016A00001E0F0D00101C00ED86F04012351030AFC
:1016B00001E182D0010A68E0030A01E0E1D09DEC7B
:1016C0001CF0090A51E0010A48E00F0A3FE0010A54
:1016D00036E0030A2DE0010A24E0070A1BE0010AB4
:1016E00012E0030A09E0010A46E10101300ED56F5C
:1016F000300ED66F000E45D00101420ED56F300E70
:10170000D66F000E3ED00101540ED56F300ED66F4D
:10171000000E37D00101660ED56F300ED66F000E69
:1017200030D00101780ED56F300ED66F000E29D063
:1017300001018A0ED56F300ED66F000E22D0010146
:101740009C0ED56F300ED66F000E1BD00101AE0E71
:10175000D56F300ED66F000E14D00101C00ED56FBC
:10176000300ED66F000E0DD00101D20ED56F300EA7
:10177000D66F000E06D001011E0ED56F300ED66F4B
:10178000000ED76F120E76D0A50E146E320E156EA7
:10179000000E7DDA020EF626000EF722F82208006F
:1017A000F5CFD9F1A3DB030EF626000EF722F822BF
:1017B0000800F5CFDAF11200030E225D5EE29DEC27
:1017C0001CF0090A48E0010A40E00F0A38E0010A6B
:1017D00030E0030A28E0010A20E0070A18E0010AC5
:1017E00010E0030A08E0010A3CE1B40E146E320E68
:1017F000156E000E3BD0C00E146E320E156E000E2C
:1018000035D0CC0E146E320E156E000E2FD0D80EC1
:10181000146E320E156E000E29D0E40E146E320EC8
:10182000156E000E23D0F00E146E320E156E000EE3
:101830001DD0FC0E146E320E156E000E17D0080E61
:10184000146E330E156E000E11D0140E146E330E7E
:10185000156E000E0BD0200E146E330E156E000E9A
:1018600005D0A80E146E320E156E000E10DA0800A8
:10187000F5500101D96FDA6B12000101D86B12002B
:101880000101D86B1200ECDA0401286B296B20519E
:101890001F0B020A11E0030A0CE0010A1EE101011C
:1018A000D88F040128810101E50517E1040128838F
:1018B00014D00101D88F11D00101D88F040124BFA9
:1018C00002D0E3DA01D0E6DA7CDAE9DA06E008DA17
:1018D000EF50040B02E0010E286F0101D8AF07D0D2
:1018E000280ED56F040ED66FD881020ED96F020E66
:1018F000E15C02E2E16AE552E16E01D26D9801011C
:10190000D8BF0DD0DDAF09D0020ED46FF35101E185
:10191000A6DE0101F16BF06B12003EEF0FF0040147
:1019200020AF0DD00101010ED46FF25101E197DE1D
:101930000101F16BF06BEF510DE109EF0BF00101CB
:10194000020ED46F97D9840EEF6EF16BF06BEF51EE
:1019500001E15FDE1200B2DA080EDF6E0101D95D2F
:10196000000EDA590AE2D9C1DFFFD35102E1010EBC
:1019700003D0D30502E1020ED36FDF50156AE850A1
:10198000D95DD96F1550DA59DA6FAFD9EE52DFCF82
:10199000EFFF280EE36F040EE46FD8B110D0DF50D4
:1019A0001AE0D5C1F6FFD52BD6C1F7FF000ED6231E
:1019B000D7C1F8FFD7230800F550F0D9F0D7DF5092
:1019C0000AE0D5C1E9FFD6C1EAFFD52B000ED62328
:1019D000EF50E4D9F4D7E55292D142DA9CD9EE52D5
:1019E000EFCFDFFFDFCF14F014500101DE5D000EFA
:1019F000DF5902E2DEC1DFFFDF50146E156AE850E6
:101A0000DE5DDE6F1550DF59DF6F010EDB6ADF50E0
:101A1000F36E010EDBCFF4FFF350F45C16E2010E1F
:101A2000DB50EA6A280FE96E040EEA22EF50E66EF8
:101A3000DBC1E9FFDCC1EAFFDB2B000EDC23E55252
:101A4000E750EF6E010EDB2AE2D7000ED880DE559C
:101A5000000EDF550DE25FDA63D95DD9EF50400B20
:101A600003E1E7D9C80E02D0E4D9880EEF6E15D095
:101A700001D9840EEF6EE051E111E21109E007D0C7
:101A8000E2C1FBFFE1C1FAFF0101E051F96EF8DFAD
:101A90000101DD9FEF5101E1BCDD020EE15C02E2DC
:101AA000E16AE552E16E2BD109DA0101D88F67D9DD
:101AB000DF6A9BD902E249D9FCD76D8CDF6A020E3E
:101AC000DF5C02E252D9FBD7010EE66EE66AE66AF7
:101AD000C60EE66E010EEAD96D9C0101080ECF6FAD
:101AE000040ED06F000EC76F040EC86FC7C1C9F1D6
:101AF000CA6F22C4C5F1C55102E1100E0BD0010E10
:101B0000E66EE66AC50EE66E010EE66E010EBBD805
:101B10000101200EC46FE552F2D0A2D9000EDE6E94
:101B2000040EDD6E03D9040DF4CF15F0D9CFE9FF13
:101B3000DACFEAFFF350EE261550ED22D1D8EF9E12
:101B4000FD0EDB5002E1FCD801D098D8EA22DECFAE
:101B5000EEFFDDCFEDFFC4D8EF9CC2D8040EE9261E
:101B6000000EEA22EF8C020EE15C02E2E16AE5522D
:101B7000E16EC5D075D9FD0EDBA402D0E66A3DD971
:101B8000FD0EDBA203D0010EE66E37D9FE0EDB5050
:101B9000156A700F146E0F0E22D9A2D8FD0EDBCF7E
:101BA000EFFF020EE15C02E2E16AE552E16EA7D0CE
:101BB00057D9FE0EDB5002E161D905D0B7D83ED926
:101BC000B5D8010F3BD9020EE15C02E2E16AE552B1
:101BD000E16E95D045D9FD0EDB5002E04FD801D023
:101BE000AFD8EFD8D9CFE9FFDACFEAFFEE50ED104A
:101BF00003E1F36AF46A21D073D893D9FB0EDBCFEB
:101C0000EEFFFC0EDBCFEDFF6BD8EE52FA0EDBCF12
:101C1000EFFF400E7CD9880E89D9FD0EDB5002E023
:101C20002DD801D08DD8EA22EF74DECF14F0DDCFAD
:101C300015F014C0F3FF15C0F4FF020EE15C02E2E0
:101C4000E16AE552E16E5BD055D86DA812D02BD970
:101C5000400EEE16EE6AEE6AEE6A25D9EE7C0ED8DC
:101C6000EA22EF74400E146E1ED91450EF161BD9E1
:101C7000EF7C45D050D9EED819EF0FF0FE0EEA6A8E
:101C8000DB3461EF0FF0E66EE66A6FEF0FF0166E71
:101C900022C417F0186A196A030E0C6E0D6A0E6AD8
:101CA00017C007F018C008F019C009F0A2EC1AF02C
:101CB00014500424F36E15500520F46E16500620BF
:101CC000F86EF4CFF7FFF3CFF6FF0900F5CFD5F1AB
:101CD0000900F5CFD6F10800F5CFD7F176EF0FF078
:101CE000DECFE9FFDDCFEAFF1200CFC1E9FFD0C1AF
:101CF000EAFF1200D9CFE6FFE1CFD9FF1200E5528B
:101D0000E7CFD9FF120024510F0BE96EEA6AD89091
:101D1000E936EA361200C7C1E9FFC8C1EAFF12007E
:101D200000D9280EEE6E040EED6E1200FD0EDB5093
:101D3000E824166EFE0EDB50040DF350162412003C
:101D4000FE0EEA6ADB3468EF0FF0DF50040DF3CFCC
:101D5000E9FFF4CFEAFF000EE926040EEA22EE6A5C
:101D6000EE6AEE6AEE6ADF2A1200DF50CBD8EA2272
:101D7000EF6ADF50C2D8EA22EF6ADF2A1200010EB2
:101D8000E66EE66AE66A710EE66E0F0E56EF0FF02B
:101D9000EA22EE50EFCFEAFFE96E1200E66EE3C1F1
:101DA000E9FFE4C1EAFFE32B000EE423E552E7502C
:101DB000EF6EDF061200000EE66EE66AE66EE66A79
:101DC0001200EA22EECFDEFFEDCFDDFF120024513C
:101DD0000F0B7DEF0FF024510F0B82EF0FF0152248
:101DE00014C0DEFF15C0DDFF1200DF50146E156A4F
:101DF000080E145C000E15581200FE0EDBCFE6FF35
:101E00008CDEE552E5521200160E6F6E9F0E6B6E61
:101E10007B0E696E1200010EE66EE66A000EE66E3B
:101E2000E66A1200D950020FE96EDACFEAFFEF50EE
:101E30001200C9C1E9FFCAC1EAFF1200040DF3CFC5
:101E400014F0F4CF15F0000E1426040EC8DF840E33
:101E500096EF0FF066D8200EEE6E040EED6E1200B7
:101E600049DF020EE1261200020EE66EE66ADECFC0
:101E7000E6FFDDCFE6FF050E43EF0EF0FBDE8C0E36
:101E8000EF6E33DF840EEF6E12003DDFCB0EE926DE
:101E9000010E120038DFCF0EE926010E120020DFFE
:101EA000EF50800B1200EADEC8EF0EF0E66E0EEC8B
:101EB0001DF0146E050EE15E145012001BDFE65299
:101EC0001200FE0BEA36E96ECF0EE926010E120073
:101ED000FE0BEA36E96ECB0EE926010E12006DEC20
:101EE00003F0146E060EE15E14501200D5C1F6FF29
:101EF000D6C1F7FFD7C1F8FF1200EA6AEC0FE96E0E
:101F0000010E1200EA6AEA0FE96E010E1200E8DE25
:101F1000E850EF1612008DDFEE52080EEF6E19EF4B
:101F20000FF0020EE926000EEA221200D9DEE85078
:041F3000EF1212009A
:0C1F3400D6EC14F0FB0EDBCFF3FFDB0655
:101F4000F35000090AE024EC15F0FA0E8FEC15F0BE
:101F5000F3E1151CF1E1010E01D0000E05EF15F0C3
:101F6000D6EC14F03B0EE12402E3E168E652E16EA8
:101F7000010EDB6A020EDB6AF90EDBCFF6FFFA0E0A
:101F8000DBCFF7FFFB0EDBCFF8FF0800F550DF6E6D
:101F9000DF5002E129EF14F0250EDF5C02E01CEFB8
:101FA00014F0030EDB6A040EDB6A050EDB6A060E14
:101FB000DB6A070EDB6A3EEC14F02D0EDF5C0CE0F2
:101FC0002B0EDF5C09E0200EDF5C06E0230EDF5CF9
:101FD00003E0300EDF5C1AE1DF50300A14E0130A30
:101FE0000FE0030A0AE00B0A05E0060AE4E1030E2B
:101FF000DB80E1D7030EDB82DED7030EDB84DBD789
:10200000030EDB86D8D7030EDB88D5D72A0EDF5C1C
:102010001BE13AEC14F088EC14F010E0030EDB80C6
:1020200008680968130EDBCF0DF0140EDBCF0EF03D
:10203000EBEC1AF0040E06C0DBFF03D0130E71ECBC
:1020400014F03EEC14F00BD0090EDB6ADFEC14F058
:1020500003E053EC15F0FAD7090E71EC14F0030EFF
:10206000DBB0DB982E0EDF5C1BE13EEC14F02A0E99
:10207000DF5C0BE13AEC14F088EC14F003E1130E92
:10208000C3EC14F03EEC14F00BD0090EDB6ADFEC6D
:1020900014F003E053EC15F0FAD7090EC3EC14F07A
:1020A000680EDF5C07E13EEC14F0680EDF5C1DE1BA
:1020B000030E18D0740EDF5C17E07A0EDF5C14E0BC
:1020C000480EDF5C06E0540EDF5C03E05A0EDF5C76
:1020D00002E1020E07D06C0EDF5C03E06A0EDF5CEB
:1020E00004E1010E16EC15F0C9DBDF506E0A01E1C8
:1020F0007FD31E0A01E192D1200A01E18FD13F0A6C
:1021000001E149D11A0A01E146D10D0A01E143D1A9
:10211000200A01E140D13A0A01E13DD1200A01E162
:102120003AD1260A01E135D10D0A01E132D11A0A6C
:1021300001E1D9D0200A4AE0300A1FE0460A0EE049
:10214000250A01E083D3D950F90FE96EFF0EDA209A
:10215000EA6E010EEE5E000EEE5AEE5A24EC15F019
:10216000250EE66E95DB03E1151C01E169D320EC39
:1021700015F001E26BD3DB2A69D3080EDB6A040E8B
:10218000DB50010806E2040EDB04E8EC14F0DB503F
:102190008BDB080EDB5009E0030EDB50010B05E181
:1021A00072DB01E04DD3080EDB6A64DBEFCFDFFFAB
:1021B00098EC15F003E1151C01E142D320EC15F079
:1021C00001E3DB2A60DB01E141D33AD3070EDB50A8
:1021D00002080FE164EC15F0030E2BEC15F00E0E67
:1021E000EECFDBFF0F0EEECFDBFF100EEECFDBFFEF
:1021F00020D0F70EDBCF17F0F80EDBCF18F0020E71
:10220000175E000E185AF70E17C0DBFFF80E18C045
:10221000DBFF17C0E9FF18C0EAFF1BEC15F0166AD8
:102220000E0E14C0DBFF0F0E15C0DBFF100E16C024
:10223000DBFF0E0EDBCFE6FF0F0EDBCFE6FF100E4F
:10224000DBCFE6FF36EC1DF0E552E552E552130E0A
:1022500007C0DBFF140E08C0DBFF060EDB5005E0F5
:10226000130E5FEC15F001E26ADB83EC15F002E27D
:10227000130E37DB46EC15F006E0040E5FEC15F0AC
:1022800002E2050E2EDB030EDBB005D0FCDA01E026
:10229000D7D2080EDB6A090EDB6A0E0EDBCFF6FF23
:1022A0000F0EDBCFF7FF100EDBCFF8FF0800F55065
:1022B000DF6EDF5014E089EC15F011E298EC15F0B8
:1022C00003E1151C01E1BCD2BBDB01E3DB2A090EF3
:1022D000DB2AD9500E0FE96E000ECBDBE7D7D3DA3D
:1022E00001E1B4D2ADD2C6DA110EEECFDBFF120E91
:1022F000EDCFDBFF110EDBCFE6FF120EDBCFE6FFEB
:1023000028EC1DF0E552E552130EF3CFDBFF140E5F
:10231000F4CFDBFF060EDB5004E0130ED0DB01E24E
:102320000EDB83EC15F002E2130EDBDAAFDB05E027
:10233000040EC5DB02E2050ED4DA030EDBB005D0D5
:10234000A2DA01E07DD2080EDB6A090EDB6A110E0B
:10235000DBCFE9FF120EDBCFEAFFEFCFDFFFDF506D
:1023600014E0D7DB12E2E4DB03E1151C01E168D2E3
:1023700067DB01E3DB2A090EDB2A110EDB2ADBCF48
:10238000E9FF120EE8E3DB2AE6D77DDA01E15ED24F
:1023900057D2030EDB8E070EDB0410E195DB040E33
:1023A0005ADB0A0EEECFDBFF0B0EEECFDBFF0C0E7F
:1023B000EECFDBFF0D0EEECFDBFF6CD0070EDB5058
:1023C00003082CE1030EDBAE0DD0B2DA020E76DA92
:1023D000EFCF14F0156A166A176A14AE39D0156873
:1023E000166835D0F70EDBCF15F0F80EDBCF16F000
:1023F000020E155E000E165AF70E15C0DBFFF80E22
:1024000016C0DBFF15C0E9FF16C0EAFFEFCF14F0DE
:102410000A0E14C0DBFF0B0EDB6A38D0070EDB5050
:10242000020809E1030EDBAE04D059DB16AE10D072
:102430000ED055DB0DD0030EDBAE12D079DA020ED2
:102440003DDAF9DA166A176A15AE02D0166817680F
:10245000E2DA0C0E16C0DBFF0D0E17C0DBFF1AD040
:10246000F70EDBCF16F0F80EDBCF17F0020E165E7C
:10247000000E175AF70E16C0DBFFF80E17C0DBFF71
:1024800016C0E9FF17C0EAFFD6DAC5DA0C0EDB6A20
:102490000D0EDB6A060EDB5005E1010EF36E050E34
:1024A000F3CFDBFF150EDB6A160EDB6AD950370F50
:1024B000146E000EDA20156E390E14C0DBFF3A0ED2
:1024C00015C0DBFF380EDB6A080EDB6A0A0EAEDAD7
:1024D000DF50780A12E0200A10E0280A0CE0200AF7
:1024E0000AE03F0A06E00D0A02E0200A08E1020EB7
:1024F00005D0080E03D0080EDF26100E97DA030E63
:10250000DBBE02D0DB92DB94DB50800B24E08ADA66
:10251000D890030EEB50000A08E6000EEE5C000EA9
:10252000EE58000EEE58000EEE5815E213DA0B6866
:102530000C680D680E689DEC1DF00A0E02C0DBFFF2
:102540000B0E03C0DBFF0C0E04C0DBFF0D0E05C03D
:10255000DBFF2D0E08D0030EDBA202D02B0E03D022
:10256000DBA408D0200EF36E170EF3CFDBFF150EA1
:10257000DB2A02D0170EDB6A050EDB5003E1B7D968
:1025800001E189D09A0E146E3C0E156E000E166E87
:10259000070EDBCF17F0186A196A1A6A17C00BF01A
:1025A00018C00CF019C00DF01AC00EF0D3D9D5EC3C
:1025B0001DF014500224F36E15500320F46E1650D3
:1025C0000420F86EF4CFF7FFF3CFF6FF0800090EF2
:1025D000F5CFDBFF580EDF5C0FE1610EF36E090EE5
:1025E0007BD90AE3200E146E090EDBCFE7FF1450EF
:1025F000E75E090EE7CFDBFF070EDBCF14F0156AAD
:10260000166A176A0FDA14C00BF015C00CF016C06A
:102610000DF017C00EF0EECF06F0EECF07F0EECFC4
:1026200008F0EFCF09F0D5EC1DF009C0EDFF08C0B0
:10263000EDFF07C0EDFF06C0EFFF390EDBCFE9FF6E
:10264000DB063A0EDBCFEAFF01E2DB06090EDBCF49
:10265000EFFF150EDB2A4BD995E1030EDBA61DD04B
:102660006F0EDF5C06E1C1D918E3150EDB285BDADB
:1026700014D0780EDF5C09E0580EDF5C06E0620ED5
:10268000DF5C03E0420EDF5C08E1020EF36E160E23
:10269000F3CFDBFF02D0150EDB6A030EDB50100B0D
:1026A0000EE0040EDBCF14F0050EDB50D88014547E
:1026B00006E2060EDB5003E1040EDB5034DA95D956
:1026C0000AE2050EDBCFE7FF150EDB50E75E050ED5
:1026D000E7CFDBFF02D0050EDB6A040EDBCF14F080
:1026E000160E45D9D880145414E2160EDBCFE6FF3F
:1026F000150EDBCFE6FF040EDBCFE6FF050EDB5049
:10270000E552E75CE552D880E754E552D880E754BB
:102710005FD9030EDB50010B0BE1080EDB5008E024
:10272000B2D801E08DD0080EDB50BED8080EDB6AAF
:10273000170EDB5007E088D9170EF1D903E1151CFD
:1027400001E17ED0160EDB5016E07ED9300EE66E2B
:102750009FD802E1151C74E077D9DFCFE6FF5BEC70
:102760001DF0E552E552E552F4CF15F00001F31CDF
:1027700002E1151C65E0050EDBCF14F0160EDB50F0
:10278000D880145409E2050EDBCFE7FF160EDB50AC
:10279000E75E050EE7CFDBFF300EE66E050ECBD908
:1027A0004FE1390EDB2ADBCFE9FF3A0E01E3DB2AEA
:1027B000DBCFEAFF090EEFCFDBFFDB500EE044D9A1
:1027C000090EADD902E1151C3BE0390EDB2ADBCF47
:1027D000E9FF3A0EEDE3DB2AEBD755D831E1160ECF
:1027E000DBCFE6FF080EC3D8E552E7245DD82ED034
:1027F000070EDB50030A1CE0010A14E0030A07E09D
:102800007BD9DBCFEEFF020EDBCFEDFF1FD0F5D87B
:10281000196A17AE02D0186819682CD8BCD819C02C
:10282000EEFF14D0EAD817BE186824D8B4D80ED05A
:1028300063D9DBCFEFFF0AD07BD905E1151C03E19B
:10284000F368F46810D0FCD801E3DB2A79D9C5EF2E
:102850000FF0010EDBCF14F0020EDBCF15F014C029
:10286000F3FF15C0F4FF3B0EE15C02E2E16AE552C2
:10287000E16ECBD029D9020E2BEF15F061D90800FB
:10288000F550DF6E1200200EE66E080E9BEF15F07D
:102890005BEC1DF0E552E552E552F3CF14F0F4CFB6
:1028A00015F00001F31C1200146E156AD950010FC7
:1028B0004DD91450EE261550ED221200185E000E70
:1028C000195AF70E18C0DBFFF80E19C0DBFF18C04D
:1028D000E9FF19C0EAFF1200DBCFF4FFF350F45C0C
:1028E0001200DB50E76E040EE7CFDBFF12000A0E8A
:1028F000DBCF14F00B0EDBCF15F00C0EDBCF16F098
:102900000D0EDBCF17F01450151016101710120013
:10291000130EEECFDBFF140EEDCFDBFF130EDBCF7C
:1029200014F0140EDBCF15F00001800E1514120008
:10293000F70EDBCF18F0F80EDBCF19F01200050E02
:10294000DB50E66ED950130F01D9E552E750EE6E19
:10295000ED6A12000A0EDBCF06F00B0EDBCF07F09C
:102960000C0EDBCF08F00D0EDBCF09F01200DBCF31
:10297000E6FF150EDBCFE6FF050EDB50E552E72440
:10298000E552E7241200DB50CED8010EF36E060E9E
:10299000F3CFDBFF1200EE50EFCFEAFFE96E16C077
:1029A000EEFF17C0EEFF18C0EEFF1200D9CFE6FF12
:1029B000DACFE6FFE1CFD9FFE2CFDAFF1200DFCFB7
:1029C000E6FFE66A0FEC1EF0E552E552F350120006
:1029D000E76E080EE7CFDBFF1200EECF14F0EECF6C
:1029E00015F0EFCF16F0176A1200050EDBCF14F0CA
:1029F000150EDB50D88014541200010EDBCF16F0F8
:102A0000020EDBCF17F0186A1200E552E5CFDAFFAD
:102A1000E7CFD9FF12000A0E14C0DBFF0B0E15C062
:102A2000DBFF1200D9500A0FA6EF15F0F36E070E68
:102A3000F3CFDBFF1200EECF14F0EFCF15F0120052
:102A4000010EDB2A020E1200FC0EDBCFE6FFFD0EAC
:102A5000DBCFE6FF1200145E000E155AF70E14C00D
:102A6000DBFFF80E15C0DBFF14C0E9FF15C0EAFF5D
:102A70001200DA20EA6EEF2AEECFF6FF000EEF2208
:102A8000EECFF7FFEF22EECFF8FF1200040EDBCF00
:102A9000E6FF130EDB50E552E75C9ADFDB5004DF04
:102AA000060EDB501200090EDB500A0DF350DF2436
:102AB000D00FE76E090EE7CFDBFF3EEF14F0DB50DF
:102AC000F36E050E6CEF14F0F70EDBCF14F0F80E7A
:102AD000DBCF15F01200DFCFE6FF48EF14F028DF60
:102AE000030EECDEEDEF14F09AEC0FF0E552E55238
:102AF000E552E55200091200BDDEEE50EFCFEAFFCD
:102B0000E96E010E1200130EDB50F36E040E6CEF33
:102B100014F0040EDB50F36E090E6CEF14F0DBCFF3
:102B2000E6FF48EF14F0E76E050EE7CFDBFF12007B
:102B30008BDF6BEF15F0DBCFE6FF86DF74EF15F070
:102B4000D950F90FE96EFF0E39EF15F0E96E000E5E
:062B5000DA20EA6E12001B
:0A2B56008A948A9A8A908A968A98D7
:102B60000101A16BA26B300EA15D000EA25923E200
:102B70009151A125E96E9251A221EA6EEF6A020EEF
:102B8000086E096AA1C10DF0A2C10EF024DAEE6A46
:102B9000ED6A9551A125E96E9651A221EA6EEF6A80
:102BA0009751A125E96E9851A221EA6EEF6AA12BF7
:102BB000000EA223D8D7200EE66E150EE66E3F0E4D
:102BC000D8EF17F00101B96BBA6B0101300EB95D96
:102BD000000EBA592FE20101BD6BBE6B0101BB6B48
:102BE000BC6B0C0E0101BCAF02D0D89003D0BB5D12
:102BF000000EBC5919E20101BE51080B02E0010EA2
:102C000001D0000EE8B08A82E8A08A928A84010E80
:102C10000101D890BD37BE37E806FBE18A94010177
:102C2000BB2B000EBC23DDD78A940101B92B000E0B
:102C3000BA23CBD78A8600008A968A848A948A929D
:102C40001200D9CFE6FFE1CFD9FF8A948A9A8A8011
:102C50008A968A8A0101BF6BC06B0101300EBF5D8D
:102C6000000EC05970E2BFC114F0C0C115F0030ED0
:102C70000D6E0E6A14C008F015C009F0F9EC1DF0D5
:102C800004C014F005C015F01450151003E1FC0E3B
:102C9000DBCFC3F1BFC114F0C0C115F0030E0D6E40
:102CA0000E6A14C008F015C009F0F9EC1DF004C05C
:102CB00014F005C015F0010E141801E1155003E1E0
:102CC000FD0EDBCFC3F1BFC114F0C0C115F0030E80
:102CD0000D6E0E6A14C008F015C009F0F9EC1DF075
:102CE00004C014F005C015F0020E141801E11550CF
:102CF00003E1FE0EDBCFC3F10101C16BC26B060E17
:102D00000101C2AF02D0D89003D0C15D000EC259FC
:102D100015E2200E0101C31502E0010E01D0000EE4
:102D2000E8B08A82E8A08A928A840101C39FC347DF
:102D30008A940101C12B000EC223E1D70101BF2BF0
:102D4000000EC0238AD78A8600008A968A903ADFCE
:102D5000E552E7CFD9FF12000101B70501E08CD0A1
:102D60008A888A868B8E8A96B76B8A98AD6BAE6B93
:102D7000300EAD5D000EAE594BE2FFD8EF50940A15
:102D800036E0070A2BE0010A23E0030A1DE0E30A0C
:102D90000CE0030A02E0710A36D010D90201ED5DA1
:102DA00032E12AD9EAD8720E0DD09751AD25E96EDD
:102DB0009851AE21EA6EEF500201ED5D24E125D974
:102DC000DCD8710EEF6E1FD01CD90AE215D903D0E2
:102DD0000CD90FE21AD9D1D8EF6A15D012D905E370
:102DE00018D9EE261550ED220ED006D908D0FDD800
:102DF00005E30FD9EE5E1550ED5A05D006D9BDD8C2
:102E0000EF6A010EB86F0101AD2B000EAE23B0D7F3
:102E1000AD6BAE6B300EAD5D000EAE592DE28FD8AE
:102E2000EECFB3F1EDCFB4F1AF6BB06B0C0EB0AF32
:102E300002D0D89003D0AF5D000EB05917E2B45164
:102E4000080B02E0010E01D0000EE8B08A82E8A073
:102E50008A928A84010ED890B337B437E806FBE132
:102E60008A940101AF2B000EB023E0D78A948A9296
:102E7000AD2B000EAE23CED71200D9CFE6FFE1CFA7
:102E8000D9FF010E65D8910A0FE0030A0DE0010A8F
:102E90000BE0070A09E0480A0BE1040E59D8E66E78
:102EA000030E94D885D82AD0010E90D877D81CD09C
:102EB000010E8CD873D8030E4BD80201F16FF26B60
:102EC000F26FF16B040E44D8F111F16F020E40D88D
:102ED000020D01019351F324E96E9451F420EA6E3E
:102EE000F1C2EEFFF2C2EDFF040E70D8EA6A95253A
:102EF000E96E9651EA22E552E750EF6EE552E7CFD0
:102F0000D9FF12000101010EB76F0201ED2B010183
:102F1000B6510201ED5D01E3ED6B1200D9CFE6FF82
:102F2000E1CFD9FFFE0EDBCFB6F1E552E7CFD9FFF7
:102F300012000101B85112000101B86B1200020E1B
:102F4000086E096AADC10DF0AEC10EF0EBEF17F0DF
:102F5000E76EFD0EDBCFE9FFFE0EDBCFEAFFE750A9
:102F6000E926000EEA22EF501200EECF14F0EFCF68
:102F700015F024D8166E176A12009151AD25E96E2E
:102F80009251AE21EA6E1200FF0ED88016560F0E37
:102F900017561450165C1550175812000101EA6AB2
:102FA0009125E96E9251EA22E552E750EF6E120048
:102FB000E66E47DEE552E552E55212009551AD2529
:102FC000E96E9651AE21EA6EEF501200C1DFE66E57
:102FD000020EA8EF17F084EC1AF0010193510624B9
:102FE000E96E94510720EA6E1200A9DFBEDFE850B7
:102FF000145C175015581200A2DFEE680F0EED6E2C
:1030000012009DDFB2DFC4EF17F099DFEE6AED6AC0
:0E3010001200D4DF146E156A92DF1450120005
:02301E0012019D
:10302000000200000008D90499090200010203010E
:103030001201000200000008D90400010200010290
:1030400003011201000200000008D904010102007E
:10305000010203011201000200000008D90402016C
:103060000200010203011201000200000008D9045D
:103070000301020001020301120100020000000826
:10308000D904040102000102030112010002000040
:103090000008D90405010200010203011201000227
:1030A00000000008D9040601020001020301120118
:1030B000000200000008D904070102000102030118
:1030C0001201000200000008D904080102000102F8
:1030D00003011201000200000008D90409010200E6
:1030E0000102030109022900010100C032090400A4
:1030F000000203000000092111010001221C000749
:103100000581034000010705010340000104030994
:10311000041803510075006500730065006E0062BD
:103120000065007200720079001E0351002D0042FC
:1031300000650072007200790020004C00450044D8
:1031400000200023003F001E0351002D00420065B7
:103150000072007200790020004C004500440020FD
:1031600000230030001E0351002D00420065007254
:10317000007200790020004C00450044002000232C
:103180000031001E0351002D0042006500720072E4
:1031900000790020004C004500440020002300324C
:1031A000001E0351002D004200650072007200797C
:1031B0000020004C00450044002000230033001E86
:1031C0000351002D0042006500720072007900205A
:1031D000004C00450044002000230034001E035131
:1031E000002D004200650072007200790020004C42
:1031F00000450044002000230035001E0351002D2F
:10320000004200650072007200790020004C004509
:103210000044002000230036001E0351002D004210
:1032200000650072007200790020004C00450044E7
:10323000002000230037001E0351002D00420065CE
:103240000072007200790020004C0045004400200C
:1032500000230038001E0351002D0042006500725B
:10326000007200790020004C00450044002000233B
:103270000039001603510042005700200076003349
:10328000002E0038002E0030000600FF0901A101C9
:103290001901294015012540750895408100190143
:1032A00029409100C0E430000D3100113100293176
:1032B000007332000D3100113100473100733200CC
:1032C0000D31001131006531007332000D310011F4
:1032D00031008331007332000D3100113100A13112
:1032E000007332000D3100113100BF310073320024
:1032F0000D3100113100DD31007332000D3100114C
:103300003100FB31007332000D31001131001932F0
:10331000007332000D31001131003732007332007A
:0C3320000D3100113100553200733200F5
:04332C000001606BD1
:10333000616B626B636B646B656B1200D9CFE6FFE8
:10334000E1CFD9FF020EE126C7D800016451F32472
:10335000146E6551F420156E7E0E145C000E155827
:103360003CE2DE6ADD6ADECF14F0DDCF15F014C07A
:10337000E6FF15C0E6FFB0D8E552E7CF15F0E552FD
:10338000E7CF14F0F3CF16F0F4CF17F0F350145C3E
:10339000F450155819E2FD0EDBCF14F0FE0EDBCF12
:1033A00015F0DE501424E96EDD501520EA6EEF5062
:1033B000E66E660E00019BD8E552E75080D8DF2A02
:1033C000010ED1E3DB2ACFD7660E000190D80D0E97
:1033D00076D8660E8CD80A0E72D8020EE15C02E234
:1033E000E16AE552E16EE552E7CFD9FF1200D9CF8D
:1033F000E6FFE1CFD9FF040EE126DE6ADD6A0001B7
:103400003F0ED8806455000E655504E23F0EDE6E17
:10341000DD6A04D064C0DEFF65C0DDFFDECF14F0DE
:10342000DDCF15F01406000E155AFD0EDBCFE9FFB7
:10343000FE0EDBCFEAFF14C0EFFF6451651135E0EB
:10344000010EF36E020EF3CFDBFF030EDB6A55D8DD
:10345000DECF16F0DDCF17F01650145C175015585C
:1034600024E2660E6025E96E000E6121EA6EEF50DF
:10347000E66E43D8FD0EDB501424E96EFE0EDB50E1
:103480001520EA6EE552E750EF6E010E6025606F81
:10349000000E6121616B609F6407000E655B020E88
:1034A000DB2A030ED4E3DB2AD2D7040EE15C02E26E
:1034B000E16AE552E16EE552E7CFD9FF1200EF6E07
:1034C000010E6225626F000E6321636F636B629F62
:1034D000642B000E65231200FD0EDBCFE6FFFE0E0F
:1034E000DBCFE6FF28EC1DF0E552E5521200622525
:1034F000E96E000E6321EA6E1200020EDBCF14F0BB
:08350000030EDBCF15F01200F1
:0835080008C012F008500D028A
:10351000F4CF07F0F3CF06F009500E02F4CF09F014
:10352000F3CF08F00D02F3500726F4500822E86AA2
:10353000092212500E02F3500726F4500822E86ABE
:103540000922000C09C013F008C012F007C011F0E6
:1035500007500C02F4CF05F0F3CF04F008500D0231
:10356000F4CF07F0F3CF06F00C02F3500526F45029
:103570000622E86A072211500D02F3500526F45086
:103580000622E86A072209500C02F3500626F4507E
:10359000072209500D02086AE86A0822F35007263C
:1035A000F450082211500E02F3500626F450072260
:1035B000096AE86A0822092212500E02F35007260F
:1035C000F4500822E86A092213500E02F35008262C
:1035D000F4500922000C09C013F008C012F0085082
:1035E0000D02F4CF07F0F3CF06F009500E02F4CF2E
:1035F00009F0F3CF08F00D02F3500726F45008222B
:10360000E86A092212500E02F3500726F4500822ED
:10361000E86A09220EAE11EF1BF01250085E13503B
:10362000095A13AE000C0D50085E0E50095A000CDA
:103630004F4F5053202D20496E76616C6964206392
:103640006F6D6D616E642030782558203078255874
:10365000203078255820307825582030782558207B
:10366000307825582066726F6D20686F73742E0055
:103670005049445F474554202D2030782558207408
:103680006F20686F73742E005049445F5345542077
:103690002D2030782558203078255820307825582E
:1036A00020726F756E6420747269702E00544C43E2
:1036B0005F434D44202D2030782558203078255800
:1036C000203078255820307825582030782558200B
:1036D000307825582066726F6D20686F73742E00E5
:1036E000545249474745520052656365697665649F
:1036F00020636F6D6D616E6420307825582066728E
:103700006F6D20686F73742E0055534220446576A8
:1037100069636520496E697469616C697365642EBB
:1037200000284329323031342044617669642051C5
:10373000756573656E6265727279202D2068747488
:10374000703A2F2F7777772E514279746573576FC0
:08375000726C642E636F6D00C2
:08375800040120511F0B0108C0
:1037600001E01200245101E01200060E215D22E169
:103770002351230A1FE0010A0EE0030A1BE10101A5
:10378000C50518E10101F60ED56F300ED66F000E9B
:10379000D76F090E0BD00101C5050CE10101890E9F
:1037A000D56F320ED66F000ED76F1C0ED96FDA6B45
:1037B000C00ED86F04012051600BE842E842E84295
:1037C000E842E842010801E0120021510B0A26E01C
:1037D000080A19E0090A11E0080A05E00B0A23E0CB
:1037E000080A21E012000101FE0ED56F010ED66F0E
:1037F000010ED96FDA6BC10E0FD00101800ED86FA8
:1038000023C4FEF112000101FF0ED56F010ED66F29
:10381000010ED96FDA6B810ED86F12000101800E94
:08382000D86F22C4FFF1120071
:08382800D9CFE6FFDACFE6FF7D
:10383000E1CFD9FFE2CFDAFFE652E652E652E65296
:10384000D950F90F146EFF0EDA20156E020E14C057
:10385000DBFF030E15C0DBFF020EDBCFE6FF030E1E
:10386000DBCFE6FFF90EDBCFE6FFFA0EDBCFE6FF9C
:10387000FB0EDBCFE6FFD950FC0FE66EFF0EDA2021
:10388000E66EB0EC0FF0146E070EE15C02E2E16A46
:10389000E552E16E1450F3CFDEFFF4CFDDFFFC0EF6
:1038A000DBCFE9FFFD0EDBCFEAFFEF6ADECF14F0DE
:1038B000DDCF15F014C0F3FF15C0F4FF040EE15C7A
:1038C00002E2E16AE552E16EE552E5CFDAFFE7CFC9
:0438D000D9FF12000A
:0C38D400D9CFE6FFE1CFD9FFE652FE0E8F
:1038E000DB50A96EFD0EDB50A86EA69EA69CA6849A
:1038F000F250DF6EF26A550EA76EAA0EA76EA68270
:10390000DF50F26E0000A1B802D00000FCD7A694F0
:10391000A198E552E552E7CFD9FF1200D9CFE6FFD3
:10392000E1CFD9FFFE0EDB50A96EA69EA69CA68015
:10393000A850E552E7CFD9FF1200F3C2E6FFEEDF51
:10394000E5521200D9CFE6FFE1CFD9FF000EF36EAA
:10395000FE0EDBCFF4FFF350F45C0DE3FE0EDB5004
:10396000090809E3FE0EDBCFE6FFF3C2E6FFB2DF94
:0E397000E552E5520000E552E7CFD9FF120004
:02397E002A0E0F
:10398000F66E100EF76E000EF86E01010900F5508C
:10399000F96F0900F550FA6F03E1F96701D03DD0E6
:1039A0000900F550F46F0900F550F56F0900F55066
:1039B000F66F09000900F550E96E0900F550EA6E4E
:1039C000090009000900F550F76F0900F550F86F7C
:1039D00009000900F6CFFBF1F7CFFCF1F8CFFDF1BC
:1039E000F4C1F6FFF5C1F7FFF6C1F8FF0101F75387
:1039F00002E1F85307E00900F550EE6EF707F8E230
:103A0000F807F9D7FBC1F6FFFCC1F7FFFDC1F8FFCE
:0C3A10000101F907000EFA5BBFD712009D
:043A1C00FE0EE3CFE8
:103A2000E9FFFF0EE3CFEAFFE9CFF3FFEACFF4FFB0
:103A3000FB0EE35003E1FC0EE35009E0FB0EE3064E
:103A400002E2FC0EE306FD0EE350EE6EF1D712002B
:103A5000FE0EE3CFE9FFFF0EE3CFEAFFF36AF46A5D
:103A6000EE5203E0F34AF42AFBD71200FF0EE3CF35
:103A7000F8FFE552FF0EE3CFF7FFE552FF0EE3CF6D
:103A8000F6FFE552E66AE66AE66A0900F55209E0E1
:103A9000FD0EE32A05E1FE0EE32A02E1FF0EE32A12
:103AA000F4D7FD0EE3CF07F0FE0EE3CF08F0FF0ED4
:063AB000E3CF09F0120053
:0A3AB600D9CFE6FFDACFE6FFE1CF3B
:103AC000D9FFE2CFDAFFFB0EDBCF14F0FC0EDBCF29
:103AD00015F00001800E15141AE1FB0EDBCFE9FF93
:103AE000FC0EDBCFEAFFEECFF3FFEDCFF4FFEE2AC3
:103AF000000EEF22F3CFE9FFF4CFEAFFFD0EDBCF9C
:103B0000EFFFEF50156AF36E15C0F4FF10D0FB0EF7
:103B1000DB50FE0806E1FD0EDBCFE6FF3FEC1EF0BA
:103B200005D0FD0EDBCFE6FF56EC1EF0E552E55268
:0A3B3000E5CFDAFFE7CFD9FF12005E
:063B3A0006500B02F3CF60
:103B400002F0F4CF03F00C02F3500326000EF42031
:103B5000046E06500D02F3500426000EF420056E8C
:103B600006500E02F350052607500B02F3500326B1
:103B7000F4500422000E052207500C02F3500426D4
:103B8000F450052207500D02F350052608500B0291
:103B9000F3500426F450052208500C02F350052679
:0A3BA00009500B02F3500526120035
:063BAA00056A046A036ACB
:103BB000026A200EE76ED8900636073608360936B8
:103BC00002360336043605360B50025C0C5003589F
:103BD0000D5004580E50055809E30B50025E0C506E
:103BE000035A0D50045A0E50055A062AE72EE4D700
:023BF0001200C1
:0E3BF200056A046A100EE76ED8900836093690
:103C0000043605360D50045C0E50055805E30D5082
:0E3C1000045E0E50055A082AE72EF0D7120067
:023C1E00F36A47
:103C2000F46AFF0EE124E96EFF0EE220EA6EED6613
:103C300007D02F0EEF6404D03A0EEF6001D0F32AC4
:023C4000120070
:0E3C4200000EF36E00EE00F0080E01D8120026
:103C5000EA6002D0EE6AFCD7F350E9601200EE6A27
:023C6000FCD78F
:0E3C620013EE00F023EE00F0F86A019CBFECB8
:0E3C70001CF057EC1EF081EC00F0FBD71200A8
:023C7E00FF0E37
:103C8000E350ACBA04D0AF6AAB8EAC8A949CACA2C1
:0A3C9000FED7AD6EF36EF46A120069
:063C9A00303132333435F5
:0B3CA0003637383961626364656600E6
:013CAB000018
:023CAC00120004
:023CAE00120002
:103CB0000000013001000630060000010000000095
:103CC00000000000000000040001000000000000EF
:103CD00000000000003F00010000000000000000A4
:043CE0000000003FA1
:0C3CE400000000005142572076332E38BB
:103CF0002E30512D4265727279204C454420233F6D
:103D0000512D4265727279204C4544202330512D4B
:103D10004265727279204C4544202331512D426511
:103D2000727279204C4544202332512D42657272C3
:103D300079204C4544202333512D426572727920FD
:103D40004C4544202334512D4265727279204C45F4
:103D500044202335512D4265727279204C45442010
:103D60002336512D4265727279204C454420233709
:103D7000512D4265727279204C4544202338512DD3
:0C3D80004265727279204C4544202339C2
:020000040030CA
:0100000027D8
:010001000EF0
:010002003FBE
:010003001EDE
:010005008179
:010006008178
:010008000FE8
:01000900C036
:01000A000FE6
:01000B00E014
:01000C000FE4
:01000D0040B2
:00000001FF
